:020000040800F2
:1000000000000220054E0008554E0008554E00081D
:10001000554E0008554E0008554E000800000000DF
:10002000000000000000000000000000554E000825
:10003000554E000800000000554E00080505000858
:10004000554E0008554E0008554E0008554E000804
:10005000554E0008554E00082D0500081F050008E4
:1000600011050008554E0008554E0008554E000871
:10007000554E0008554E0008554E0008554E0008D4
:10008000554E0008554E0008554E0008554E0008C4
:10009000554E0008554E0008554E0008554E0008B4
:1000A000554E0008554E0008554E0008554E0008A4
:1000B000554E0008554E0008554E0008554E000894
:1000C000554E0008554E0008554E0008554E000884
:1000D000554E0008554E0008554E0008554E000874
:1000E000554E0008554E0008554E0008554E000864
:1000F000554E0008554E0008554E0008554E000854
:10010000554E0008554E0008554E0008554E000843
:10011000554E0008554E0008590500086D050008A9
:10012000554E0008554E0008554E0008554E000823
:10013000554E00080000000000000000554E000869
:10014000554E0008554E0008554E0008554E000803
:10015000554E0008554E0008554E0008554E0008F3
:10016000554E0008554E0008554E0008554E0008E3
:10017000554E0008554E0008554E0008000000007E
:1001800000000000554E00080000000000000000C4
:10019000554E00080000000000000000554E000809
:1001A000000000000000000000000000554E0008A4
:1001B000554E0008554E0008554E0008554E000893
:0401C000554E000890
:1001C40010B5054C237833B9044B13B10448AFF38D
:1001D40000800123237010BD98000020000000005F
:1001E400604F000808B5034B1BB103490348AFF344
:1001F400008008BD000000009C000020604F000843
:1002040053B94AB9002908BF00281CBF4FF0FF3179
:100214004FF0FF3000F072B9ADF1080C6DE904CE77
:1002240000F006F8DDF804E0DDE9022304B07047CD
:100234002DE9F047089E04468846002B4BD18A429C
:10024400154667D9B2FA82F24AB1C2F1200701FA1F
:1002540002F320FA07F7954047EA030894404FEA6F
:10026400154E230CB8FBFEF71FFA85FC0EFB17880E
:1002740043EA084307FB0CF1994209D9EB1807F14B
:10028400FF3080F01B81994240F21881023F2B44D9
:100294005B1AA4B2B3FBFEF00EFB103344EA034432
:1002A40000FB0CFCA44509D92C1900F1FF3380F0A4
:1002B4000781A44540F2048102382C4440EA0740F7
:1002C400A4EB0C0400271EB1D4400023C6E900436C
:1002D4003946BDE8F0878B4209D9002E00F0EB8047
:1002E4000027C6E9000138463946BDE8F087B3FA6D
:1002F40083F7002F47D18B4202D3824200F2FA8067
:10030400841A61EB030301209846002EE0D0C6E96D
:100314000048DDE702B9FFDEB2FA82F2002A40F0BB
:100324008F80491B4FEA154E1FFA85F80127B1FB50
:10033400FEFC230C0EFB1C1143EA014308FB0CF1E9
:10034400994207D9EB180CF1FF3002D2994200F21E
:10035400CD808446591AA3B2B1FBFEF00EFB1014F3
:1003640043EA044408FB00F8A04507D92C1900F11E
:10037400FF3302D2A04500F2B6801846A4EB08046D
:1003840040EA0C409FE7C7F1200CBB4022FA0CFE68
:100394004EEA030E01FA07F420FA0CF521FA0CF3E5
:1003A4004FEA1E482543B3FBF8F92C0C08FB19331C
:1003B4001FFA8EFA44EA034309FB0AF49C4202FA48
:1003C40007F200FA07F10BD91EEB030309F1FF3022
:1003D40080F087809C4240F28480A9F10209734432
:1003E4001B1BADB2B3FBF8F008FB103345EA034422
:1003F40000FB0AFAA24508D91EEB040400F1FF33FE
:100404006BD2A24569D90238744440EA0940A0FB82
:100414000289A4EB0A044C45C2464B4654D351D03E
:10042400002E69D0B1EB0A0564EB030404FA0CFC5A
:10043400FD40FC404CEA0505C6E90054002747E7A7
:10044400C2F1200320FA03F7954001FA02F021FAE1
:1004540003F34FEA154E3843010CB3FBFEF71FFAC2
:1004640085F80EFB173341EA034107FB08F38B427F
:1004740004FA02F407D9691807F1FF3C2FD28B4222
:100484002DD9023F2944CB1A81B2B3FBFEF00EFBF7
:10049400103341EA034100FB08F38B4207D9691882
:1004A40000F1FF3C17D28B4215D902382944C91AEE
:1004B40040EA07473BE73746304609E70746E7E6A1
:1004C4001846FBE64145ABD2B8EB020A69EB0E02D3
:1004D40001381346A4E76046E9E7184695E76746FE
:1004E400D1E781467CE702382C4447E7ACF1020CA3
:1004F4002B442FE7384608E73746E9E6704700BF44
:1005040080B500AF01F0BAFA00BF80BD80B500AF7E
:10051400042001F0E1FD00BF80BD80B500AF0220E2
:1005240001F0DAFD00BF80BD80B500AF01210748AE
:1005340001F0BAFD0346012B02D1012001F0CCFDEC
:10054400034B01225A6100BF80BD00BF000402407A
:10055400003C014080B500AF024803F0D9FF00BF62
:1005640080BD00BFA405002080B500AF024803F0A1
:10057400CFFF00BF80BD00BF5C05002080B500AF89
:1005840001F02AFA00F01AF800F0A8F8012109484D
:1005940000F09CFE00F074F800F028FF00F07EFDEF
:1005A40000F0B2FD00F03EFD034803F01FFE00F032
:1005B400ADFBF9E7000002405C05002080B594B073
:1005C40000AF07F11C0334220021184604F080FC1C
:1005D40007F1080300221A605A609A60DA601A610F
:1005E40000237B60244B1B6C234A43F08053136429
:1005F400214B1B6C03F080537B607B6800233B60C2
:100604001E4B1B6823F440431C4A43F4804313608D
:100614001A4B1B6803F440433B603B680223FB61B5
:100624000123BB621023FB6200237B6307F11C03DD
:10063400184603F0A7F80346002B01D000F0A6F8F3
:100644000F23BB600023FB6000233B614FF4A053E6
:100654007B614FF48053BB6107F108030021184606
:1006640002F0C0FA0346002B01D000F08FF800BF5F
:100674005037BD4680BD00BF0038024000700040C6
:1006840080B500AF124B134A1A60114B124A5A60DC
:100694000F4B00229A600E4B0022DA600C4B4FF491
:1006A40080421A610A4B00225A61094B00229A6166
:1006B400074B0022DA61064B00221A62044801F05B
:1006C40023FD0346002B01D000F060F800BF80BD7D
:1006D40008050020005400403057050080B588B05C
:1006E40000AF07F10C0300221A605A609A60DA60C6
:1006F4001A610023BB60224B1B6B214A43F00103A8
:1007040013631F4B1B6B03F00103BB60BB68002327
:100714007B601B4B1B6B1A4A43F002031363184B99
:100724001B6B03F002037B607B680723FB60154BA4
:100734003B6100237B610023BB6107F10C03194675
:10074400114801F01FFB0F220021082001F0D5FA07
:10075400082001F0EEFA0F220021072001F0CDFA63
:10076400072001F0E6FA0F220021062001F0C5FA65
:10077400062001F0DEFA00BF2037BD4680BD00BF71
:1007840000380240000011100004024080B400AFA1
:1007940072B6FEE780B500AF01F0EAF800F092FB14
:1007A4000E4B9B699BB2163B99B20C4BDB699AB218
:1007B4000B4B0C4801F0C2F8084B1B6A99B2074B6B
:1007C4005B6A9AB2064B084801F0B8F8074B03225B
:1007D4001A60372001F0ADFA00BF80BD1800002078
:1007E400080000208C770008947700087800002027
:1007F40080B500AF01F0BCF80F4B1B6999B20E4BEA
:100804005B699AB20D4B0E4801F098F80A4B9B684D
:1008140099B2094BDB689AB2084B0A4801F08EF88A
:10082400054B1B6899B2044B5B689AB2034B0648AC
:1008340001F084F800BF80BD1800002008000020EB
:10084400A0770008A8770008B077000880B500AF4B
:1008540001F08EF80B4B1B6B99B20A4B5B6B9AB28F
:10086400094B0A4801F06AF8064B1B6B99B2054B19
:100874005B6B9BB214339AB2034B054801F05EF8EC
:1008840000BF80BD1800002008000020A0770008E9
:10089400B877000880B500AF01F06AF80B4B1B6B0A
:1008A40099B20A4B5B6B9AB2094B0A4801F046F8BD
:1008B400064B1B6B99B2054B5B6B9BB214339AB21C
:1008C400034B054801F03AF800BF80BD1800002032
:1008D40008000020A8770008C077000880B582B01F
:1008E40000AFFFF7B3FF384B1B68391D0A221846C7
:1008F40004F0ECFA354B1B6B9BB20C3399B2334BBF
:100904005B6B9BB214339AB2381D314B01F016F86D
:10091400304B00221A7000BF2E4B1B78002BFBD0EB
:100924002D4B1B68022B04D0042B21D0012B3ED06D
:1009340043E0254B1B68082B3CDC234B1B6801332D
:10094400214A1360204B1B68391D0A22184604F003
:10095400BDFA1E4B1B6B9BB20C3399B21B4B5B6BEA
:100964009BB214339AB2381D194B00F0E7FF21E013
:10097400154B1B68012B1FDD134B1B68013B124AEF
:100984001360114B1B68391D0A22184604F09EFAA5
:100994000E4B1B6B9BB20C3399B20C4B5B6B9BB233
:1009A40014339AB2381D0A4B00F0C8FF04E000F07B
:1009B400ADF902E000BF00E000BF074B32221A602D
:1009C400044B00221A70A6E78000002018000020C3
:1009D40008000020B50000207C00002080B582B013
:1009E40000AFFFF757FF394B1B68391D0A22184621
:1009F40004F06CFA364B1B6B9BB20C3399B2344B3C
:100A04005B6B9BB214339AB2381D324B00F096FFE5
:100A1400314B00221A7000BF2F4B1B78002BFBD0E8
:100A24002E4B1B68022B04D0042B22D0012B3FD069
:100A340044E0264B1B68B3F5FA6F3CDA234B1B6882
:100A44006433224A1360214B1B68391D0A2218465D
:100A540004F03CFA1E4B1B6B9BB20C3399B21C4B3B
:100A64005B6B9BB214339AB2381D1A4B00F066FFCD
:100A740024E0164B1B68C82B1FDD144B1B68643B1A
:100A8400124A1360114B1B68391D0A22184604F0E0
:100A94001DFA0F4B1B6B9BB20C3399B20C4B5B6B67
:100AA4009BB214339AB2381D0A4B00F047FF05E09D
:100AB40000F02CF902E000BF00E000BF074B322237
:100AC4001A60054B00221A70A5E700BF88000020B9
:100AD4001800002008000020B50000207C00002041
:100AE40080B500AF372001F032F9FFF781FE804B6B
:100AF40002221A607E4B1B687E4A52F833309BB246
:100B0400163B99B27A4B1B687A4ADB0013445B6844
:100B14009AB2794B794800F011FF794B00221A7090
:100B240000BF774B1B78002BFBD0764B1B68022B46
:100B340076D0042B15D0012B00D0D2E06C4B1B686F
:100B4400012B07D0022B02D0002B06D008E0FFF7C0
:100B5400C5FE05E0FFF742FF02E000F0D7F800BF52
:100B6400BFE0634B1B68002B40F3B880604B1B68ED
:100B7400013B5F4A13605F4B1B689BB2163B99B203
:100B84005C4B5B689AB25C4B5F4800F0D7FE594BF4
:100B94009B689BB2163B99B2564BDB689AB2564B94
:100BA400594800F0CBFE534B1B699BB2163B99B2DC
:100BB400504B5B699AB2504B534800F0BFFE4C4B0C
:100BC4001B68012B11D0022B1CD0002B00D026E077
:100BD400484B1B689BB2163B99B2464B5B689AB272
:100BE400454B464800F0AAFE19E0424B9B689BB275
:100BF400163B99B23F4BDB689AB23F4B3F4800F03B
:100C04009DFE0CE03B4B1B699BB2163B99B2394BE2
:100C14005B699AB2384B394800F090FE00BF5DE042
:100C2400334B1B68012B5BDC314B1B680133304AAF
:100C34001360304B1B689BB2163B99B22D4B5B681B
:100C44009AB22D4B304800F079FE2A4B9B689BB238
:100C5400163B99B2274BDB689AB2274B2A4800F01F
:100C64006DFE244B1B699BB2163B99B2214B5B6909
:100C74009AB2214B244800F061FE1D4B1B68012BE6
:100C840011D0022B1CD0002B00D026E0194B1B687E
:100C94009BB2163B99B2174B5B689AB2164B174836
:100CA40000F04CFE19E0134B9B689BB2163B99B2C3
:100CB400104BDB689AB2104B104800F03FFE0CE07A
:100CC4000C4B1B699BB2163B99B20A4B5B699AB2F7
:100CD400094B0A4800F032FE00BF01E000BF00E00B
:100CE40000BF084B32221A60054B00221A7017E726
:100CF400780000201800002008000020C8770008B1
:100D0400B50000207C000020CC77000880B500AF3F
:100D1400FFF740FD364B00221A7000BF344B1B789E
:100D2400002BFBD0334B1B68022B35D0042B10D087
:100D3400012B00D054E0304B1B68032B02D100F090
:100D440065F84DE02C4B1B68042B48D1FFF7C8FE17
:100D540046E0294B04221A60284B9B699BB2163B40
:100D640099B2264BDB699AB2254B264800F0E6FD82
:100D7400214B1B68214A52F833309BB2163B99B27F
:100D84001D4B1B681D4ADB0013445B689AB21C4B65
:100D94001D4800F0D3FD23E0174B03221A60174BC4
:100DA4001B6A9BB2163B99B2144B5B6A9AB2144B02
:100DB400144800F0C3FD104B1B68104A52F833303E
:100DC4009BB2163B99B20C4B1B680C4ADB001344D4
:100DD4005B689AB20A4B0C4800F0B0FD00E000BF1B
:100DE400044B32221A60024B00221A7095E700BFAE
:100DF400B50000207C0000207800002018000020AE
:100E040008000020CC770008C877000880B582B0BD
:100E140000AF372000F09BFF104B9B6A99B20F4B39
:100E2400DB6A9AB20E4B0F4800F0A8FD00237B60EA
:100E340008E0B42000F0ACFA002000F0A9FA7B68C6
:100E440001337B60084B1B687A689A42F1DBFFF739
:100E54005DFF00BF0837BD4680BD00BF18000020FD
:100E640008000020D07700088000002080B483B000
:100E740000AF0346FB80104B01221A700F4AFB8817
:100E84001380FB88022B08D0042B0AD0012B00D03E
:100E94000BE00B4B01221A6007E0094B02221A6097
:100EA40003E0074B04221A6000BF00BF0C37BD46A5
:100EB4005DF8047B704700BFB5000020840000206B
:100EC4007C00002080B588B000AF07F10C0300223D
:100ED40019464F4803F042F83B7B184607F10803D4
:100EE4000A22194603F0F2FF7B7B18463B1D0A22B7
:100EF400194603F0EBFFBB7B18463B460A22194612
:100F040003F0E4FF3B7B092B0BD9424B1B6899B2DE
:100F1400404B5B689AB207F108003F4B00F00EFDAE
:100F240016E03C4B1B6899B23A4B5B689AB23A4B59
:100F34003A4800F003FD374B1B689BB20B3399B260
:100F4400344B5B689AB207F10800334B00F0F6FCAF
:100F5400304B9B6899B22F4BDB689AB22E4B3048CA
:100F640000F0ECFC7B7B092B0AD92A4B1B6999B254
:100F7400284B5B699AB2381D274B00F0DFFC15E063
:100F8400244B1B6999B2234B5B699AB2224B2348C9
:100F940000F0D4FC1F4B1B699BB20B3399B21D4B61
:100FA4005B699AB2381D1C4B00F0C8FC194B9B6955
:100FB40099B2184BDB699AB2174B194800F0BEFC82
:100FC400BB7B092B0AD9134B1B6A99B2114B5B6A81
:100FD4009AB23846104B00F0B1FC15E00D4B1B6A79
:100FE40099B20C4B5B6A9AB20B4B0C4800F0A6FC0E
:100FF400084B1B6A9BB20B3399B2064B5B6A9AB2DD
:101004003846054B00F09AFC00BF2037BD4680BD32
:10101400EC0500205000002008000020D8770008CC
:10102400DC77000880B586B000AF1A4B1A4A1A6004
:10103400184B00225A60174B7F229A60154BFF22EF
:10104400DA60144B00221A61124B4FF480125A6179
:10105400104B00229A610F4802F032FE0346002B27
:1010640001D0FFF793FB13233B7100237B71002313
:10107400BB710023FB713B1D00221946054802F099
:10108400B0FE0346002B01D0FFF780FB00BF1837EA
:10109400BD4680BDEC0500200028004080B582B02C
:1010A40000AF00237B60154B1B6C144A43F0100304
:1010B4001364124B1B6C03F010037B607B68104BB2
:1010C400104A1A600E4B50225A600D4B41F65732AB
:1010D400DA600B4803F030F80346002B01D0FFF729
:1010E40055FB0F220021362000F007FE362000F0C9
:1010F40020FE00BF0837BD4680BD00BF0038024057
:10110400A40500200010004080B582B000AF002389
:101114007B60154B1B6C144A43F020031364124B81
:101124001B6C03F020037B607B68104B104A1A6031
:101134000E4B4FF4FA525A600C4B40F2E732DA602D
:101144000A4802F0F9FF0346002B01D0FFF71EFB0B
:101154000F220021372000F0D0FD372000F0E9FDF8
:1011640000BF0837BD4680BD003802405C05002042
:101174000014004080B582B000AF78607B681B68C3
:10118400044A934201D1FFF79DFE00BF0837BD46D4
:1011940080BD00BF0014004080B582B000AF0023C2
:1011A4007B60104B5B6C0F4A43F4804353640D4BDC
:1011B4005B6C03F480437B607B6800233B60094BDA
:1011C4001B6C084A43F080531364064B1B6C03F0FA
:1011D40080533B603B68072000F084FD00BF083764
:1011E400BD4680BD0038024080B58AB000AF78604B
:1011F40007F1140300221A605A609A60DA601A61D7
:101204007B681B68194A93422BD100233B61184B1E
:101214001B6B174A43F002031363154B1B6B03F05C
:1012240002033B613B69C0237B611223BB61012341
:10123400FB6103233B6204237B6207F11403194619
:101244000C4800F09FFD0023FB60094B1B6C084A0F
:1012540043F400131364064B1B6C03F40013FB608C
:10126400FB6800BF2837BD4680BD00BF0054004066
:10127400003802400004024080B5A6B000AF786098
:1012840004237B660123FB6607F16403184602F01E
:1012940079FA0346002B01D0FFF778FA2023BB60CC
:1012A4004FF48073BB6407F10803184601F0A0FDF6
:1012B4000346002B01D0FFF769FA034B01221A60A1
:1012C40000BF9837BD4680BD3C0E474280B590B004
:1012D40000AF78600B467B800023FB60294B1B6CBE
:1012E400284A43F001031364264B1B6C03F00103EB
:1012F400FB60FB680023BB60224B1B6B214A43F05D
:10130400010313631F4B1B6B03F00103BB60BB683A
:101314007B88FB6202233B630123FB6307F12C03FD
:101324001946194800F02EFD184B4FF080421A6000
:10133400164B4F225A60154B4FF4FA62DA60134889
:1013440002F0C4FF0346002B01D000F04BF86023E9
:101354003B610023BB6100237B6107F11003002282
:1013640019460A4803F0DCF90346002B01D000F0CB
:1013740039F80021054803F003F800BF4037BD46A3
:1013840080BD00BF0038024000000240B8000020C9
:1013940080B582B000AF0346FB71FB79002B02D00D
:1013A400B42B0AD013E00D4B1B68C8225A630C4BB4
:1013B4001B68184600F082FB0CE0084B1B683222C5
:1013C4005A63074B1B68184600F078FB02E000F0F4
:1013D40009F800BF00BF0837BD4680BDB800002033
:1013E4008800002080B400AF72B6FEE780B582B0FA
:1013F40000AF00F029FA44F62063012278215B480B
:1014040001F0B8F80346002B01D00023A9E040F610
:10141400C4137B6002E07B68013B7B607B68002B2C
:10142400F9D1AE220021782000F06AFA20220021AE
:10143400782000F065FA10220021782000F060FA8C
:10144400B0220021782000F05BFAC8220021782025
:1014540000F056FA00220021782000F051FA102200
:101464000021782000F04CFA40220021782000F07E
:1014740047FA81220021782000F042FAFF2200215D
:10148400782000F03DFAA1220021782000F038FAFB
:10149400A6220021782000F033FAA8220021782027
:1014A40000F02EFA3F220021782000F029FAA4222D
:1014B4000021782000F024FAD3220021782000F0C3
:1014C4001FFA00220021782000F01AFAD522002108
:1014D400782000F015FAF0220021782000F010FAAC
:1014E400D9220021782000F00BFA22220021782052
:1014F40000F006FADA220021782000F001FA122224
:101504000021782000F0FCF9DB220021782000F093
:10151400F7F920220021782000F0F2F98D22002131
:10152400782000F0EDF914220021782000F0E8F989
:10153400AF220021782000F0E3F92E220021782048
:1015440000F0DEF9002000F043F800F013F8084B37
:1015540000221A80064B00225A80054B01225A7140
:10156400012318460837BD4680BD00BF080500208A
:101574000005002080B582B000AF0023FB711DE0A0
:10158400FB79503BDBB21A460021782000F0B8F911
:1015940000220021782000F0B3F9102200217820E5
:1015A40000F0AEF9FB79DB01084A1A44802340219C
:1015B400782000F05DF9FB790133FB71FB79072B8F
:1015C400DED900BF0837BD4680BD00BF0001002042
:1015D40080B582B000AF0346FB71FB79002B01D1CB
:1015E400002300E0FF234FF480621946034803F010
:1015F4006FFC00BF0837BD4680BD00BF000100205E
:1016040080B483B000AF0346FB800B46BB80134617
:10161400FB70FB887F2B48D8BB883F2B45D8264BD3
:101624001B79002B06D0FB78002B0CBF0123002371
:10163400DBB2FB70FB78012B1AD1FA88BB88DB087C
:1016440098B20346DB0113441C4AD35C5AB2BB88EC
:1016540003F00703012101FA03F35BB2134359B208
:10166400FA880346DB011344C9B2144AD1541DE07D
:10167400FA88BB88DB0898B20346DB0113440F4A9F
:10168400D35C5AB2BB8803F00703012101FA03F3C8
:101694005BB2DB435BB2134059B2FA880346DB0109
:1016A4001344C9B2054AD15400E000BF0C37BD460B
:1016B4005DF8047B704700BF000500200001002096
:1016C40080B483B000AF03460A46FB801346BB8058
:1016D400054AFB881380044ABB88538000BF0C373B
:1016E400BD465DF8047B70470005002080B586B0D8
:1016F40000AF03463960FB711346BB713A4B1B883C
:101704001A463B681B7813447F2B07DC364B5B88F7
:101714001A463B685B7813443F2B01DD00235EE0EF
:1017240000237B614BE03B685A68FB79203B3968B6
:10173400497801FB03F319467B690B445B001344AE
:101744001B88FB6000233B6130E0FA683B6902FAC6
:1017540003F303F40043002B10D0234B1A883B6996
:101764009BB2134498B2204B5A887B699BB21344B2
:101774009BB2BA791946FFF743FF14E01A4B1A8853
:101784003B699BB2134498B2174B5A887B699BB24E
:10179400134499B2BB79002B0CBF01230023DBB2A5
:1017A4001A46FFF72DFF3B6901333B613B681B7809
:1017B4001A463B699342C8D37B6901337B613B681A
:1017C4005B781A467B699342ADD3074B1A883B6812
:1017D4001B789BB213449AB2034B1A80FB791846C8
:1017E4001837BD4680BD00BF0005002080B584B019
:1017F40000AFF860B9601346FB7112E0FB681B7818
:10180400FA79B9681846FFF771FF03461A46FB6870
:101814001B789A4202D0FB681B7808E0FB6801330E
:10182400FB60FB681B78002BE8D1FB681B7818462B
:101834001037BD4680BD80B500AF0020FFF7C8FE5D
:10184400FFF798FE00BF80BD80B483B000AF074BA4
:101854007B6002E07B68013B7B607B68002BF9D1F5
:1018640000BF0C37BD465DF8047B704790D0030081
:1018740090B5C7B002AF0446084639460A60194617
:10188400FB1D22461A70BB1D02461A703B1D0A46F8
:101894001A8007F10C03BA1D12781A70002387F816
:1018A4000F3110E097F80F313A4612681A4497F84E
:1018B4000F310133117807F10C02D15497F80F312D
:1018C400013387F80F3197F80F319BB23A1D128814
:1018D4009A42E7D8FB1D1B7899B23B1D1B88013344
:1018E40098B207F10C020A2300930346034800F060
:1018F40043FD00BF07F58A77BD4690BD080500206B
:1019040080B586B002AF0346FB710B46BB7113462C
:101914007B71BB793B737B797B73FB7999B207F15C
:101924000C020A2300930223034800F025FD00BFA4
:101934001037BD4680BD00BF0805002080B584B0C7
:1019440000AFF8607B600B467B8113463B813A898C
:101954007B8911461846FFF7B3FE01227968F868BF
:10196400FFF744FFFFF706FE00BF1037BD4680BDFA
:1019740080B500AFFFF75FFF00BF80BD80B584B0C6
:1019840000AFF8607B600B467B8113463B81FFF719
:10199400EFFF3A897B8911461846FFF791FE012231
:1019A4007968F868FFF722FFFFF7E4FD00BF1037FE
:1019B400BD4680BD80B400AF064BD3F88830054ADD
:1019C40043F47003C2F8883000BFBD465DF8047B61
:1019D400704700BF00ED00E080B500AF0E4B1B6800
:1019E4000D4A43F4007313600B4B1B680A4A43F41B
:1019F40080631360084B1B68074A43F480731360C9
:101A0400032000F06FF9002000F008F8FFF7C4FB92
:101A14000023184680BD00BF003C024080B582B060
:101A240000AF7860124B1A68124B1B7819464FF4BA
:101A34007A73B3FBF1F3B2FBF3F3184600F095F9B4
:101A44000346002B01D001230EE07B680F2B0AD83C
:101A5400002279684FF0FF3000F04FF9064A7B68A6
:101A64001360002300E0012318460837BD4680BDFB
:101A74008C000020940000209000002080B400AF6F
:101A8400064B1B781A46064B1B681344044A136022
:101A940000BFBD465DF8047B704700BF9400002082
:101AA4000C06002080B400AF034B1B681846BD46EB
:101AB4005DF8047B704700BF0C06002080B584B03D
:101AC40000AF7860FFF7EEFFB8607B68FB60FB68EF
:101AD400B3F1FF3F05D0094B1B781A46FB6813444A
:101AE400FB6000BFFFF7DEFF0246BB68D31AFA684B
:101AF4009A42F7D800BF1037BD4680BD940000203D
:101B040080B485B000AF78607B6803F00703FB60A6
:101B14000C4BDB68BB60BA684FF6FF031340BB6035
:101B2400FB681A02BB68134343F0BF6343F40033FA
:101B3400BB60044ABB68D36000BF1437BD465DF880
:101B4400047B704700ED00E080B400AF044BDB6819
:101B54001B0A03F007031846BD465DF8047B704773
:101B640000ED00E080B483B000AF0346FB7197F949
:101B74000730002B0BDBFB7903F01F02074997F9B1
:101B840007305B09012000FA02F241F8232000BF6C
:101B94000C37BD465DF8047B704700BF00E100E0F0
:101BA40080B483B000AF0346FB7197F90730002B74
:101BB40010DBFB7903F01F02094997F907305B0931
:101BC400012000FA02F2203341F82320BFF34F8FA3
:101BD400BFF36F8F00BF0C37BD465DF8047B7047C1
:101BE40000E100E080B483B000AF03463960FB71CC
:101BF40097F90730002B0ADB3B68DAB20C4997F9F6
:101C040007301201D2B20B4483F800230AE03B6888
:101C1400DAB20849FB7903F00F03043B1201D2B294
:101C24000B441A7600BF0C37BD465DF8047B704741
:101C340000E100E000ED00E080B489B000AFF8609E
:101C4400B9607A60FB6803F00703FB61FB69C3F1C9
:101C54000703042B28BF0423BB61FB690433062B51
:101C640002D9FB69033B00E000237B614FF0FF32A4
:101C7400BB6902FA03F3DA43BB681A407B699A40F2
:101C84004FF0FF317B6901FA03F3D9437B680B40C2
:101C9400134318462437BD465DF8047B70470000A3
:101CA40080B582B000AF78607B68013BB3F1807F80
:101CB40001D301230FE00A4A7B68013B53600F21E3
:101CC4004FF0FF30FFF78EFF054B00229A60044B64
:101CD40007221A60002318460837BD4680BD00BF9E
:101CE40010E000E080B582B000AF78607868FFF75C
:101CF40007FF00BF0837BD4680BD80B586B000AF82
:101D04000346B9607A60FB7300237B61FFF71CFF15
:101D140078617A68B9687869FFF78EFF024697F9A7
:101D24000F3011461846FFF75DFF00BF1837BD4658
:101D340080BD80B582B000AF0346FB7197F90730D0
:101D44001846FFF70FFF00BF0837BD4680BD80B5BA
:101D540082B000AF0346FB7197F907301846FFF7CE
:101D64001FFF00BF0837BD4680BD80B582B000AFFD
:101D740078607868FFF794FF034618460837BD4635
:101D840080BD000080B489B000AF78603960002362
:101D94007B6100233B610023BB610023FB6165E1A0
:101DA4000122FB6902FA03F37B613B681B687A69D1
:101DB40013403B613A697B699A4240F054813B6825
:101DC4005B6803F00303012B05D03B685B6803F0F9
:101DD4000303022B30D17B689B68BB61FB695B000A
:101DE400032202FA03F3DB43BA691340BB613B6885
:101DF400DA68FB695B0002FA03F3BA691343BB6157
:101E04007B68BA699A607B685B68BB610122FB6985
:101E140002FA03F3DB43BA691340BB613B685B68B6
:101E24001B0903F00102FB6902FA03F3BA691343C5
:101E3400BB617B68BA695A603B685B6803F0030363
:101E4400032B17D07B68DB68BB61FB695B00032253
:101E540002FA03F3DB43BA691340BB613B689A6837
:101E6400FB695B0002FA03F3BA691343BB617B6845
:101E7400BA69DA603B685B6803F00303022B23D181
:101E8400FB69DA087B68083253F82230BB61FB69CE
:101E940003F007039B000F2202FA03F3DB43BA6942
:101EA4001340BB613B681A69FB6903F007039B009D
:101EB40002FA03F3BA691343BB61FB69DA087B686E
:101EC4000832B96943F822107B681B68BB61FB695F
:101ED4005B00032202FA03F3DB43BA691340BB61DC
:101EE4003B685B6803F00302FB695B0002FA03F3DF
:101EF400BA691343BB617B68BA691A603B685B6863
:101F040003F08053002B00F0AE800023FB605C4B99
:101F14005B6C5B4A43F480435364594B5B6C03F43E
:101F24008043FB60FB68574AFB699B08023352F805
:101F34002330BB61FB6903F003039B000F2202FA09
:101F440003F3DB43BA691340BB617B684E4A934297
:101F540025D07B684D4A93421FD07B684C4A9342FC
:101F640019D07B684B4A934213D07B684A4A934208
:101F74000DD07B68494A934207D07B68484A934214
:101F840001D106230CE007230AE0052308E004231B
:101F940006E0032304E0022302E0012300E000231F
:101FA400FA6902F0030292009340BA691343BB61D9
:101FB4003449FB699B080233BA6941F82320394B41
:101FC4001B68BB613B69DB43BA691340BB613B6877
:101FD4005B6803F48033002B03D0BA693B69134375
:101FE400BB61304ABB6913602E4B5B68BB613B69C4
:101FF400DB43BA691340BB613B685B6803F400339D
:10200400002B03D0BA693B691343BB61254ABB6902
:102014005360244B9B68BB613B69DB43BA69134043
:10202400BB613B685B6803F48013002B03D0BA697F
:102034003B691343BB611B4ABB699360194BDB6863
:10204400BB613B69DB43BA691340BB613B685B68B6
:1020540003F40013002B03D0BA693B691343BB613B
:10206400104ABB69D360FB690133FB61FB690F2B29
:102074007FF696AE00BF2437BD465DF8047B7047FB
:1020840000380240003801400000024000040240D1
:1020940000080240000C02400010024000140240FC
:1020A40000180240003C014080B485B000AF786065
:1020B4000B467B807B681A697B881340002B02D017
:1020C4000123FB7301E00023FB73FB7B18461437E9
:1020D400BD465DF8047B704780B582B000AF03460F
:1020E400FB80084B5A69FB881340002B06D0054A35
:1020F400FB885361FB881846FEF7B8FE00BF08371B
:10210400BD4680BD003C014080B584B000AF78601E
:102114007B68002B01D101231FE17B6893F83D30DC
:10212400DBB2002B06D17B68002283F83C20786860
:10213400FFF75AF87B68242283F83D207B681B68EC
:102144001A687B681B6822F001021A607B681B68AE
:102154001A687B681B6842F400421A607B681B683B
:102164001A687B681B6822F400421A6000F02CFE97
:10217400F8607B685B687B4A934207D8FB687A4ABD
:10218400934294BF01230023DBB206E0FB68774A45
:10219400934294BF01230023DBB2002B01D001231F
:1021A400DBE0FB68724AA2FB03239B0CBB607B68E9
:1021B4001B685B6823F03F017B681B68BA680A43AD
:1021C4005A607B681B681B6A23F03F017B685B686D
:1021D400644A934202D8BB68013309E0BB684FF4F8
:1021E400967202FB03F3634AA2FB03239B090133A8
:1021F4007A6812680B4313627B681B68DB6923F4FB
:102204004F4222F0FF027B685B6856498B420DD82F
:10221400FB68591E7B685B685B00B1FBF3F3013319
:10222400C3F30B03042B38BF04234FE07B689B6884
:10223400002B11D1FB68581E7B6859680B465B0064
:102244000B44B0FBF3F30133C3F30B03002B0CBFBC
:1022540001230023DBB212E0FB68581E7B68596837
:102264000B469B000B4499000B44B0FBF3F3013382
:10227400C3F30B03002B0CBF01230023DBB2002BA1
:1022840001D0012322E07B689B68002B0ED1FB6800
:10229400581E7B6859680B465B000B44B0FBF3F394
:1022A4000133C3F30B0343F400430FE0FB68581EF0
:1022B4007B6859680B469B000B4499000B44B0FBA8
:1022C400F3F30133C3F30B0343F440437968096820
:1022D4001343CB617B681B681B6823F0C0017B68D8
:1022E400DA697B681B6A1A437B681B680A431A60B5
:1022F4007B681B689B6823F4034323F0FF037A681D
:1023040011697A68D26811437A6812680B43936042
:102314007B681B68DB6823F0FF017B685A697B6874
:102324009B691A437B681B680A43DA607B681B68F5
:102334001A687B681B6842F001021A607B680022FD
:102344001A647B68202283F83D207B6800221A638C
:102354007B68002283F83E20002318461037BD46D0
:1023640080BD00BFA08601007F841E00FF083D00E1
:1023740083DE1B43D34D621080B588B002AFF86092
:102384007A601A460B467B8113463B81FFF78AFB32
:102394007861FB6893F83D30DBB2202B40F0E0809D
:1023A4007B690093192301227049F86800F092FABE
:1023B4000346002B01D00223D3E0FB6893F83C30A2
:1023C400012B01D10223CCE0FB68012283F83C20DD
:1023D400FB681B681B6803F00103012B07D0FB6833
:1023E4001B681A68FB681B6842F001021A60FB68EC
:1023F4001B681A68FB681B6822F400621A60FB6899
:10240400212283F83D20FB68102283F83E20FB68DC
:1024140000221A64FB687A685A62FB683A895A8512
:10242400FB685B8D9AB2FB681A85FB68504ADA62D6
:1024340079897B693A6AF86800F0CAF90346002B87
:1024440001D001238DE000233B61FB681B685B69BD
:102454003B61FB681B689B693B613B6966E07A6989
:10246400396AF86800F00CFB0346002B0DD0FB68BA
:102474001B6C042B07D1FB681B681A68FB681B687C
:1024840042F400721A6001236BE0FB685B6A1A78FD
:10249400FB681B681A61FB685B6A5A1CFB685A621A
:1024A400FB685B8D9BB2013B9AB2FB685A85FB6863
:1024B4001B8D013B9AB2FB681A85FB681B685B693C
:1024C40003F00403042B1BD1FB681B8D002B17D0D6
:1024D400FB685B6A1A78FB681B681A61FB685B6AB5
:1024E4005A1CFB685A62FB685B8D9BB2013B9AB233
:1024F400FB685A85FB681B8D013B9AB2FB681A8501
:102504007A69396AF86800F0FCFA0346002B0DD0AA
:10251400FB681B6C042B07D1FB681B681A68FB68FB
:102524001B6842F400721A6001231AE0FB681B8DD9
:10253400002B94D1FB681B681A68FB681B6842F483
:1025440000721A60FB68202283F83D20FB68002299
:1025540083F83E20FB68002283F83C20002300E03F
:10256400022318461837BD4680BD00BF0200100084
:102574000000FFFF80B58AB002AFF8607A603B606C
:102584000B467B81FFF78EFAF8610123BB61FB6880
:1025940093F83D30DBB2202B40F01181FB690093AE
:1025A400192301228849F86800F094F90346002BA6
:1025B40001D0022304E1FB6893F83C30012B01D1E4
:1025C4000223FDE0FB68012283F83C20FB681B68C2
:1025D4001B6803F00103012B07D0FB681B681A6812
:1025E400FB681B6842F001021A60FB681B681A68EA
:1025F400FB681B6822F400621A60FB68242283F8DB
:102604003D20FB6800221A64FB68704ADA62FB68AA
:102614001B681A68FB681B6842F480721A60FB69C5
:1026240000933B6800224FF00111F86800F052F962
:102634000346002B0DD0FB681B681B6803F48073F2
:10264400B3F5807F03D1FB684FF400721A6403234F
:10265400B6E07B89DBB21A46FB681B6802F0FE0217
:102664001A61FFF71FFAF861FB681B685B6903F0E6
:102674000203022B0CBF01230023DBB2FB75FB68B2
:102684001B685B6903F48063B3F5806F0CBF01239F
:102694000023DBB2BB7525E0FFF704FA0246FB69B1
:1026A400D31A3A689A4202D33B68002B03D1FB68E1
:1026B400A02283F83D20FB681B685B6903F00203DA
:1026C400022B0CBF01230023DBB2FB75FB681B68E4
:1026D4005B6903F48063B3F5806F0CBF01230023AF
:1026E400DBB2BB75FB6893F83D30DBB2A02B05D0A1
:1026F400FB7D002B02D1BB7D002BCDD0FB682022BB
:1027040083F83D20FB681B685B6903F00203022B1E
:1027140029D1FB681B681A68FB681B6842F40072C5
:102724001A6000233B61FB681B685B693B61FB68C3
:102734001B689B693B613B69FB6900931923012278
:102744002149F86800F0C6F80346002B01D00123A4
:1027540036E0FB68202283F83D20FB68002283F8E2
:102764003C2000232CE0FB681B681A68FB681B688C
:1027740042F400721A60FB681B686FF480625A614D
:10278400FB690093192301220F49F86800F0A2F8AD
:102794000346002B01D0012312E0BB690133BB6166
:1027A400BA697B689A42FFF432AFFB68202283F84F
:1027B4003D20FB68002283F83C20012300E0022333
:1027C40018462037BD4680BD020010000000FFFF00
:1027D40080B588B002AFF8607A603B600B467B81BD
:1027E400FB68DB6A7B617B69082B06D07B69012B64
:1027F40003D07B6913F5803F08D1FB681B681A6816
:10280400FB681B6842F480721A600BE0FB681B6B68
:10281400122B07D1FB681B681A68FB681B6842F41B
:1028240080721A603B6800937B6800224FF00111AC
:10283400F86800F04FF80346002B0DD0FB681B68C6
:102844001B6803F48073B3F5807F03D1FB684FF4F6
:1028540000721A64032335E0FB681B69B3F5804FEB
:1028640008D17B89DBB21A46FB681B6802F0FE02C2
:102874001A611BE07B89DB11DBB203F00603DBB2D8
:1028840063F00F03DAB2FB681B681A613B687A686D
:102894000E49F86800F075F80346002B01D00123B7
:1028A40010E07B89DAB2FB681B681A613B687A68BE
:1028B4000749F86800F065F80346002B01D00123AE
:1028C40000E0002318461837BD4680BD080001000B
:1028D4000200010080B584B000AFF860B9603B60CD
:1028E4001346FB7125E03B68B3F1FF3F21D0FFF7AE
:1028F400D9F80246BB69D31A3A689A4202D33B68B4
:10290400002B16D1FB6800221A63FB68202283F88F
:102914003D20FB68002283F83E20FB681B6C43F0DB
:102924002002FB681A64FB68002283F83C20012320
:1029340023E0BB681B0CDBB2012B0DD1FB681B68C9
:102944005B69DA43BB6813409BB2002B0CBF0123C5
:102954000023DBB21A460CE0FB681B689B69DA4370
:10296400BB6813409BB2002B0CBF01230023DBB2D6
:102974001A46FB799A42B6D0002318461037BD4652
:1029840080BD80B584B000AFF860B9607A603B6008
:1029940051E0FB681B685B6903F48063B3F5806FE7
:1029A40023D1FB681B681A68FB681B6842F4007239
:1029B4001A60FB681B686FF480625A61FB6800222E
:1029C4001A63FB68202283F83D20FB68002283F809
:1029D4003E20FB681B6C43F00402FB681A64FB682E
:1029E400002283F83C20012346E07B68B3F1FF3FDB
:1029F40021D0FFF757F802463B68D31A7A689A4207
:102A040002D37B68002B16D1FB6800221A63FB6893
:102A1400202283F83D20FB68002283F83E20FB68D7
:102A24001B6C43F02002FB681A64FB68002283F8E5
:102A34003C20012320E0BB681B0CDBB2012B0CD132
:102A4400FB681B685B69DA43BB6813409BB2002BCD
:102A540014BF01230023DBB20BE0FB681B689B69F6
:102A6400DA43BB6813409BB2002B14BF012300233D
:102A7400DBB2002B8DD1002318461037BD4680BD34
:102A840080B584B000AFF860B9607A602DE0F86872
:102A940000F078F80346002B01D001232DE0BB6839
:102AA400B3F1FF3F21D0FEF7FDFF02467B68D31A46
:102AB400BA689A4202D3BB68002B16D1FB68002285
:102AC4001A63FB68202283F83D20FB68002283F808
:102AD4003E20FB681B6C43F02002FB681A64FB6811
:102AE400002283F83C20012307E0FB681B685B6934
:102AF40003F08003802BCAD1002318461037BD464B
:102B040080BD80B584B000AFF860B9607A602DE014
:102B1400F86800F037F80346002B01D001232DE0BC
:102B2400BB68B3F1FF3F21D0FEF7BCFF02467B68D0
:102B3400D31ABA689A4202D3BB68002B16D1FB6839
:102B440000221A63FB68202283F83D20FB680022E0
:102B540083F83E20FB681B6C43F02002FB681A6478
:102B6400FB68002283F83C20012307E0FB681B6814
:102B74005B6903F00403042BCAD100231846103701
:102B8400BD4680BD80B483B000AF78607B681B68AD
:102B94005B6903F48063B3F5806F1BD17B681B68AA
:102BA4006FF480625A617B6800221A637B6820227A
:102BB40083F83D207B68002283F83E207B681B6CF1
:102BC40043F004027B681A647B68002283F83C208B
:102BD400012300E0002318460C37BD465DF8047B52
:102BE4007047000080B584B000AF786039607B68BE
:102BF400002B01D10123CCE0684B1B6803F00F03C9
:102C04003A689A420CD9654B3A68D2B21A70634B4F
:102C14001B6803F00F033A689A4201D00123B8E01D
:102C24007B681B6803F00203002B20D07B681B68C1
:102C340003F00403002B05D0594B9B68584A43F416
:102C4400E05393607B681B6803F00803002B05D0F6
:102C5400534B9B68524A43F460439360504B9B68C8
:102C640023F0F0027B689B684D4913438B607B68BB
:102C74001B6803F00103002B44D07B685B68012BC5
:102C840007D1474B1B6803F40033002B19D10123F0
:102C94007FE07B685B68022B03D07B685B68032B57
:102CA40007D13F4B1B6803F00073002B09D10123AC
:102CB4006FE03B4B1B6803F00203002B01D101239F
:102CC40067E0374B9B6823F003027B685B683449F9
:102CD40013438B60FEF7E6FEF8600AE0FEF7E2FEBF
:102CE4000246FB68D31A41F28832934201D9032386
:102CF4004FE02B4B9B6803F00C027B685B689B00E6
:102D04009A42EBD1254B1B6803F00F033A689A42B1
:102D14000CD2224B3A68D2B21A70204B1B6803F0D3
:102D24000F033A689A4201D0012332E07B681B68A2
:102D340003F00403002B08D0194B9B6823F4E052E2
:102D44007B68DB68164913438B607B681B6803F060
:102D54000803002B09D0124B9B6823F460427B6864
:102D64001B69DB000E4913438B6000F06BFB0146CB
:102D74000B4B9B681B0903F00F030A4AD35C21FA2F
:102D840003F3094A1360094B1B681846FEF746FE15
:102D9400002318461037BD4680BD00BF003C0240EA
:102DA40000380240E07700088C00002090000020EA
:102DB40080B400AF034B1B681846BD465DF8047B26
:102DC400704700BF8C00002080B500AFFFF7F0FF14
:102DD4000146054B9B689B0A03F00703034AD35C37
:102DE40021FA03F3184680BD00380240F07700084A
:102DF40080B58CB000AF786000237B6200233B6217
:102E04000023FB610023BB6100237B6100233B6142
:102E14000023FB600023FB620023BB627B681B680A
:102E240003F00103002B10D06F4BD3F88C3023F048
:102E3400C0627B689B6B6C491343C1F88C307B6820
:102E44009B6B002B01D10123FB627B681B6803F0A1
:102E54000203002B10D0644BD3F88C3023F0C05203
:102E64007B68DB6B60491343C1F88C307B68DB6B98
:102E7400002B01D10123FB627B681B6803F0040370
:102E8400002B17D0584BD3F88C3023F440127B68B6
:102E94001B6B55491343C1F88C307B681B6BB3F52E
:102EA400801F01D10123FB627B681B6B002B01D1C6
:102EB4000123BB627B681B6803F00803002B17D057
:102EC400494BD3F88C3023F440027B685B6B464952
:102ED4001343C1F88C307B685B6BB3F5800F01D171
:102EE4000123FB627B685B6B002B01D10123BB6276
:102EF4007B681B6803F02003002B00F08A8000230A
:102F0400BB60394B1B6C384A43F080531364364B17
:102F14001B6C03F08053BB60BB68344B1B68334AA3
:102F240043F480731360FEF7BDFD786208E0FEF79A
:102F3400B9FD02467B6AD31A022B01D9032378E236
:102F44002A4B1B6803F48073002BF0D0264B1B6FB5
:102F540003F440733B623B6A002B2FD07B681B6CED
:102F640003F440733A6A9A4228D01F4B1B6F23F430
:102F740040733B621E4B01221A601D4B00221A60F3
:102F8400194A3B6A1367184B1B6F03F00103012BAB
:102F940014D1FEF787FD78620AE0FEF783FD02464E
:102FA4007B6AD31A41F28832934201D9032340E267
:102FB4000D4B1B6F03F00203002BEED07B681B6CE0
:102FC40003F44073B3F5407F14D1074B9B6823F49B
:102FD400F8127B681B6C23F0704323F4407302499E
:102FE40013438B600CE000BF0038024000700040C7
:102FF400400E47424A4B9B68494A23F4F8139360B6
:10300400474B1A6F7B681B6CC3F30B034449134390
:103014000B677B681B6803F01003002B04D07B68EC
:1030240093F858203F4B1A607B681B6803F08003B9
:10303400002B0AD03A4BD3F8943023F440027B6837
:10304400DB6C37491343C1F894307B681B6803F089
:103054004003002B0AD0324BD3F8943023F0806223
:103064007B689B6C2E491343C1F894307B681B68C2
:1030740003F48073002B11D0294BD3F8943023F040
:1030840000627B685B6D26491343C1F894307B680A
:103094005B6DB3F1006F01D10123BB627B681B68D8
:1030A40003F40073002B0AD01D4BD3F8943023F0A3
:1030B40080527B685B6C1A491343C1F894307B6877
:1030C4001B6803F48063002B11D0154BD3F89430A4
:1030D40023F000527B681B6D11491343C1F89430EF
:1030E4007B681B6DB3F1005F01D10123FB62FB6AB6
:1030F400012B05D07B681B68B3F5006F40F0FF809F
:10310400094B00221A60FEF7CDFC78620EE0FEF750
:10311400C9FC02467B6AD31A022B07D9032388E130
:1031240000380240E0114742680047427E4B1B686A
:1031340003F00063002BEAD17B681B6803F00103F2
:10314400002B03D07B689B6B002B09D07B681B682A
:1031540003F00203002B28D07B68DB6B002B24D107
:10316400714BD3F884301B0C03F0030301335B0071
:10317400FB616D4BD3F884301B0E03F00F03BB616E
:103184007B685A687B689B689B011A43FB695B08F0
:10319400013B1B041A43BB691B061A437B685B692A
:1031A4001B0761491343C1F884307B681B6803F033
:1031B4000403002B04D07B681B6BB3F5801F0AD07B
:1031C4007B681B6803F00803002B35D07B685B6BBE
:1031D400B3F5800F30D1544BD3F884301B0C03F07B
:1031E400030301335B00FB614F4BD3F884301B0FA7
:1031F40003F007037B617B685A687B689B689B01CB
:103204001A43FB695B08013B1B041A437B681B6977
:103214001B061A437B691B0743491343C1F88430D7
:10322400414BD3F88C3023F01F027B689B6A013B2F
:103234003D491343C1F88C307B681B6803F48063F9
:10324400002B29D07B681B6DB3F1005F24D1364B72
:10325400D3F884301B0C03F0030301335B00BB6120
:10326400314BD3F884301B0F03F007037B617B6879
:103274005A687B689B689B011A437B68DB685B0820
:10328400013B1B041A43BB691B061A437B691B07DA
:1032940025491343C1F884307B681B6803F4006339
:1032A400002B16D07B685A687B689B689B011A4385
:1032B4007B68DB685B08013B1B041A437B681B6962
:1032C4001B061A437B685B691B0717491343C1F844
:1032D4008430164B01221A60FEF7E4FB786208E0A2
:1032E400FEF7E0FB02467B6AD31A022B01D90323C3
:1032F4009FE00D4B1B6803F00063002BF0D0BB6A0A
:10330400012B40F095800A4B00221A60FEF7CAFB9D
:1033140078620FE0FEF7C6FB02467B6AD31A022BE3
:1033240008D9032385E000BF003802406800474203
:1033340070004742414B1B6803F00053B3F1005F38
:10334400E8D07B681B6803F00403002B03D07B6880
:103354001B6B002B09D07B681B6803F00803002B50
:103364002BD07B685B6B002B27D1344BD3F8883090
:103374001B0C03F0030301335B003B617B689A6918
:103384007B68DB699B011A433B695B08013B1B04B7
:103394001A437B685B6A1B0628491343C1F88830CB
:1033A400264BD3F88C3023F4F8527B68DB6A013B5C
:1033B4001B0222491343C1F88C307B681B6803F459
:1033C4008073002B1DD07B685B6DB3F1006F18D147
:1033D4001A4BD3F888301B0E03F00F03FB607B6895
:1033E4009A697B68DB699B011A437B681B6A5B08EB
:1033F400013B1B041A43FB681B0610491343C1F825
:1034040088300F4B01221A60FEF74CFB786208E00B
:10341400FEF748FB02467B6AD31A022B01D9032329
:1034240007E0064B1B6803F00053B3F1005FEFD1D4
:10343400002318463037BD4680BD00BF0038024027
:1034440070004742F0B587B000AF0023FB60002353
:103454007B610023BB6000237B6000233B61C64B80
:103464009B6803F00C030C2B00F27E8101A252F83E
:1034740023F000BFAD3400086D3700086D37000835
:103484006D370008B33400086D3700086D37000845
:103494006D370008B93400086D3700086D3700082F
:1034A4006D37000815360008B44B3B615FE1B44B3F
:1034B4003B615CE1B04B5B6803F03F03FB60AE4BE8
:1034C4005B6803F48003002B4AD0AB4B5B689B0919
:1034D4004FF0000440F2FF114FF0000203EA01052F
:1034E40004EA0206294632464FF000034FF0000476
:1034F400540144EAD1644B0119462246491B62EB4C
:1035040006024FF000034FF00004940144EA916472
:103514008B015B1A64EB02044FF000014FF00002D0
:10352400E20042EA5372D9000B4614465B1944EB9D
:1035340006044FF000014FF00002620242EAD35247
:1035440059020B46144618462146FB684FF0000406
:103554001A462346FCF754FE03460C467B6149E0B9
:10356400854B5B689B094FF0000440F2FF114FF05C
:10357400000203EA010504EA0206294632464FF036
:1035840000034FF00004540144EAD1644B0119468E
:103594002246491B62EB06024FF000034FF0000481
:1035A400940144EA91648B015B1A64EB02044FF0CA
:1035B40000014FF00002E20042EA5372D9000B46C8
:1035C40014465B1944EB06044FF000014FF000026F
:1035D400A20242EA935299020B4614461846214627
:1035E400FB684FF000041A462346FCF709FE034625
:1035F4000C467B61604B5B681B0C03F003030133D7
:103604005B00BB607A69BB68B2FBF3F33B61AEE07D
:10361400594B5B6803F03F03FB60574B5B6803F453
:103624008003002B4AD0544B5B689B094FF0000485
:1036340040F2FF114FF0000203EA010504EA02061A
:10364400294632464FF000034FF00004540144EA87
:10365400D1644B0119462246491B62EB06024FF026
:1036640000034FF00004940144EA91648B015B1A57
:1036740064EB02044FF000014FF00002E20042EA62
:103684005372D9000B4614465B1944EB06044FF001
:1036940000014FF00002620242EAD35259020B4683
:1036A400144618462146FB684FF000041A46234688
:1036B400FCF7A6FD03460C467B6149E02E4B5B6894
:1036C4009B094FF0000440F2FF114FF0000203EA9F
:1036D400010504EA0206294632464FF000034FF082
:1036E4000004540144EAD1644B0119462246491BA3
:1036F40062EB06024FF000034FF00004940144EA29
:1037040091648B015B1A64EB02044FF000014FF0EB
:103714000002E20042EA5372D9000B4614465B19D8
:1037240044EB06044FF000014FF00002A20242EA0B
:10373400935299020B46144618462146FB684FF0F3
:1037440000041A462346FCF75BFD03460C467B61E6
:10375400094B5B681B0F03F007037B607A697B6886
:10376400B2FBF3F33B6102E0044B3B6100BF3B69F6
:1037740018461C37BD46F0BD003802400024F40052
:1037840000127A0080B586B000AF78607B68002BA9
:1037940001D101238DE27B681B6803F00103002B38
:1037A40000F08380944B9B6803F00C03042B19D026
:1037B400914B9B6803F00C03082B06D18E4B5B687E
:1037C40003F48003B3F5800F0CD08B4B9B6803F09C
:1037D4000C030C2B12D1884B5B6803F48003B3F504
:1037E400800F0BD1844B1B6803F40033002B5BD098
:1037F4007B685B68002B57D101235AE27B685B68C6
:10380400B3F5803F06D17C4B1B687B4A43F480337D
:1038140013601DE07B685B68B3F5A02F0CD1764B79
:103824001B68754A43F480231360734B1B68724A08
:1038340043F4803313600BE06F4B1B686E4A23F430
:10384400803313606C4B1B686B4A23F48023136032
:103854007B685B68002B13D0FEF724F9386108E01D
:10386400FEF720F902463B69D31A642B01D90323DE
:103874001FE2614B1B6803F40033002BF0D014E00B
:10388400FEF710F9386108E0FEF70CF902463B69CF
:10389400D31A642B01D903230BE2574B1B6803F49F
:1038A4000033002BF0D100E000BF7B681B6803F0FD
:1038B4000203002B6FD0504B9B6803F00C03002BCA
:1038C40017D04D4B9B6803F00C03082B05D14A4BD2
:1038D4005B6803F48003002B0BD0474B9B6803F019
:1038E4000C030C2B1CD1444B5B6803F48003002BAA
:1038F40016D1414B1B6803F00203002B05D07B68F3
:10390400DB68012B01D00123D3E13B4B1B6823F07F
:10391400F8027B681B69DB00374913430B603AE00C
:103924007B68DB68002B20D0344B01221A60FEF741
:10393400B9F8386108E0FEF7B5F802463B69D31AD6
:10394400022B01D90323B4E12B4B1B6803F00203C0
:10395400002BF0D0284B1B6823F0F8027B681B690E
:10396400DB00254913430B6015E0244B00221A6049
:10397400FEF798F8386108E0FEF794F802463B69D0
:10398400D31A022B01D9032393E11B4B1B6803F0C9
:103994000203002BF0D17B681B6803F00803002BA3
:1039A40036D07B685B69002B16D0154B01221A6058
:1039B400FEF778F8386108E0FEF774F802463B69D0
:1039C400D31A022B01D9032373E10B4B5B6F03F072
:1039D4000203002BF0D01BE0094B00221A60FEF713
:1039E40061F838610EE0FEF75DF802463B69D31AD0
:1039F400022B07D903235CE1003802400000474250
:103A0400800E47428A4B5B6F03F00203002BEAD11E
:103A14007B681B6803F00403002B00F097800023ED
:103A2400FB75834B1B6C03F08053002B0FD10023D9
:103A3400BB607F4B1B6C7E4A43F0805313647C4B0A
:103A44001B6C03F08053BB60BB680123FB75794B8F
:103A54001B6803F48073002B18D1764B1B68754ADE
:103A640043F480731360FEF71DF8386108E0FEF735
:103A740019F802463B69D31A022B01D9032318E132
:103A84006C4B1B6803F48073002BF0D07B689B683D
:103A9400012B06D1664B1B6F654A43F00103136784
:103AA4001CE07B689B68052B0CD1614B1B6F604A43
:103AB40043F0040313675E4B1B6F5D4A43F001033D
:103AC40013670BE05A4B1B6F594A23F0010313672A
:103AD400574B1B6F564A23F0040313677B689B689C
:103AE400002B15D0FDF7DEFF38610AE0FDF7DAFFA1
:103AF40002463B69D31A41F28832934201D9032327
:103B0400D7E04B4B1B6F03F00203002BEED014E005
:103B1400FDF7C8FF38610AE0FDF7C4FF02463B69C0
:103B2400D31A41F28832934201D90323C1E0404BB6
:103B34001B6F03F00203002BEED1FB7D012B05D19B
:103B44003B4B1B6C3A4A23F0805313647B689B699C
:103B5400002B00F0AD80364B9B6803F00C03082B60
:103B640060D07B689B69022B45D1334B00221A60DD
:103B7400FDF798FF386108E0FDF794FF02463B69C2
:103B8400D31A022B01D9032393E0294B1B6803F0BA
:103B94000073002BF0D17B68DA697B681B6A1A43D7
:103BA4007B685B6A9B011A437B689B6A5B08013BE9
:103BB4001B041A437B68DB6A1B061A437B681B6B76
:103BC4001B071B4913434B601B4B01221A60FDF773
:103BD40069FF386108E0FDF765FF02463B69D31AC7
:103BE400022B01D9032364E0114B1B6803F000731B
:103BF400002BF0D05CE0104B00221A60FDF752FF5E
:103C0400386108E0FDF74EFF02463B69D31A022BE8
:103C140001D903234DE0064B1B6803F00073002B0E
:103C2400F0D145E07B689B69012B07D1012340E07B
:103C34000038024000700040600047421F4B5B6840
:103C4400FB607B689B69012B30D0FB6803F4800226
:103C54007B68DB699A4229D1FB6803F03F027B68E9
:103C64001B6A9A4222D1FA6847F6C07313407A68F5
:103C7400526A9201934219D1FB6803F440327B6883
:103C84009B6A5B08013B1B049A420FD1FB6803F05B
:103C940070627B68DB6A1B069A4207D1FB6803F0FB
:103CA400E0427B681B6B1B079A4201D0012300E0B2
:103CB400002318461837BD4680BD00BF00380240B7
:103CC40080B582B000AF78607B68002B01D10123FE
:103CD40083E07B685B7FDBB2002B05D17B6800222D
:103CE4001A777868FDF7C8FA7B6802225A777B68EE
:103CF4001B68CA225A627B681B6853225A6278681E
:103D040000F0B2F90346002B08D07B681B68FF2241
:103D14005A627B6804225A7701235EE07B681B6841
:103D24009B687A68126823F4E00323F040039360ED
:103D34007B681B6899687B685A687B681B691A43AF
:103D44007B685B691A437B681B680A439A607B68DB
:103D54001B687A68D2681A617B681B6819697B687A
:103D64009B681A047B681B680A431A617B681B689A
:103D7400DA687B681B6822F08002DA607B681B6863
:103D84009B6803F02003002B0ED1786800F044F9FF
:103D94000346002B08D07B681B68FF225A627B68AD
:103DA40004225A77012318E07B681B681A6C7B682D
:103DB4001B6822F480221A647B681B68196C7B6878
:103DC4009A697B681B680A431A647B681B68FF2234
:103DD4005A627B6801225A77002318460837BD4689
:103DE40080BD90B587B000AFF860B9607A600023F9
:103DF4007B61FB681B7F012B01D10223AAE0FB68D6
:103E040001221A77FB6802225A777B68002B26D19D
:103E1400FB681B689B6803F04003002B02D1BB685E
:103E24000022DA70BB681B78184600F049F9034693
:103E34001C04BB685B78184600F042F903461B0279
:103E44001C43BB689B78184600F03AF9034644EAE1
:103E54000302BB68DB781B0413437B6118E0FB6837
:103E64001B689B6803F04003002B02D1BB6800224F
:103E7400DA70BB681B781A04BB685B781B021343B7
:103E8400BA6892781A43BB68DB781B0413437B61DE
:103E9400FB681B68CA225A62FB681B6853225A6279
:103EA400F86800F0E1F80346002B0BD0FB681B68B0
:103EB400FF225A62FB6804225A77FB6800221A77B1
:103EC400012347E0FB681A687B6903F07F3323F022
:103ED400FE431360FB681B689A68FB681B6822F446
:103EE40080229A60FB681B689968BB68DA68BB68C3
:103EF4001B691A43FB681B680A439A60FB681B68CA
:103F0400DA68FB681B6822F08002DA60FB681B68D1
:103F14009B6803F02003002B11D1F86800F07CF8B3
:103F24000346002B0BD0FB681B68FF225A62FB6818
:103F340004225A77FB6800221A7701230AE0FB68FF
:103F44001B68FF225A62FB6801225A77FB68002231
:103F54001A77002318461C37BD4690BD80B586B03D
:103F640000AFF860B9607A6000237B61FB681B686E
:103F74009A6ABB685A60FB681B681B69C3F30E022C
:103F8400BB689A60FB681B681B6803F07F3323F0EF
:103F9400FE437B617B691B0CDBB203F03F03DAB2A7
:103FA400BB681A707B691B0ADBB203F07F03DAB2C9
:103FB400BB685A707B69DBB203F07F03DAB2BB687B
:103FC4009A707B691B0CDBB203F04003DAB2BB6866
:103FD400DA707B68002B1AD1BB681B78184600F096
:103FE4008DF803461A46BB681A70BB685B7818469E
:103FF40000F084F803461A46BB685A70BB689B7885
:10400400184600F07BF803461A46BB689A700023F2
:1040140018461837BD4680BD80B584B000AF7860BF
:104024000023FB607B681B68DA687B681B6822F0EE
:10403400A002DA60FDF736FDF86009E0FDF732FD15
:104044000246FB68D31AB3F57A7F01D9032307E04C
:104054007B681B68DB6803F02003002BEED0002391
:1040640018461037BD4680BD80B584B000AF786077
:104074000023FB607B681B68DB6803F04003002BB4
:1040840019D17B681B684FF0FF32DA60FDF70AFD37
:10409400F86009E0FDF706FD0246FB68D31AB3F5A4
:1040A4007A7F01D9032307E07B681B68DB6803F090
:1040B4004003002BEED0002318461037BD4680BDC8
:1040C40080B485B000AF0346FB710023FB6005E0BC
:1040D400FB680133FB60FB790A3BFB71FB79092B1D
:1040E400F6D8FB68DBB21B01DAB2FB791343DBB20F
:1040F40018461437BD465DF8047B704780B485B01C
:1041040000AF0346FB710023FB60FB791B09DBB2A4
:104114001A4613469B0013445B00FB60FB7903F0D3
:104124000F03DAB2FB68DBB21344DBB21846143770
:10413400BD465DF8047B704780B582B000AF7860FF
:104144007B68002B01D1012341E07B6893F83D306B
:10415400DBB2002B06D17B68002283F83C20786810
:1041640000F039F87B68022283F83D207B681A68E6
:104174007B6804331946104600F0B8FB7B680122C3
:1041840083F846207B68012283F83E207B68012265
:1041940083F83F207B68012283F840207B6801225A
:1041A40083F841207B68012283F842207B68012246
:1041B40083F843207B68012283F844207B68012232
:1041C40083F845207B68012283F83D2000231846AC
:1041D4000837BD4680BD80B483B000AF786000BFAF
:1041E4000C37BD465DF8047B7047000080B485B091
:1041F40000AF78607B6893F83D30DBB2012B01D0CF
:1042040001234EE07B68022283F83D207B681B6813
:10421400DA687B681B6842F00102DA607B681B681D
:10422400234A934222D07B681B68B3F1804F1DD090
:104234007B681B681F4A934218D07B681B681E4A20
:10424400934213D07B681B681C4A93420ED07B6850
:104254001B681B4A934209D07B681B68194A934226
:1042640004D07B681B68184A934211D17B681B6891
:104274009B6803F00703FB60FB68062B10D07B6888
:104284001B681A687B681B6842F001021A6007E029
:104294007B681B681A687B681B6842F001021A601D
:1042A400002318461437BD465DF8047B704700BFF1
:1042B400000001400004004000080040000C0040E1
:1042C40000040140004001400018004080B582B065
:1042D40000AF78607B68002B01D1012341E07B684B
:1042E40093F83D30DBB2002B06D17B68002283F8C3
:1042F4003C20786800F039F87B68022283F83D207E
:104304007B681A687B6804331946104600F0EEFA9D
:104314007B68012283F846207B68012283F83E20D3
:104324007B68012283F83F207B68012283F84020C8
:104334007B68012283F841207B68012283F84220B4
:104344007B68012283F843207B68012283F84420A0
:104354007B68012283F845207B68012283F83D2095
:10436400002318460837BD4680BD80B483B000AF33
:10437400786000BF0C37BD465DF8047B70470000D1
:1043840080B584B000AF786039603B68002B09D1F8
:104394007B6893F83E30DBB2012B14BF012300236A
:1043A400DBB222E03B68042B09D17B6893F83F30F1
:1043B400DBB2012B14BF01230023DBB215E03B6801
:1043C400082B09D17B6893F84030DBB2012B14BF72
:1043D40001230023DBB208E07B6893F84130DBB2B1
:1043E400012B14BF01230023DBB2002B01D00123D6
:1043F4007CE03B68002B04D17B68022283F83E20DA
:1044040013E03B68042B04D17B68022283F83F202D
:104414000BE03B68082B04D17B68022283F8402020
:1044240003E07B68022283F841207B681B68012239
:104434003968184600F0AAFC7B681B682D4A934231
:1044440004D07B681B682C4A934201D1012300E00D
:104454000023002B07D07B681B685A6C7B681B68A1
:1044640042F400425A647B681B68224A934222D079
:104474007B681B68B3F1804F1DD07B681B681F4AA3
:10448400934218D07B681B681D4A934213D07B6803
:104494001B681C4A93420ED07B681B68164A9342E1
:1044A40009D07B681B68184A934204D07B681B6858
:1044B400164A934211D17B681B689B6803F007037B
:1044C400FB60FB68062B10D07B681B681A687B684E
:1044D4001B6842F001021A6007E07B681B681A68D7
:1044E4007B681B6842F001021A60002318461037EB
:1044F400BD4680BD000001400004014000040040AE
:1045040000080040000C004000400140001800403A
:1045140080B582B000AF78607B681B681B6903F0CC
:104524000203022B22D17B681B68DB6803F00203C1
:10453400022B1BD17B681B686FF002021A617B6837
:1045440001221A777B681B689B6903F00303002B25
:1045540003D0786800F0ACF905E0786800F09EF9C3
:10456400786800F0AFF97B6800221A777B681B68D3
:104574001B6903F00403042B22D17B681B68DB68EE
:1045840003F00403042B1BD17B681B686FF0040247
:104594001A617B6802221A777B681B689B6903F4A3
:1045A4004073002B03D0786800F082F905E0786846
:1045B40000F074F9786800F085F97B6800221A77B6
:1045C4007B681B681B6903F00803082B22D17B68F6
:1045D4001B68DB6803F00803082B1BD17B681B688E
:1045E4006FF008021A617B6804221A777B681B68E3
:1045F400DB6903F00303002B03D0786800F058F95B
:1046040005E0786800F04AF9786800F05BF97B68A7
:1046140000221A777B681B681B6903F01003102BB8
:1046240022D17B681B68DB6803F01003102B1BD1BD
:104634007B681B686FF010021A617B6808221A7786
:104644007B681B68DB6903F44073002B03D0786834
:1046540000F02EF905E0786800F020F9786800F0A1
:1046640031F97B6800221A777B681B681B6903F0A9
:104674000103012B0ED17B681B68DB6803F0010387
:10468400012B07D17B681B686FF001021A617868FF
:10469400FCF770FD7B681B681B6903F08003802BAB
:1046A4000ED17B681B68DB6803F08003802B07D185
:1046B4007B681B686FF080021A61786800F095FBD4
:1046C4007B681B681B6903F04003402B0ED17B6899
:1046D4001B68DB6803F04003402B07D17B681B6831
:1046E4006FF040021A61786800F0F6F87B681B6886
:1046F4001B6903F02003202B0ED17B681B68DB6849
:1047040003F02003202B07D17B681B686FF0200285
:104714001A61786800F05FFB00BF0837BD4680BDB2
:1047240080B584B000AFF860B9607A60FB6893F834
:104734003C30012B01D10223ACE0FB68012283F859
:104744003C207B680C2B00F29F8001A252F823F0DE
:10475400894700088D4800088D4800088D480008E6
:10476400C94700088D4800088D4800088D48000896
:104774000B4800088D4800088D4800088D48000843
:104784004B480008FB681B68B968184600F04EF9EE
:10479400FB681B689A69FB681B6842F008029A610F
:1047A400FB681B689A69FB681B6822F004029A6123
:1047B400FB681B689969BB681A69FB681B680A4334
:1047C4009A6162E0FB681B68B968184600F09EF9BC
:1047D400FB681B689A69FB681B6842F400629A6173
:1047E400FB681B689A69FB681B6822F480629A6103
:1047F400FB681B689969BB681B691A02FB681B6824
:104804000A439A6141E0FB681B68B968184600F0E6
:10481400F3F9FB681B68DA69FB681B6842F008025D
:10482400DA61FB681B68DA69FB681B6822F0040222
:10483400DA61FB681B68D969BB681A69FB681B6885
:104844000A43DA6121E0FB681B68B968184600F086
:1048540047FAFB681B68DA69FB681B6842F400626C
:10486400DA61FB681B68DA69FB681B6822F4806202
:10487400DA61FB681B68D969BB681B691A02FB68AB
:104884001B680A43DA6100E000BFFB68002283F87A
:104894003C20002318461037BD4680BD80B483B049
:1048A40000AF786000BF0C37BD465DF8047B7047ED
:1048B40080B483B000AF786000BF0C37BD465DF8AC
:1048C400047B704780B483B000AF786000BF0C37BE
:1048D400BD465DF8047B704780B483B000AF786058
:1048E40000BF0C37BD465DF8047B704780B485B0CB
:1048F40000AF786039607B681B68FB607B68404A66
:10490400934213D07B68B3F1804F0FD07B683D4A4C
:1049140093420BD07B683C4A934207D07B683B4A66
:10492400934203D07B683A4A934208D1FB6823F050
:104934007003FB603B685B68FA681343FB607B6849
:104944002F4A93422BD07B68B3F1804F27D07B68EA
:104954002C4A934223D07B682B4A93421FD07B6816
:104964002A4A93421BD07B68294A934217D07B681A
:10497400284A934213D07B68274A93420FD07B681E
:10498400264A93420BD07B68254A934207D07B6822
:10499400244A934203D07B68234A934208D1FB689C
:1049A40023F44073FB603B68DB68FA681343FB60E5
:1049B400FB6823F080023B685B691343FB607B6800
:1049C400FA681A603B689A687B68DA623B681A681E
:1049D4007B689A627B680A4A934203D07B680C4ADC
:1049E400934203D13B681A697B681A637B6801228E
:1049F4005A6100BF1437BD465DF8047B704700BFA1
:104A0400000001400004004000080040000C004089
:104A140000040140004001400044014000480140BE
:104A240000180040001C00400020004080B487B003
:104A340000AF786039607B681B6A23F001027B68F1
:104A44001A627B681B6A7B617B685B683B617B687D
:104A54009B69FB60FB6823F07003FB60FB6823F039
:104A64000303FB603B681B68FA681343FB607B69C4
:104A740023F002037B613B689B687A6913437B6183
:104A84007B68204A934203D07B681F4A93420CD12F
:104A94007B6923F008037B613B68DB687A69134315
:104AA4007B617B6923F004037B617B68154A934235
:104AB40003D07B68144A934211D13B6923F4807379
:104AC4003B613B6923F400733B613B685B693A6972
:104AD40013433B613B689B693A6913433B617B68C1
:104AE4003A695A607B68FA689A613B685A687B68DD
:104AF4005A637B687A691A6200BF1C37BD465DF849
:104B0400047B7047000001400004014080B487B07A
:104B140000AF786039607B681B6A23F010027B6801
:104B24001A627B681B6A7B617B685B683B617B689C
:104B34009B69FB60FB6823F4E043FB60FB6823F4A0
:104B44004073FB603B681B681B02FA681343FB60FD
:104B54007B6923F020037B613B689B681B017A69B6
:104B640013437B617B68224A934203D07B68214ACA
:104B740093420DD17B6923F080037B613B68DB6842
:104B84001B017A6913437B617B6923F040037B61DA
:104B94007B68174A934203D07B68164A934213D129
:104BA4003B6923F480633B613B6923F400633B610D
:104BB4003B685B699B003A6913433B613B689B69B3
:104BC4009B003A6913433B617B683A695A607B688E
:104BD400FA689A613B685A687B689A637B687A6969
:104BE4001A6200BF1C37BD465DF8047B704700BFE6
:104BF400000001400004014080B487B000AF786039
:104C040039607B681B6A23F480727B681A627B6854
:104C14001B6A7B617B685B683B617B68DB69FB606B
:104C2400FB6823F07003FB60FB6823F00303FB6065
:104C34003B681B68FA681343FB607B6923F40073C9
:104C44007B613B689B681B027A6913437B617B68C9
:104C5400214A934203D07B68204A93420DD17B6959
:104C640023F400637B613B68DB681B027A691343AE
:104C74007B617B6923F480637B617B68164A934282
:104C840003D07B68154A934213D13B6923F48053C4
:104C94003B613B6923F400533B613B685B691B0147
:104CA4003A6913433B613B689B691B013A691343AF
:104CB4003B617B683A695A607B68FA68DA613B68F1
:104CC4005A687B68DA637B687A691A6200BF1C37AA
:104CD400BD465DF8047B70470000014000040140BC
:104CE40080B487B000AF786039607B681B6A23F4B6
:104CF40080527B681A627B681B6A3B617B685B68D5
:104D04007B617B68DB69FB60FB6823F4E043FB6049
:104D1400FB6823F44073FB603B681B681B02FA6862
:104D24001343FB603B6923F400533B613B689B687E
:104D34001B033A6913433B617B68124A934203D0D5
:104D44007B68114A934209D17B6923F480437B61D8
:104D54003B685B699B017A6913437B617B687A6971
:104D64005A607B68FA68DA613B685A687B681A643F
:104D74007B683A691A6200BF1C37BD465DF8047B44
:104D8400704700BF000001400004014080B487B0B8
:104D940000AFF860B9607A60BB6803F01F030122BA
:104DA40002FA03F37B61FB681A6A7B69DB431A40EE
:104DB400FB681A62FB681A6ABB6803F01F03796810
:104DC40001FA03F31A43FB681A6200BF1C37BD469D
:104DD4005DF8047B704780B483B000AF786000BF97
:104DE4000C37BD465DF8047B704780B483B000AFD8
:104DF400786000BF0C37BD465DF8047B7047000047
:104E0400DFF834D00D480E490E4A002302E0D4588E
:104E1400C4500433C4188C42F9D30B4A0B4C0023FE
:104E240001E013600432A242FBD3FCF7C3FD00F09F
:104E340011F8FBF7A3FB70470000022000000020DC
:104E44009800002030780008980000201006002008
:104E5400FEE7000070B50D4E0D4CA41BA4100025F8
:104E6400A54209D10B4E0C4C00F078F8A41BA410F9
:104E74000025A54205D170BD56F825309847013567
:104E8400EEE756F8253098470135F2E72878000810
:104E940028780008287800082C780008931E222B14
:104EA40010B50C4604D900230B701C46204610BDD7
:104EB4000A2A09D1002807DA2D230B704042012168
:104EC400214400F00DF8F1E70021F9E7FFF7E6BF10
:104ED40002440346934200D1704703F8011BF9E7EB
:104EE400F0B51D4B8BB005460C466E4603F1200C05
:104EF40018685968374603C7083363453E46F7D1F7
:104F040018681B793B71931E222B38604FF0000305
:104F140004D923701C4620460BB0F0BD661EB5FBB9
:104F2400F2F00AAF02FB10553D44591C15F8285CF9
:104F340006F8015F054668B9605423442246191BEC
:104F4400101B8142E7DD1178187802F8010B03F891
:104F54000119F4E70B46E2E7F8770008F8B500BF5B
:104F6400F8BC08BC9E467047F8B500BFF8BC08BC46
:044F74009E4670479E
:104F78000000000000000000000000000000000029
:104F880000000000001000100010001000100010B9
:104F98000000001000000000002800280028000081
:104FA80000000000000000000000000000240024B1
:104FB800007C00240048007C0048004800000000F5
:104FC80000380054005000380014005400540038D1
:104FD8000010000000200054005800300028005441
:104FE800001400080000000000100028002800102D
:104FF8000034004800480034000000000010001091
:105008000010000000000000000000000000000088
:1050180000080010002000200020002000200020B0
:105028000010000800200010000800080008000810
:1050380000080008001000200010003800100028A8
:105048000000000000000000000000000000000058
:1050580000100010007C001000100000000000008C
:105068000000000000000000000000000000001028
:1050780000100010000000000000000000000038D0
:105088000000000000000000000000000000000018
:1050980000000000000000100000000000080008E8
:1050A8000010001000100010002000200000000078
:1050B80000380044004400540044004400440038D0
:1050C8000000000000100030005000100010001018
:1050D80000100010000000000038004400440004E4
:1050E800000800100020007C000000000038004488
:1050F8000004001800040004004400380000000008
:1051080000080018002800280048007C0008000853
:1051180000000000007C004000400078000400040B
:1051280000440038000000000038004400400078C7
:10513800004400440044003800000000007C0004E3
:1051480000080010001000200020002000000000CF
:10515800003800440044003800440044004400384B
:10516800000000000038004400440044003C0004F3
:10517800004400380000000000000000001000009B
:105188000000000000000010000000000000000007
:1051980000000010000000000000001000100010C7
:1051A80000000000000C003000400030000C00003F
:1051B80000000000000000000000007C0000007CEF
:1051C800000000000000000000000000006000185F
:1051D80000040018006000000000000000380044CF
:1051E800000400080010001000000010000000007B
:1051F80000380044004C0054005C00400040003877
:105208000000000000100028002800280028007C6A
:105218000044004400000000007800440044007886
:1052280000440044004400780000000000380044B6
:1052380000400040004000400044003800000000EA
:1052480000700048004400440044004400480070D6
:1052580000000000007C00400040007C004000404E
:105268000040007C00000000007C00400040007806
:1052780000400040004000400000000000380044AA
:1052880000400040005C004400440038000000007A
:10529800004400440044007C0044004400440044AE
:1052A800000000000038001000100010001000106E
:1052B800001000380000000000040004000400048E
:1052C80000040004004400380000000000440048C6
:1052D80000500060005000480048004400000000F2
:1052E8000040004000400040004000400040007C7A
:1052F800000000000044006C006C005400440044AE
:1053080000440044000000000044006400640054AD
:105318000054004C004C00440000000000380044D9
:1053280000440044004400440044003800000000E9
:1053380000780044004400440078004000400040E9
:1053480000000000003800440044004400440044C9
:105358000054003800040000007800440044004471
:10536800007800480048004400000000003800446D
:10537800004000300008000400440038000000002D
:10538800007C001000100010001000100010001029
:10539800000000000044004400440044004400446D
:1053A8000044003800000000004400440044002885
:1053B80000280028001000100000000000440044ED
:1053C800005400540054006C00280028000000001D
:1053D800004400280028001000100028002800447D
:1053E80000000000004400440028002800100010BD
:1053F8000010001000000000007C000400080010ED
:10540800001000200040007C000000000018001080
:1054180000100010001000100010001000100018FC
:1054280000200020001000100010001000080008E4
:1054380000000000003000100010001000100010E4
:105448000010001000100030001000280028004450
:105458000000000000000000000000000000000044
:10546800000000000000000000000000000000FE36
:1054780000200010000000000000000000000000F4
:10548800000000000000000000380044003C004418
:10549800004C003400000000004000400058006448
:1054A80000440044006400580000000000000000B0
:1054B800003800440040004000440038000000006C
:1054C800000400040034004C00440044004C003444
:1054D800000000000000000000380044007C00408C
:1054E8000044003800000000000C0010007C001090
:1054F8000010001000100010000000000000000064
:105508000034004C00440044004C0034000400788F
:105518000040004000580064004400440044004437
:1055280000000000001000000070001000100010C3
:1055380000100010000000000010000000700010B3
:105548000010001000100010001000E000400040A3
:10555800004800500060005000480044000000006F
:105568000070001000100010001000100010001053
:1055780000000000000000000078005400540054AF
:1055880000540054000000000000000000580064AF
:1055980000440044004400440000000000000000F3
:1055A8000038004400440044004400380000000073
:1055B80000000000005800640044004400640058E3
:1055C80000400040000000000034004C004400444B
:1055D800004C00340004000400000000005800647F
:1055E80000400040004000400000000000000000B3
:1055F8000038004400300008004400380000000073
:105608000020002000780020002000200020001842
:105618000000000000000000004400440044004472
:10562800004C00340000000000000000004400446A
:1056380000280028002800100000000000000000DA
:10564800005400540054006C00280028000000009A
:10565800000000000044002800100010002800444A
:10566800000000000000000000440044002800285A
:10567800001000100010006000000000007C00080E
:10568800001000200040007C0000000000180010FE
:10569800001000100020002000100010001000185A
:1056A8000010001000100010001000100010001072
:1056B8000010001000300010001000100008000852
:1056C80000100010001000300000000000000074FE
:1056D800004C000000000000000000000000000076
:1056E80000000000000000000000000000000000B2
:1056F80000000000000000000000000000000000A2
:105708000000000C000C000C000C000C000C000C3D
:10571800000C000C000C000C0000000C000C000039
:10572800000000000000001B001B001B001B001BEA
:105738000000000000000000000000000000000061
:105748000000000000000000000080198019801986
:105758008019C07FC07F80190033C07FC07F0033AD
:105768000033003300330000000000000000001E7A
:10577800003F807580650074003C001E00078005AE
:10578800806580658075003F001E000400040000ED
:105798000000007000D840D8C0D880D90073000637
:1057A800000C801BC036C066C046C00680030000DF
:1057B800000000000000001E003F003300330033EB
:1057C800001E000CC03CC066806380618063C03EE0
:1057D800801C0000000000000000000C000C000C01
:1057E800000C000C00000000000000000000000099
:1057F8000000000000000000000000008000000120
:105808000003000600060004000C000C000C000C4D
:10581800000C000C000400060006000300018000D4
:10582800002000100018000C000C00040006000600
:1058380000060006000600060004000C000C001814
:10584800001000200000000C002D003F001E003357
:105858000000000000000000000000000000000040
:105868000000000000000000000000000000000C24
:10587800000C000C000CC0FFC0FF000C000C000C5A
:10588800000C000000000000000000000000000004
:105898000000000000000000000000000000000000
:1058A800000000000000000C000C000400040008C8
:1058B80000000000000000000000000000000000E0
:1058C8000000001E001E0000000000000000000094
:1058D80000000000000000000000000000000000C0
:1058E8000000000000000000000000000000000CA4
:1058F800000C00000000000000000003000300038B
:105908000006000600060006000C000C000C000C47
:105918000018001800180000000000000000001E19
:10592800003F0033806180618061806D806D80619F
:10593800806180610033003F001E0000000000000D
:1059480000000006000E001E0036002600060006B5
:105958000006000600060006000600060006000015
:10596800000000000000001E003F8073806180611D
:10597800800100030006000C001800300060807FE2
:10598800807F0000000000000000001C003E006353
:1059980000630003000E000E000380018001806197
:1059A8008073003F001E0000000000000000000699
:1059B800000E000E001E001E00160036003600669F
:1059C800807F807F000600060006000000000000BF
:1059D8000000007F007F006000600060006E007FB4
:1059E80080638001800180618073003F001E000099
:1059F800000000000000001E003F8033806100604E
:105A0800006E007F80738061806180618033003F19
:105A1800001E0000000000000000807F807F8001E1
:105A28000003000300060006000C000C000C000830
:105A38000018001800180000000000000000001EF8
:105A4800003F8063806180610021001E003F80610B
:105A5800806180618061003F001E0000000000003E
:105A68000000001E003F00738061806180618073C8
:105A7800803F801D800180610073003F001E000090
:105A88000000000000000000000000000000000C02
:105A9800000C000000000000000000000000000CE6
:105AA800000C0000000000000000000000000000E2
:105AB80000000000000C000C0000000000000000C6
:105AC8000000000C000C00040004000800000000A6
