:020000040800F2
:1000000000000220E151000831520008315200087E
:10001000315200083152000831520008000000003F
:100020000000000000000000000000003152000845
:100030003152000800000000315200080505000898
:100040003152000831520008315200083152000884
:1000500031520008315200082D0500081F05000824
:1000600011050008315200083152000831520008D1
:100070003152000831520008315200083152000854
:100080003152000831520008315200083152000844
:100090003152000831520008315200083152000834
:1000A0003152000831520008315200083152000824
:1000B0003152000881050008315200083152000811
:1000C0003152000831520008315200083152000804
:1000D00031520008315200083152000831520008F4
:1000E00031520008315200083152000831520008E4
:1000F00031520008315200083152000831520008D4
:1001000031520008315200083152000831520008C3
:100110003152000831520008590500086D050008E9
:1001200031520008315200083152000831520008A3
:1001300031520008000000000000000031520008A9
:100140003152000831520008315200083152000883
:100150003152000831520008315200083152000873
:100160003152000831520008315200083152000863
:1001700031520008315200083152000800000000DE
:1001800000000000315200080000000000000000E4
:100190003152000800000000000000003152000849
:1001A00000000000000000000000000031520008C4
:1001B0003152000831520008315200083152000813
:0401C00031520008B0
:1001C40010B5054C237833B9044B13B10448AFF38D
:1001D40000800123237010BD900000200000000067
:1001E4003C53000808B5034B1BB103490348AFF364
:1001F400008008BD00000000940000203C5300086B
:1002040053B94AB9002908BF00281CBF4FF0FF3179
:100214004FF0FF3000F072B9ADF1080C6DE904CE77
:1002240000F006F8DDF804E0DDE9022304B07047CD
:100234002DE9F047089E04468846002B4BD18A429C
:10024400154667D9B2FA82F24AB1C2F1200701FA1F
:1002540002F320FA07F7954047EA030894404FEA6F
:10026400154E230CB8FBFEF71FFA85FC0EFB17880E
:1002740043EA084307FB0CF1994209D9EB1807F14B
:10028400FF3080F01B81994240F21881023F2B44D9
:100294005B1AA4B2B3FBFEF00EFB103344EA034432
:1002A40000FB0CFCA44509D92C1900F1FF3380F0A4
:1002B4000781A44540F2048102382C4440EA0740F7
:1002C400A4EB0C0400271EB1D4400023C6E900436C
:1002D4003946BDE8F0878B4209D9002E00F0EB8047
:1002E4000027C6E9000138463946BDE8F087B3FA6D
:1002F40083F7002F47D18B4202D3824200F2FA8067
:10030400841A61EB030301209846002EE0D0C6E96D
:100314000048DDE702B9FFDEB2FA82F2002A40F0BB
:100324008F80491B4FEA154E1FFA85F80127B1FB50
:10033400FEFC230C0EFB1C1143EA014308FB0CF1E9
:10034400994207D9EB180CF1FF3002D2994200F21E
:10035400CD808446591AA3B2B1FBFEF00EFB1014F3
:1003640043EA044408FB00F8A04507D92C1900F11E
:10037400FF3302D2A04500F2B6801846A4EB08046D
:1003840040EA0C409FE7C7F1200CBB4022FA0CFE68
:100394004EEA030E01FA07F420FA0CF521FA0CF3E5
:1003A4004FEA1E482543B3FBF8F92C0C08FB19331C
:1003B4001FFA8EFA44EA034309FB0AF49C4202FA48
:1003C40007F200FA07F10BD91EEB030309F1FF3022
:1003D40080F087809C4240F28480A9F10209734432
:1003E4001B1BADB2B3FBF8F008FB103345EA034422
:1003F40000FB0AFAA24508D91EEB040400F1FF33FE
:100404006BD2A24569D90238744440EA0940A0FB82
:100414000289A4EB0A044C45C2464B4654D351D03E
:10042400002E69D0B1EB0A0564EB030404FA0CFC5A
:10043400FD40FC404CEA0505C6E90054002747E7A7
:10044400C2F1200320FA03F7954001FA02F021FAE1
:1004540003F34FEA154E3843010CB3FBFEF71FFAC2
:1004640085F80EFB173341EA034107FB08F38B427F
:1004740004FA02F407D9691807F1FF3C2FD28B4222
:100484002DD9023F2944CB1A81B2B3FBFEF00EFBF7
:10049400103341EA034100FB08F38B4207D9691882
:1004A40000F1FF3C17D28B4215D902382944C91AEE
:1004B40040EA07473BE73746304609E70746E7E6A1
:1004C4001846FBE64145ABD2B8EB020A69EB0E02D3
:1004D40001381346A4E76046E9E7184695E76746FE
:1004E400D1E781467CE702382C4447E7ACF1020CA3
:1004F4002B442FE7384608E73746E9E6704700BF44
:1005040080B500AF01F02AFB00BF80BD80B500AF0D
:10051400042001F051FE00BF80BD80B500AF022071
:1005240001F04AFE00BF80BD80B500AF012107483D
:1005340001F02AFE0346012B02D1012001F03CFE0A
:10054400034B01225A6100BF80BD00BF000402407A
:10055400003C014080B500AF024804F035F900BF0B
:1005640080BD00BFE001002080B500AF024804F068
:100574002BF900BF80BD00BF9801002080B500AFFB
:10058400024804F021F900BF80BD00BFB000002084
:1005940080B586B002AF0346FB71FB791B01FB7388
:1005A400FB7923F00F03BB73BB7B43F00C03DBB27B
:1005B4003B72BB7B43F00803DBB27B72FB7B43F0F3
:1005C4000C03DBB2BB72FB7B43F00803DBB2FB72B0
:1005D40007F108026423009304234E21034801F029
:1005E4003BFF00BF1037BD4680BD00BF4401002063
:1005F40080B586B002AF0346FB71FB791B01FB7328
:10060400FB7923F00F03BB73BB7B43F00D03DBB219
:100614003B72BB7B43F00903DBB27B72FB7B43F091
:100624000D03DBB2BB72FB7B43F00903DBB2FB724D
:1006340007F108026423009304234E21034801F0C8
:100644000BFF00BF1037BD4680BD00BF4401002032
:1006540080B500AF642001F0A1FA3020FFF798FFC5
:10066400052001F09BFA3020FFF792FF012001F0F2
:1006740095FA3020FFF78CFF012001F08FFA20203B
:10068400FFF786FF012001F089FA2820FFF780FF99
:10069400012001F083FA0820FFF77AFF012001F01E
:1006A4007DFA0120FFF774FF012001F077FA06209C
:1006B400FFF76EFF012001F071FA0C20FFF768FFCD
:1006C400012001F06BFA00BF80BD80B582B000AF9D
:1006D400786006E07B685A1C7A601B781846FFF73E
:1006E40087FF7B681B78002BF4D100BF0837BD4619
:1006F40080BD80B582B000AF8020FFF749FF0023A2
:100704007B6005E02020FFF773FF7B6801337B608B
:100714007B68452BF6DD00BF0837BD4680BD80B53C
:1007240082B000AF03460A46FB801346BB80FB88B9
:10073400002B02D0012B05D009E0BB8843F08003D5
:10074400BB8004E0BB8843F0C003BB8000BFBB8810
:10075400DBB21846FFF71CFF00BF0837BD4680BD5B
:1007640080B592B000AF07F1240300221A605A60EA
:100774009A60DA601A6107F1080300221A605A606D
:100784009A60DA601A615A619A6100237B603D4B7A
:100794001B6C3C4A43F0020313643A4B1B6C03F09A
:1007A40002037B607B6800233B60364B1B6B354A3E
:1007B40043F001031363334B1B6B03F001033B60F2
:1007C4003B68314B314A1A602F4B4FF0FF32DA60ED
:1007D4002D4B50225A6002F039FA07EE900AF8EED7
:1007E400677AC7ED117A02F025FA07EE900AF8EE5F
:1007F400677AC7ED107A02F07BFD07EE900AF8EEF7
:10080400677AC7ED0F7A02F035FA07EE900AF8EE30
:10081400677AC7ED0E7A40237B620223BB62002312
:10082400FB6200233B6302237B6307F12403194625
:10083400174801F017FB144803F0CDFC0346002BC6
:1008440001D000F063FA3023BB6000233B61114BFD
:100854001B68FB6007F10803002219460A4804F0EC
:10086400BBF80346002B01D000F050FA0F22002100
:100874001D2001F0B2FA1D2001F0CBFA00BF483769
:10088400BD4680BD00380240B00000200004004096
:10089400000002407C00002080B584B000AF786086
:1008A4007B68DB78032B23D07B68DB78012B0DD0AE
:1008B400022B14D0002B00D01BE07B681A782F4B3E
:1008C4001A707B685A782D4B5A7012E07B681A783C
:1008D4002B4B1A707B685A78294B5A7009E07B6855
:1008E4001A78284B1A707B685A78264B5A7000E0A5
:1008F40000BF7B681B78184607F10C030A221946CF
:1009040004F0D2FC7B685B78184607F108030A22DE
:10091400194604F0C9FC7B681B78092B06D907F13A
:100924000C031949184600F0EFFF09E0174918486D
:1009340000F0EAFF07F10C031449184600F0E4FF45
:100944001449154800F0E0FF7B685B78092B06D951
:1009540007F108031149184600F0D6FF09E00F49D2
:100964000F4800F0D1FF07F108030E49184600F0C4
:10097400CBFF00BF1037BD4680BD00BF4C02002036
:1009840048020020400100205C00002058000020A4
:1009940054530008600000205853000868000020E9
:1009A4005C5300086400002080B500AF01F084F8B7
:1009B40000F028F800F0B6F801210E4800F0C0FF5E
:1009C40000F082F800F0B5FF0B490C4800F09CFFE2
:1009D4004FF4FA7001F0E2F8FFF7C2FE00F022F9DA
:1009E40000F056F900F0E6F8054803F055FB00F076
:1009F40075FAF9E700000240000000206053000887
:100A04009801002080B594B000AF07F11C03342294
:100A14000021184604F04AFC07F1080300221A607A
:100A24005A609A60DA601A6100237B60244B1B6C65
:100A3400234A43F080531364214B1B6C03F080530F
:100A44007B607B6800233B601E4B1B6823F44043A0
:100A54001C4A43F4804313601A4B1B6803F440435D
:100A64003B603B680223FB610123BB621023FB62F2
:100A740000237B6307F11C03184602F0D9FD0346EB
:100A8400002B01D000F042F90F23BB600023FB6070
:100A940000233B614FF4A0537B614FF48053BB614F
:100AA40007F108030021184601F0DEFF0346002B7E
:100AB40001D000F02BF900BF5037BD4680BD00BF08
:100AC400003802400070004080B500AF124B134A5A
:100AD4001A60114B124A5A600F4B00229A600E4B57
:100AE4000022DA600C4B4FF480421A610A4B002258
:100AF4005A61094B00229A61074B0022DA61064BC6
:100B040000221A62044801F06FFB0346002B01D057
:100B140000F0FCF800BF80BD4401002000540040F8
:100B2400801A060080B586B000AF3B1D00221A6013
:100B34005A609A60DA601A6100233B601A4B1B6B9F
:100B4400194A43F002031363174B1B6B03F00203B0
:100B54003B603B6807237B60144BBB600023FB6056
:100B640000233B613B1D1946114801F07BF90F221C
:100B74000021082001F031F9082001F04AF90F2280
:100B84000021072001F029F9072001F042F90F2282
:100B94000021062001F021F9062001F03AF900BFF6
:100BA4001837BD4680BD00BF003802400000111058
:100BB4000004024080B586B000AF184B184A1A6092
:100BC400164B00225A60154B7F229A60134BFF226A
:100BD400DA60124B00221A61104B4FF480125A61F2
:100BE4000E4B00229A610D4802F0C0FF0346002B11
:100BF40001D000F08BF817233B713B237B713B1D25
:100C040000221946054803F042F80346002B01D0A0
:100C140000F07CF800BF1837BD4680BD28020020D4
:100C24000028004080B582B000AF00237B60154BE4
:100C34001B6C144A43F010031364124B1B6C03F037
:100C440010037B607B68104B104A1A600E4B4FF404
:100C5400FA525A600C4B6322DA600B4803F0C2F973
:100C64000346002B01D000F051F80E22002136205B
:100C740001F0B3F8362001F0CCF800BF0837BD46C8
:100C840080BD00BF00380240E00100200010004099
:100C940080B582B000AF00233B60194B1B6C184A2F
:100CA40043F020031364164B1B6C03F020033B60DA
:100CB4003B68144B144A1A6001F0C8FF07EE900A0F
:100CC400F8EE677AC7ED017A0E4B4FF4FA525A6088
:100CD4000C4B40F2E732DA600A4803F083F903462A
:100CE400002B01D000F012F80F220021372001F070
:100CF40074F8372001F08DF800BF0837BD4680BD79
:100D040000380240980100200014004080B400AF75
:100D140072B6FEE780B500AF00F0F0FD00F084F895
:100D240009490A4800F0F0FD09490A4800F0ECFDC1
:100D340009490A4800F0E8FD094B04221A603720EB
:100D440001F067F800BF80BD000000207053000868
:100D54000400002078530008080000207C53000899
:100D64006C00002080B500AF00F0C8FD08490948B8
:100D740000F0CAFD0849094800F0C6FD08490948C1
:100D840000F0C2FD0849094800F0BEFD00BF80BD67
:100D94001000002088530008180000209053000819
:100DA400200000209853000828000020A0530008C9
:100DB40080B500AF00F0A2FD0249034800F0A4FD95
:100DC40000BF80BD4C000020A853000880B500AFD0
:100DD40000F094FD00F028F800BF80BD80B500AF9E
:100DE40000F08CFD0849094800F08EFD08490948C7
:100DF40000F08AFD0849094800F086FD08490948C1
:100E040000F082FD00BF80BD30000020B053000818
:100E140038000020B853000840000020C0530008E8
:100E240028000020A053000880B588B000AF07F167
:100E34000C0300221946204802F0E6FF3B7B1846CB
:100E440007F108030A22194604F02EFA7B7B1846A0
:100E54003B1D0A22194604F027FA3B7B092B06D9CD
:100E640007F108031549184600F04EFD09E013493F
:100E7400134800F049FD07F108031249184600F031
:100E840043FD1149114800F03FFD7B7B092B05D937
:100E94003B1D0F49184600F037FD08E00C490D488A
:100EA40000F032FD3B1D0C49184600F02DFD00BF3B
:100EB4002037BD4680BD00BF280200205C00002012
:100EC40054530008580000206000002058530008C4
:100ED400680000205C5300086400002080B500AF67
:100EE400FFF718FF1C4B00221A7000BF1A4B1B7827
:100EF400002BFBD0194B1B68022B1AD0042B0CD0EF
:100F0400012B00D021E0164B1B68042B02D100F00A
:100F14001DFB1AE000F02EF817E0114B05221A60B1
:100F24001049114800F0F0FC1049114800F0ECFCA5
:100F34000BE00B4B04221A600C490B4800F0E4FC54
:100F440008490B4800F0E0FC00BF044B32221A6051
:100F5400014B00221A70C8E7AC000020700000208A
:100F64006C00002004000020545300080C000020F2
:100F74007853000880B500AF372000F058FFFFF722
:100F8400F1FE554B03221A605449554800F0BCFC4D
:100F9400544B00221A7000BF524B1B78002BFBD01D
:100FA400514B1B68022B57D0042B1FD0012B00D0B0
:100FB4008BE0494B1B68032B16D801A252F823F08F
:100FC400E70F0008E10F0008DB0F0008D50F000849
:100FD40000F092F809E000F0FDF806E000F080F976
:100FE40003E0FFF77BFF00E000BF6EE03A4B1B68B5
:100FF400002B67D0384B1B68002B29DD364B1B6850
:10100400013B354A136000F0A3FB334B1B68032BF1
:1010140020D801A252F823F04B1000084110000818
:10102400371000082D1000082C492D4800F06CFCE6
:1010340011E02E492A4800F067FC0CE02C492848AE
:1010440000F062FC07E02B49254800F05DFC02E05B
:1010540000BF3AE000BF38E01F4B1B68032B33D0BE
:101064001D4B1B68022B29DC1B4B1B6801331A4ADE
:10107400136000F06DFB184B1B68032B20D801A2F2
:1010840052F823F0B7100008AD100008A3100008B0
:10109400991000081149124800F036FC11E0134978
:1010A4000F4800F031FC0CE011490D4800F02CFC15
:1010B40007E010490A4800F027FC02E000BF04E002
:1010C40000BF02E000BF00E000BF074B32221A60FD
:1010D400044B00221A705EE76C000020140000200C
:1010E40078530008AC000020700000201C00002091
:1010F400240000202C00002080B582B000AFFFF750
:1011040057FE2F4B1B68391D0A22184604F0CCF8F1
:101114003B1D2C49184600F0F7FB2B4B00221A709C
:1011240000BF294B1B78002BFBD0284B1B68022BDC
:1011340004D0042B1DD0012B35D03AE0204B1B6882
:10114400B3F5FA6F32DA1E4B1B6864331C4A136022
:101154001B4B1B68391D0A22184604F0A5F81949CF
:101164001B4800F0D1FB3B1D1649184600F0CCFB90
:101174001FE0134B1B68C82B1ADD114B1B68643B23
:101184000F4A13600E4B1B68391D0A22184604F0DF
:101194008BF80C490E4800F0B7FB3B1D0949184673
:1011A40000F0B2FB05E0FFF799FE02E000BF00E0AB
:1011B40000BF064B32221A60034B00221A70AFE7BD
:1011C4008000002054000020AC00002070000020AB
:1011D400C853000880B586B000AF3B1D00221A60DA
:1011E4005A609A60DA601A613A4B00221A70FFF76B
:1011F400EDFD3B1D00221946374802F005FE374B32
:1012040032221A6000BF334B1B78002BFBD0334BC8
:101214001B68022B0AD0042B00D012E03B79012B6F
:101224000CD93B79013BDBB23B7107E03B79162BD0
:1012340006D83B790133DBB23B7101E000BF00E02B
:1012440000BF3B790121184600F01CFA214B002213
:101254001A70224B1B68012B00D103E01F4B322272
:101264001A60CFE700BF1B4B1B78002BFBD01B4B36
:101274001B68022B0AD0042B00D012E07B79002BD0
:101284000CD07B79013BDBB27B7107E07B793A2B95
:1012940006D87B790133DBB27B7101E000BF00E04B
:1012A40000BF7B790221184600F0ECF9094B0022BB
:1012B4001A700A4B1B68012B03D0084B32221A60A8
:1012C400D0E700BF3B1D184600F02EFAFFF706FEDC
:1012D40098E700BFAC000020280200207000002026
:1012E40080B500AFFFF77AFD514B03221A605149D4
:1012F400514800F009FB514B00221A7000BF4F4BBC
:101304001B78002BFBD04E4B1B68022B5CD0042BAC
:1013140023D0012B00D083E0454B1B68032B1AD844
:1013240001A252F823F000BF551300084D13000822
:10133400451300083D130008002000F089F80BE075
:10134400012000F085F807E0022000F081F803E0B6
:10135400FFF7C4FD00E000BF62E0354B1B68002BC3
:101364005BD0334B1B68002B2ADD314B1B68013BE0
:101374002F4A136000F00AFA2D4B1B68032B21D867
:1013840001A252F823F000BFBB130008B1130008F8
:10139400A71300089D1300082649274800F0B4FA53
:1013A40011E02849244800F0AFFA0CE0264922480D
:1013B40000F0AAFA07E025491F4800F0A5FA02E068
:1013C40000BF2DE000BF2BE0194B1B68032B26D078
:1013D400174B1B68022B1EDC154B1B680133144A88
:1013E400136000F0D3F9124B1B68022B09D0032BB6
:1013F40002D0012B0AD00FE00E490F4800F084FA06
:101404000AE010490C4800F07FFA05E00E490A484A
:1014140000F07AFA00E000BF02E000BF00E000BF85
:10142400074B32221A60054B00221A7066E700BF90
:101434006C0000203400002078530008AC00002029
:10144400700000203C000020440000202C000020FC
:1014540080B584B000AF0346FB710023FB60032317
:10146400FB73384B00221A7007F10C031846FFF780
:1014740013FA354B32221A6000BF324B1B78002B13
:10148400FBD0314B1B68022B0AD0042B00D012E096
:101494003B7B012B0CD93B7B013BDBB23B7307E06D
:1014A4003B7B162B06D83B7B0133DBB23B7301E05D
:1014B40000BF00E000BFFB79FB7307F10C03184683
:1014C400FFF7EAF91F4B00221A701F4B1B68012B10
:1014D40000D103E01C4B32221A60CDE700BF194B48
:1014E4001B78002BFBD0184B1B68022B0AD0042B53
:1014F40000D012E07B7B012B0CD97B7B013BDBB260
:101504007B7307E07B7B3A2B06D87B7B0133DBB212
:101514007B7301E000BF00E000BF07F10C03184635
:10152400FFF7BAF9074B00221A70074B1B68012B0F
:1015340003D0054B32221A60D0E700BFFFF7CEFC80
:101544009AE700BFAC0000207000002080B582B094
:1015540000AF372000F06BFC00F0D0F90D490E48C5
:1015640000F0D2F900237B6008E0B42000F064FAB4
:10157400002000F061FA7B6801337B60074B1B6835
:101584007A689A42F1DBFFF7A9FC00BF0837BD4631
:1015940080BD00BF48000020D05300087400002024
:1015A40080B582B000AF0346FB800021114802F0F1
:1015B400DBFE114802F070FD104B01221A70104A34
:1015C400FB881380FB88022B08D0042B0AD0012B44
:1015D40000D00BE00B4B01221A6007E0094B0222FA
:1015E4001A6003E0074B04221A6000BF00BF0837EB
:1015F400BD4680BDB0000020E0010020AC0000200A
:10160400780000207000002080B582B000AF7860C0
:101614007B681B680A4A934201D1FFF705FC7B688B
:101624001B68084A934206D10021074802F02CFEA9
:10163400064802F0A1FD00BF0837BD4680BD00BFCB
:101644000014004000100040B0000020E001002021
:1016540080B582B000AF78607B681B7F012B0AD114
:101664000021786803F0CEFA0146054B1A687B68BE
:101674001B680A445A6300BF0837BD4680BD00BFDB
:101684007C00002080B584B000AF03460A46FB719D
:101694001346BB71FB7907F10C010A22184603F0CB
:1016A40003FEBB79012B14D119491A4800F02CF917
:1016B400FB79092B06D907F10C031549184600F0EC
:1016C40023F921E007F10C031349184600F01CF933
:1016D4001AE0BB79022B17D110490E4800F014F917
:1016E400FB79092B06D907F10C030C49184600F0C5
:1016F4000BF909E009490A4800F006F907F10C035F
:101704000849184600F000F900BF1037BD4680BDF7
:101714005C0000205453000858000020680000209A
:101724005C5300086400002080B582B000AF78608C
:1017340000227968054802F0AAFA0346002B01D07A
:10174400FFF7E4FA00BF0837BD4680BD2802002039
:1017540080B500AF0849094800F0D6F808490748A1
:1017640000F0D2F80749054800F0CEF806490348CE
:1017740000F0CAF800BF80BD1400002054530008D4
:101784001C000020240000202C00002080B500AFA5
:101794000849094800F0B8F80849074800F0B4F8C7
:1017A4000749054800F0B0F80649034800F0ACF8D2
:1017B40000BF80BD34000020545300083C000020CA
:1017C400440000202C00002080B582B000AF00232C
:1017D4007B60104B5B6C0F4A43F4804353640D4BA6
:1017E4005B6C03F480437B607B6800233B60094BA4
:1017F4001B6C084A43F080531364064B1B6C03F0C4
:1018040080533B603B68072000F0DCFA00BF0837D8
:10181400BD4680BD0038024080B58AB000AF786014
:1018240007F1140300221A605A609A60DA601A61A0
:101834007B681B68194A93422CD100233B61184BE7
:101844001B6B174A43F002031363154B1B6B03F026
:1018540002033B613B694FF440737B611223BB611C
:101864000123FB6103233B6204237B6207F114031E
:1018740019460C4800F0F6FA0023FB60084B1B6C79
:10188400074A43F400131364054B1B6C03F4001361
:10189400FB60FB6800BF2837BD4680BD0054004094
:1018A400003802400004024080B5A6B000AF786062
:1018B40004237B660123FB6607F16403184601F0E9
:1018C400B7FE0346002B01D0FFF720FA2023BB60AC
:1018D4004FF48073BB6407F10803184601F0DEF986
:1018E4000346002B01D0FFF711FA034B01221A60C3
:1018F40000BF9837BD4680BD3C0E474280B500AF5F
:10190400FEF7F7FE00BF80BD80B582B000AF7860FF
:1019140039603B681A883B6802331B8819461046B5
:10192400FEF7FDFE7868FEF7D0FE00BF0837BD461F
:1019340080BD80B500AFFEF78BFE00BF80BD000008
:1019440080B592B000AF78600B467B8007F130031E
:1019540000221A605A609A60DA601A6107F114036F
:1019640000221A605A609A60DA601A615A619A61B8
:1019740000233B612D4B1B6C2C4A43F00103136481
:101984002A4B1B6C03F001033B613B690023FB60A2
:10199400264B1B6B254A43F001031363234B1B6B3C
:1019A40003F00103FB60FB687B883B6302237B63DA
:1019B40001233B6407F1300319461D4800F052FA35
:1019C40001F044F907EE900AF8EE677AC7ED117A50
:1019D400184B4FF080421A60164B4F225A60154B39
:1019E4004FF4FA62DA60134802F0CCFD0346002B90
:1019F40001D000F04BF860237B610023FB610023DE
:101A0400BB6107F11403002219460A4803F03CF8AD
:101A14000346002B01D000F039F80021054802F0FC
:101A24000BFE00BF4837BD4680BD00BF00380240F2
:101A340000000240F800002080B582B000AF0346E9
:101A4400FB71FB79002B02D0B42B0AD013E00D4BB1
:101A54001B68C8225A630C4B1B68184600F09EF89A
:101A64000CE0084B1B6832225A63074B1B6818466C
:101A740000F094F802E000F009F800BF00BF083756
:101A8400BD4680BDF80000208000002080B400AF77
:101A940072B6FEE780B400AF064BD3F88830054A2F
:101AA40043F47003C2F8883000BFBD465DF8047B80
:101AB400704700BF00ED00E080B500AF0E4B1B681F
:101AC4000D4A43F4007313600B4B1B680A4A43F43A
:101AD40080631360084B1B68074A43F480731360E8
:101AE400032000F06FF9002000F008F8FFF76CFE07
:101AF4000023184680BD00BF003C024080B582B080
:101B040000AF7860124B1A68124B1B7819464FF4D9
:101B14007A73B3FBF1F3B2FBF3F3184600F095F9D3
:101B24000346002B01D001230EE07B680F2B0AD85B
:101B3400002279684FF0FF3000F04FF9064A7B68C5
:101B44001360002300E0012318460837BD4680BD1A
:101B5400840000208C0000208800002080B400AFA6
:101B6400064B1B781A46064B1B681344044A136041
:101B740000BFBD465DF8047B704700BF8C000020A9
:101B84005002002080B400AF034B1B681846BD46CA
:101B94005DF8047B704700BF5002002080B584B01C
:101BA40000AF7860FFF7EEFFB8607B68FB60FB680E
:101BB400B3F1FF3F05D0094B1B781A46FB68134469
:101BC400FB6000BFFFF7DEFF0246BB68D31AFA686A
:101BD4009A42F7D800BF1037BD4680BD8C00002064
:101BE40080B485B000AF78607B6803F00703FB60C6
:101BF4000C4BDB68BB60BA684FF6FF031340BB6055
:101C0400FB681A02BB68134343F0BF6343F4003319
:101C1400BB60044ABB68D36000BF1437BD465DF89F
:101C2400047B704700ED00E080B400AF044BDB6838
:101C34001B0A03F007031846BD465DF8047B704792
:101C440000ED00E080B483B000AF0346FB7197F968
:101C54000730002B0BDBFB7903F01F02074997F9D0
:101C640007305B09012000FA02F241F8232000BF8B
:101C74000C37BD465DF8047B704700BF00E100E00F
:101C840080B483B000AF0346FB7197F90730002B93
:101C940010DBFB7903F01F02094997F907305B0950
:101CA400012000FA02F2203341F82320BFF34F8FC2
:101CB400BFF36F8F00BF0C37BD465DF8047B7047E0
:101CC40000E100E080B483B000AF03463960FB71EB
:101CD40097F90730002B0ADB3B68DAB20C4997F915
:101CE40007301201D2B20B4483F800230AE03B68A8
:101CF400DAB20849FB7903F00F03043B1201D2B2B4
:101D04000B441A7600BF0C37BD465DF8047B704760
:101D140000E100E000ED00E080B489B000AFF860BD
:101D2400B9607A60FB6803F00703FB61FB69C3F1E8
:101D34000703042B28BF0423BB61FB690433062B70
:101D440002D9FB69033B00E000237B614FF0FF32C3
:101D5400BB6902FA03F3DA43BB681A407B699A4011
:101D64004FF0FF317B6901FA03F3D9437B680B40E1
:101D7400134318462437BD465DF8047B70470000C2
:101D840080B582B000AF78607B68013BB3F1807F9F
:101D940001D301230FE00A4A7B68013B53600F2102
:101DA4004FF0FF30FFF78EFF054B00229A60044B83
:101DB40007221A60002318460837BD4680BD00BFBD
:101DC40010E000E080B582B000AF78607868FFF77B
:101DD40007FF00BF0837BD4680BD80B586B000AFA1
:101DE4000346B9607A60FB7300237B61FFF71CFF35
:101DF40078617A68B9687869FFF78EFF024697F9C7
:101E04000F3011461846FFF75DFF00BF1837BD4677
:101E140080BD80B582B000AF0346FB7197F90730EF
:101E24001846FFF70FFF00BF0837BD4680BD80B5D9
:101E340082B000AF0346FB7197F907301846FFF7ED
:101E44001FFF00BF0837BD4680BD80B582B000AF1C
:101E540078607868FFF794FF034618460837BD4654
:101E640080BD000080B489B000AF78603960002381
:101E74007B6100233B610023BB610023FB6165E1BF
:101E84000122FB6902FA03F37B613B681B687A69F0
:101E940013403B613A697B699A4240F054813B6844
:101EA4005B6803F00303012B05D03B685B6803F018
:101EB4000303022B30D17B689B68BB61FB695B0029
:101EC400032202FA03F3DB43BA691340BB613B68A4
:101ED400DA68FB695B0002FA03F3BA691343BB6176
:101EE4007B68BA699A607B685B68BB610122FB69A5
:101EF40002FA03F3DB43BA691340BB613B685B68D6
:101F04001B0903F00102FB6902FA03F3BA691343E4
:101F1400BB617B68BA695A603B685B6803F0030382
:101F2400032B17D07B68DB68BB61FB695B00032272
:101F340002FA03F3DB43BA691340BB613B689A6856
:101F4400FB695B0002FA03F3BA691343BB617B6864
:101F5400BA69DA603B685B6803F00303022B23D1A0
:101F6400FB69DA087B68083253F82230BB61FB69ED
:101F740003F007039B000F2202FA03F3DB43BA6961
:101F84001340BB613B681A69FB6903F007039B00BC
:101F940002FA03F3BA691343BB61FB69DA087B688D
:101FA4000832B96943F822107B681B68BB61FB697E
:101FB4005B00032202FA03F3DB43BA691340BB61FB
:101FC4003B685B6803F00302FB695B0002FA03F3FE
:101FD400BA691343BB617B68BA691A603B685B6882
:101FE40003F08053002B00F0AE800023FB605C4BB9
:101FF4005B6C5B4A43F480435364594B5B6C03F45E
:102004008043FB60FB68574AFB699B08023352F824
:102014002330BB61FB6903F003039B000F2202FA28
:1020240003F3DB43BA691340BB617B684E4A9342B6
:1020340025D07B684D4A93421FD07B684C4A93421B
:1020440019D07B684B4A934213D07B684A4A934227
:102054000DD07B68494A934207D07B68484A934233
:1020640001D106230CE007230AE0052308E004233A
:1020740006E0032304E0022302E0012300E000233E
:10208400FA6902F0030292009340BA691343BB61F8
:102094003449FB699B080233BA6941F82320394B60
:1020A4001B68BB613B69DB43BA691340BB613B6896
:1020B4005B6803F48033002B03D0BA693B69134394
:1020C400BB61304ABB6913602E4B5B68BB613B69E3
:1020D400DB43BA691340BB613B685B6803F40033BC
:1020E400002B03D0BA693B691343BB61254ABB6922
:1020F4005360244B9B68BB613B69DB43BA69134063
:10210400BB613B685B6803F48013002B03D0BA699E
:102114003B691343BB611B4ABB699360194BDB6882
:10212400BB613B69DB43BA691340BB613B685B68D5
:1021340003F40013002B03D0BA693B691343BB615A
:10214400104ABB69D360FB690133FB61FB690F2B48
:102154007FF696AE00BF2437BD465DF8047B70471A
:1021640000380240003801400000024000040240F0
:1021740000080240000C024000100240001402401B
:1021840000180240003C014080B485B000AF786084
:102194000B467B807B681A697B881340002B02D036
:1021A4000123FB7301E00023FB73FB7B1846143708
:1021B400BD465DF8047B704780B582B000AF03462E
:1021C400FB80084B5A69FB881340002B06D0054A54
:1021D400FB885361FB881846FFF7E2F900BF083714
:1021E400BD4680BD003C014080B584B000AF78603E
:1021F4007B68002B01D101231FE17B6893F83D30FC
:10220400DBB2002B06D17B68002283F83C2078687F
:10221400FFF702FB7B68242283F83D207B681B6860
:102224001A687B681B6822F001021A607B681B68CD
:102234001A687B681B6842F400421A607B681B685A
:102244001A687B681B6822F400421A6000F0FEFCE6
:10225400F8607B685B687B4A934207D8FB687A4ADC
:10226400934294BF01230023DBB206E0FB68774A64
:10227400934294BF01230023DBB2002B01D001233E
:10228400DBE0FB68724AA2FB03239B0CBB607B6808
:102294001B685B6823F03F017B681B68BA680A43CC
:1022A4005A607B681B681B6A23F03F017B685B688C
:1022B400644A934202D8BB68013309E0BB684FF417
:1022C400967202FB03F3634AA2FB03239B090133C7
:1022D4007A6812680B4313627B681B68DB6923F41A
:1022E4004F4222F0FF027B685B6856498B420DD84F
:1022F400FB68591E7B685B685B00B1FBF3F3013339
:10230400C3F30B03042B38BF04234FE07B689B68A3
:10231400002B11D1FB68581E7B6859680B465B0083
:102324000B44B0FBF3F30133C3F30B03002B0CBFDB
:1023340001230023DBB212E0FB68581E7B68596856
:102344000B469B000B4499000B44B0FBF3F30133A1
:10235400C3F30B03002B0CBF01230023DBB2002BC0
:1023640001D0012322E07B689B68002B0ED1FB681F
:10237400581E7B6859680B465B000B44B0FBF3F3B3
:102384000133C3F30B0343F400430FE0FB68581E0F
:102394007B6859680B469B000B4499000B44B0FBC7
:1023A400F3F30133C3F30B0343F44043796809683F
:1023B4001343CB617B681B681B6823F0C0017B68F7
:1023C400DA697B681B6A1A437B681B680A431A60D4
:1023D4007B681B689B6823F4034323F0FF037A683C
:1023E40011697A68D26811437A6812680B43936062
:1023F4007B681B68DB6823F0FF017B685A697B6894
:102404009B691A437B681B680A43DA607B681B6814
:102414001A687B681B6842F001021A607B6800221C
:102424001A647B68202283F83D207B6800221A63AB
:102434007B68002283F83E20002318461037BD46EF
:1024440080BD00BFA08601007F841E00FF083D0000
:1024540083DE1B43D34D621080B588B002AFF860B1
:102464007A601A460B467B8113463B81FFF78AFB51
:102474007861FB6893F83D30DBB2202B40F0E080BC
:102484007B690093192301227049F86800F064F90C
:102494000346002B01D00223D3E0FB6893F83C30C1
:1024A400012B01D10223CCE0FB68012283F83C20FC
:1024B400FB681B681B6803F00103012B07D0FB6852
:1024C4001B681A68FB681B6842F001021A60FB680B
:1024D4001B681A68FB681B6822F400621A60FB68B8
:1024E400212283F83D20FB68102283F83E20FB68FC
:1024F40000221A64FB687A685A62FB683A895A8532
:10250400FB685B8D9AB2FB681A85FB68504ADA62F5
:1025140079897B693A6AF86800F09CF80346002BD5
:1025240001D001238DE000233B61FB681B685B69DC
:102534003B61FB681B689B693B613B6966E07A69A8
:10254400396AF86800F0DEF90346002B0DD0FB6809
:102554001B6C042B07D1FB681B681A68FB681B689B
:1025640042F400721A6001236BE0FB685B6A1A781C
:10257400FB681B681A61FB685B6A5A1CFB685A6239
:10258400FB685B8D9BB2013B9AB2FB685A85FB6882
:102594001B8D013B9AB2FB681A85FB681B685B695B
:1025A40003F00403042B1BD1FB681B8D002B17D0F5
:1025B400FB685B6A1A78FB681B681A61FB685B6AD4
:1025C4005A1CFB685A62FB685B8D9BB2013B9AB252
:1025D400FB685A85FB681B8D013B9AB2FB681A8520
:1025E4007A69396AF86800F0CEF90346002B0DD0F9
:1025F400FB681B6C042B07D1FB681B681A68FB681B
:102604001B6842F400721A6001231AE0FB681B8DF8
:10261400002B94D1FB681B681A68FB681B6842F4A2
:1026240000721A60FB68202283F83D20FB680022B8
:1026340083F83E20FB68002283F83C20002300E05E
:10264400022318461837BD4680BD00BF02001000A3
:102654000000FFFF80B588B002AFF8607A603B608D
:102664000B467B81FB68DB6A7B617B69082B06D0A8
:102674007B69012B03D07B6913F5803F08D1FB688C
:102684001B681A68FB681B6842F480721A600BE0CE
:10269400FB681B6B122B07D1FB681B681A68FB686D
:1026A4001B6842F480721A603B6800937B680022C6
:1026B4004FF00111F86800F04FF80346002B0DD0DD
:1026C400FB681B681B6803F48073B3F5807F03D138
:1026D400FB684FF400721A64032335E0FB681B693E
:1026E400B3F5804F08D17B89DBB21A46FB681B68BF
:1026F40002F0FE021A611BE07B89DB11DBB203F0FE
:102704000603DBB263F00F03DAB2FB681B681A61DD
:102714003B687A680E49F86800F075F80346002BA8
:1027240001D0012310E07B89DAB2FB681B681A61CF
:102734003B687A680749F86800F065F80346002B9F
:1027440001D0012300E0002318461837BD4680BDA0
:10275400080001000200010080B584B000AFF860F9
:10276400B9603B601346FB7125E03B68B3F1FF3F62
:1027740021D0FFF707FA0246BB69D31A3A689A4296
:1027840002D33B68002B16D1FB6800221A63FB6856
:10279400202283F83D20FB68002283F83E20FB685A
:1027A4001B6C43F02002FB681A64FB68002283F868
:1027B4003C20012323E0BB681B0CDBB2012B0DD1B1
:1027C400FB681B685B69DA43BB6813409BB2002B50
:1027D4000CBF01230023DBB21A460CE0FB681B6824
:1027E4009B69DA43BB6813409BB2002B0CBF0123E7
:1027F4000023DBB21A46FB799A42B6D0002318466E
:102804001037BD4680BD80B584B000AFF860B960B4
:102814007A603B6051E0FB681B685B6903F480638A
:10282400B3F5806F23D1FB681B681A68FB681B68CB
:1028340042F400721A60FB681B686FF480625A618C
:10284400FB6800221A63FB68202283F83D20FB68A2
:10285400002283F83E20FB681B6C43F00402FB68F3
:102864001A64FB68002283F83C20012346E07B685D
:10287400B3F1FF3F21D0FFF785F902463B68D31A35
:102884007A689A4202D37B68002B16D1FB68002237
:102894001A63FB68202283F83D20FB68002283F83A
:1028A4003E20FB681B6C43F02002FB681A64FB6843
:1028B400002283F83C20012320E0BB681B0CDBB220
:1028C400012B0CD1FB681B685B69DA43BB681340BE
:1028D4009BB2002B14BF01230023DBB20BE0FB6887
:1028E4001B689B69DA43BB6813409BB2002B14BF7F
:1028F40001230023DBB2002B8DD1002318461037AF
:10290400BD4680BD80B584B000AFF860B9607A6020
:102914002DE0F86800F078F80346002B01D001237D
:102924002DE0BB68B3F1FF3F21D0FFF72BF902463E
:102934007B68D31ABA689A4202D3BB68002B16D1BB
:10294400FB6800221A63FB68202283F83D20FB68A1
:10295400002283F83E20FB681B6C43F02002FB68D6
:102964001A64FB68002283F83C20012307E0FB681B
:102974001B685B6903F08003802BCAD100231846CF
:102984001037BD4680BD80B584B000AFF860B96033
:102994007A602DE0F86800F037F80346002B01D088
:1029A40001232DE0BB68B3F1FF3F21D0FFF7EAF824
:1029B40002467B68D31ABA689A4202D3BB68002BDA
:1029C40016D1FB6800221A63FB68202283F83D209D
:1029D400FB68002283F83E20FB681B6C43F0200256
:1029E400FB681A64FB68002283F83C20012307E09B
:1029F400FB681B685B6903F00403042BCAD1002342
:102A040018461037BD4680BD80B483B000AF7860EF
:102A14007B681B685B6903F48063B3F5806F1BD12B
:102A24007B681B686FF480625A617B6800221A63BA
:102A34007B68202283F83D207B68002283F83E20B7
:102A44007B681B6C43F004027B681A647B68002279
:102A540083F83C20012300E0002318460C37BD46D0
:102A64005DF8047B7047000080B584B000AF7860E7
:102A740039607B68002B01D10123CCE0684B1B68D3
:102A840003F00F033A689A420CD9654B3A68D2B204
:102A94001A70634B1B6803F00F033A689A4201D023
:102AA4000123B8E07B681B6803F00203002B20D0ED
:102AB4007B681B6803F00403002B05D0594B9B680B
:102AC400584A43F4E05393607B681B6803F008039F
:102AD400002B05D0534B9B68524A43F460439360E8
:102AE400504B9B6823F0F0027B689B684D4913436D
:102AF4008B607B681B6803F00103002B44D07B6868
:102B04005B68012B07D1474B1B6803F40033002B90
:102B140019D101237FE07B685B68022B03D07B68BB
:102B24005B68032B07D13F4B1B6803F00073002B3A
:102B340009D101236FE03B4B1B6803F00203002B18
:102B440001D1012367E0374B9B6823F003027B68C4
:102B54005B68344913438B60FFF714F8F8600AE0AC
:102B6400FFF710F80246FB68D31A41F28832934209
:102B740001D903234FE02B4B9B6803F00C027B68C5
:102B84005B689B009A42EBD1254B1B6803F00F0353
:102B94003A689A420CD2224B3A68D2B21A70204B4D
:102BA4001B6803F00F033A689A4201D0012332E014
:102BB4007B681B6803F00403002B08D0194B9B6847
:102BC40023F4E0527B68DB68164913438B607B680F
:102BD4001B6803F00803002B09D0124B9B6823F4F5
:102BE40060427B681B69DB000E4913438B6000F075
:102BF4007FFB01460B4B9B681B0903F00F030A4A3A
:102C0400D35C21FA03F3094A1360094B1B68184685
:102C1400FEF774FF002318461037BD4680BD00BF81
:102C2400003C024000380240DC53000884000020CD
:102C34008800002080B400AF034B1B681846BD46D3
:102C44005DF8047B704700BF8400002080B500AFAE
:102C5400FFF7F0FF0146054B9B689B0A03F007034F
:102C6400034AD35C21FA03F3184680BD00380240BE
:102C7400EC53000880B500AFFFF7DCFF0146054BBD
:102C84009B685B0B03F00703034AD35C21FA03F34D
:102C9400184680BD00380240EC53000880B58CB063
:102CA40000AF786000237B6200233B620023FB615A
:102CB4000023BB6100237B6100233B610023FB6095
:102CC4000023FB620023BB627B681B6803F00103E3
:102CD400002B10D06F4BD3F88C3023F0C0627B688C
:102CE4009B6B6C491343C1F88C307B689B6B002B46
:102CF40001D10123FB627B681B6803F00203002BF4
:102D040010D0644BD3F88C3023F0C0527B68DB6B5B
:102D140060491343C1F88C307B68DB6B002B01D115
:102D24000123FB627B681B6803F00403002B17D0AC
:102D3400584BD3F88C3023F440127B681B6B5549F5
:102D44001343C1F88C307B681B6BB3F5801F01D132
:102D54000123FB627B681B6B002B01D10123BB6247
:102D64007B681B6803F00803002B17D0494BD3F88A
:102D74008C3023F440027B685B6B46491343C1F8F3
:102D84008C307B685B6BB3F5800F01D10123FB6250
:102D94007B685B6B002B01D10123BB627B681B68E2
:102DA40003F02003002B00F08A800023BB60394B22
:102DB4001B6C384A43F080531364364B1B6C03F08E
:102DC4008053BB60BB68344B1B68334A43F4807345
:102DD4001360FEF7D7FE786208E0FEF7D3FE0246E2
:102DE4007B6AD31A022B01D9032378E22A4B1B688E
:102DF40003F48073002BF0D0264B1B6F03F4407355
:102E04003B623B6A002B2FD07B681B6C03F440733E
:102E14003A6A9A4228D01F4B1B6F23F440733B62DB
:102E24001E4B01221A601D4B00221A60194A3B6A8C
:102E34001367184B1B6F03F00103012B14D1FEF72A
:102E4400A1FE78620AE0FEF79DFE02467B6AD31A71
:102E540041F28832934201D9032340E20D4B1B6FA8
:102E640003F00203002BEED07B681B6C03F4407369
:102E7400B3F5407F14D1074B9B6823F4F8127B68A9
:102E84001B6C23F0704323F44073024913438B609B
:102E94000CE000BF0038024000700040400E474282
:102EA4004A4B9B68494A23F4F8139360474B1A6FC3
:102EB4007B681B6CC3F30B03444913430B677B68A8
:102EC4001B6803F01003002B04D07B6893F8582090
:102ED4003F4B1A607B681B6803F08003002B0AD009
:102EE4003A4BD3F8943023F440027B68DB6C3749C7
:102EF4001343C1F894307B681B6803F04003002B34
:102F04000AD0324BD3F8943023F080627B689B6CF8
:102F14002E491343C1F894307B681B6803F4807313
:102F2400002B11D0294BD3F8943023F000627B6836
:102F34005B6D26491343C1F894307B685B6DB3F134
:102F4400006F01D10123BB627B681B6803F400732B
:102F5400002B0AD01D4BD3F8943023F080527B68A9
:102F64005B6C1A491343C1F894307B681B6803F403
:102F74008063002B11D0154BD3F8943023F000520A
:102F84007B681B6D11491343C1F894307B681B6D3A
:102F9400B3F1005F01D10123FB62FB6A012B05D071
:102FA4007B681B68B3F5006F40F0FF80094B00227B
:102FB4001A60FEF7E7FD78620EE0FEF7E3FD0246D5
:102FC4007B6AD31A022B07D9032388E10038024015
:102FD400E0114742680047427E4B1B6803F00063E0
:102FE400002BEAD17B681B6803F00103002B03D09C
:102FF4007B689B6B002B09D07B681B6803F0020382
:10300400002B28D07B68DB6B002B24D1714BD3F8C9
:1030140084301B0C03F0030301335B00FB616D4B35
:10302400D3F884301B0E03F00F03BB617B685A682E
:103034007B689B689B011A43FB695B08013B1B048B
:103044001A43BB691B061A437B685B691B0761490A
:103054001343C1F884307B681B6803F00403002B1E
:1030640004D07B681B6BB3F5801F0AD07B681B6898
:1030740003F00803002B35D07B685B6BB3F5800F3E
:1030840030D1544BD3F884301B0C03F003030133C9
:103094005B00FB614F4BD3F884301B0F03F0070335
:1030A4007B617B685A687B689B689B011A43FB6958
:1030B4005B08013B1B041A437B681B691B061A430C
:1030C4007B691B0743491343C1F88430414BD3F850
:1030D4008C3023F01F027B689B6A013B3D491343FC
:1030E400C1F88C307B681B6803F48063002B29D003
:1030F4007B681B6DB3F1005F24D1364BD3F8843069
:103104001B0C03F0030301335B00BB61314BD3F8A9
:1031140084301B0F03F007037B617B685A687B686C
:103124009B689B011A437B68DB685B08013B1B04BB
:103134001A43BB691B061A437B691B0725491343C2
:10314400C1F884307B681B6803F40063002B16D03D
:103154007B685A687B689B689B011A437B68DB68C1
:103164005B08013B1B041A437B681B691B061A435B
:103174007B685B691B0717491343C1F88430164BFE
:1031840001221A60FEF7FEFC786208E0FEF7FAFC02
:1031940002467B6AD31A022B01D903239FE00D4B0D
:1031A4001B6803F00063002BF0D0BB6A012B40F0D6
:1031B40095800A4B00221A60FEF7E4FC78620FE067
:1031C400FEF7E0FC02467B6AD31A022B08D90323DC
:1031D40085E000BF00380240680047427000474263
:1031E400414B1B6803F00053B3F1005FE8D07B68E8
:1031F4001B6803F00403002B03D07B681B6B002BBC
:1032040009D07B681B6803F00803002B2BD07B6874
:103214005B6B002B27D1344BD3F888301B0C03F0A5
:10322400030301335B003B617B689A697B68DB695C
:103234009B011A433B695B08013B1B041A437B68EF
:103244005B6A1B0628491343C1F88830264BD3F820
:103254008C3023F4F8527B68DB6A013B1B02224961
:103264001343C1F88C307B681B6803F48073002B14
:103274001DD07B685B6DB3F1006F18D11A4BD3F886
:1032840088301B0E03F00F03FB607B689A697B6830
:10329400DB699B011A437B681B6A5B08013B1B04C7
:1032A4001A43FB681B0610491343C1F888300F4BBF
:1032B40001221A60FEF766FC786208E0FEF762FC01
:1032C40002467B6AD31A022B01D9032307E0064B7B
:1032D4001B6803F00053B3F1005FEFD100231846DD
:1032E4003037BD4680BD00BF003802407000474201
:1032F400F0B587B000AF0023FB6000237B6100239F
:10330400BB6000237B6000233B61C64B9B6803F0DA
:103314000C030C2B00F27E8101A252F823F000BFB3
:103324005933000819360008193600081936000800
:103334005F330008193600081936000819360008EA
:1033440065330008193600081936000819360008D4
:10335400C1340008B44B3B615FE1B44B3B615CE1B9
:10336400B04B5B6803F03F03FB60AE4B5B6803F458
:103374008003002B4AD0AB4B5B689B094FF00004E1
:1033840040F2FF114FF0000203EA010504EA0206CD
:10339400294632464FF000034FF00004540144EA3A
:1033A400D1644B0119462246491B62EB06024FF0D9
:1033B40000034FF00004940144EA91648B015B1A0A
:1033C40064EB02044FF000014FF00002E20042EA15
:1033D4005372D9000B4614465B1944EB06044FF0B4
:1033E40000014FF00002620242EAD35259020B4636
:1033F400144618462146FB684FF000041A4623463B
:10340400FCF7FEFE03460C467B6149E0854B5B6896
:103414009B094FF0000440F2FF114FF0000203EA51
:10342400010504EA0206294632464FF000034FF034
:103434000004540144EAD1644B0119462246491B55
:1034440062EB06024FF000034FF00004940144EADB
:1034540091648B015B1A64EB02044FF000014FF09E
:103464000002E20042EA5372D9000B4614465B198B
:1034740044EB06044FF000014FF00002A20242EABE
:10348400935299020B46144618462146FB684FF0A6
:1034940000041A462346FCF7B3FE03460C467B6140
:1034A400604B5B681B0C03F0030301335B00BB60E0
:1034B4007A69BB68B2FBF3F33B61AEE0594B5B68DE
:1034C40003F03F03FB60574B5B6803F48003002B5E
:1034D4004AD0544B5B689B094FF0000440F2FF1143
:1034E4004FF0000203EA010504EA020629463246C7
:1034F4004FF000034FF00004540144EAD1644B013F
:1035040019462246491B62EB06024FF000034FF0B6
:103514000004940144EA91648B015B1A64EB020495
:103524004FF000014FF00002E20042EA5372D9006A
:103534000B4614465B1944EB06044FF000014FF0B0
:103544000002620242EAD35259020B46144618465C
:103554002146FB684FF000041A462346FCF750FE50
:1035640003460C467B6149E02E4B5B689B094FF098
:10357400000440F2FF114FF0000203EA010504EADF
:103584000206294632464FF000034FF0000454016E
:1035940044EAD1644B0119462246491B62EB0602F8
:1035A4004FF000034FF00004940144EA91648B014E
:1035B4005B1A64EB02044FF000014FF00002E200DA
:1035C40042EA5372D9000B4614465B1944EB0604D5
:1035D4004FF000014FF00002A20242EA9352990216
:1035E4000B46144618462146FB684FF000041A4661
:1035F4002346FCF705FE03460C467B61094B5B68DA
:103604001B0F03F007037B607A697B68B2FBF3F35B
:103614003B6102E0044B3B6100BF3B6918461C3729
:10362400BD46F0BD003802400024F40000127A00C8
:1036340080B586B000AF78607B68002B01D1012390
:103644008DE27B681B6803F00103002B00F083808C
:10365400944B9B6803F00C03042B19D0914B9B688B
:1036640003F00C03082B06D18E4B5B6803F4800334
:10367400B3F5800F0CD08B4B9B6803F00C030C2B21
:1036840012D1884B5B6803F48003B3F5800F0BD130
:10369400844B1B6803F40033002B5BD07B685B68AE
:1036A400002B57D101235AE27B685B68B3F5803F56
:1036B40006D17C4B1B687B4A43F4803313601DE0C6
:1036C4007B685B68B3F5A02F0CD1764B1B68754AF9
:1036D40043F480231360734B1B68724A43F48033B2
:1036E40013600BE06F4B1B686E4A23F48033136046
:1036F4006C4B1B686B4A23F4802313607B685B6804
:10370400002B13D0FEF73EFA386108E0FEF73AFAD0
:1037140002463B69D31A642B01D903231FE2614B90
:103724001B6803F40033002BF0D014E0FEF72AFAF0
:10373400386108E0FEF726FA02463B69D31A642B87
:1037440001D903230BE2574B1B6803F40033002B0E
:10375400F0D100E000BF7B681B6803F00203002B7C
:103764006FD0504B9B6803F00C03002B17D04D4BCC
:103774009B6803F00C03082B05D14A4B5B6803F4E8
:103784008003002B0BD0474B9B6803F00C030C2BDE
:103794001CD1444B5B6803F48003002B16D1414BCE
:1037A4001B6803F00203002B05D07B68DB68012B48
:1037B40001D00123D3E13B4B1B6823F0F8027B6863
:1037C4001B69DB00374913430B603AE07B68DB6815
:1037D400002B20D0344B01221A60FEF7D3F9386154
:1037E40008E0FEF7CFF902463B69D31A022B01D950
:1037F4000323B4E12B4B1B6803F00203002BF0D02E
:10380400284B1B6823F0F8027B681B69DB00254901
:1038140013430B6015E0244B00221A60FEF7B2F943
:10382400386108E0FEF7AEF902463B69D31A022B71
:1038340001D9032393E11B4B1B6803F00203002B04
:10384400F0D17B681B6803F00803002B36D07B683B
:103854005B69002B16D0154B01221A60FEF792F912
:10386400386108E0FEF78EF902463B69D31A022B51
:1038740001D9032373E10B4B5B6F03F00203002BAD
:10388400F0D01BE0094B00221A60FEF77BF9386187
:103894000EE0FEF777F902463B69D31A022B07D9EB
:1038A40003235CE10038024000004742800E474297
:1038B4008A4B5B6F03F00203002BEAD17B681B6821
:1038C40003F00403002B00F097800023FB75834B67
:1038D4001B6C03F08053002B0FD10023BB607F4B84
:1038E4001B6C7E4A43F0805313647C4B1B6C03F0C7
:1038F4008053BB60BB680123FB75794B1B6803F4E1
:103904008073002B18D1764B1B68754A43F480737F
:103914001360FEF737F9386108E0FEF733F9024621
:103924003B69D31A022B01D9032318E16C4B1B68A2
:1039340003F48073002BF0D07B689B68012B06D1C5
:10394400664B1B6F654A43F0010313671CE07B68F9
:103954009B68052B0CD1614B1B6F604A43F0040339
:1039640013675E4B1B6F5D4A43F0010313670BE063
:103974005A4B1B6F594A23F001031367574B1B6FB4
:10398400564A23F0040313677B689B68002B15D009
:10399400FEF7F8F838610AE0FEF7F4F802463B69EE
:1039A400D31A41F28832934201D90323D7E04B4B17
:1039B4001B6F03F00203002BEED014E0FEF7E2F8D5
:1039C40038610AE0FEF7DEF802463B69D31A41F299
:1039D4008832934201D90323C1E0404B1B6F03F0AB
:1039E4000203002BEED1FB7D012B05D13B4B1B6C5D
:1039F4003A4A23F0805313647B689B69002B00F0E0
:103A0400AD80364B9B6803F00C03082B60D07B68B9
:103A14009B69022B45D1334B00221A60FEF7B2F8A2
:103A2400386108E0FEF7AEF802463B69D31A022B70
:103A340001D9032393E0294B1B6803F00073002B87
:103A4400F0D17B68DA697B681B6A1A437B685B6A1E
:103A54009B011A437B689B6A5B08013B1B041A4366
:103A64007B68DB6A1B061A437B681B6B1B071B49BD
:103A740013434B601B4B01221A60FEF783F8386135
:103A840008E0FEF77FF802463B69D31A022B01D9FE
:103A9400032364E0114B1B6803F00073002BF0D088
:103AA4005CE0104B00221A60FEF76CF8386108E005
:103AB400FEF768F802463B69D31A022B01D90323A7
:103AC4004DE0064B1B6803F00073002BF0D145E07A
:103AD4007B689B69012B07D1012340E00038024039
:103AE40000700040600047421F4B5B68FB607B68CE
:103AF4009B69012B30D0FB6803F480027B68DB698F
:103B04009A4229D1FB6803F03F027B681B6A9A4200
:103B140022D1FA6847F6C07313407A68526A920158
:103B2400934219D1FB6803F440327B689B6A5B08BB
:103B3400013B1B049A420FD1FB6803F070627B685F
:103B4400DB6A1B069A4207D1FB6803F0E0427B68FC
:103B54001B6B1B079A4201D0012300E00023184687
:103B64001837BD4680BD00BF0038024080B582B022
:103B740000AF78607B68002B01D1012383E07B6870
:103B84005B7FDBB2002B05D17B6800221A77786853
:103B9400FDF78AFE7B6802225A777B681B68CA227B
:103BA4005A627B681B6853225A62786800F0B2F943
:103BB4000346002B08D07B681B68FF225A627B688F
:103BC40004225A7701235EE07B681B689B687A684D
:103BD400126823F4E00323F0400393607B681B68BE
:103BE40099687B685A687B681B691A437B685B69C0
:103BF4001A437B681B680A439A607B681B687A686F
:103C0400D2681A617B681B6819697B689B681A040F
:103C14007B681B680A431A617B681B68DA687B68E7
:103C24001B6822F08002DA607B681B689B6803F0E3
:103C34002003002B0ED1786800F044F90346002BD2
:103C440008D07B681B68FF225A627B6804225A777B
:103C5400012318E07B681B681A6C7B681B6822F4DC
:103C640080221A647B681B68196C7B689A697B687C
:103C74001B680A431A647B681B68FF225A627B68CC
:103C840001225A77002318460837BD4680BD90B5F7
:103C940087B000AFF860B9607A6000237B61FB688D
:103CA4001B7F012B01D10223AAE0FB6801221A77B2
:103CB400FB6802225A777B68002B26D1FB681B68BD
:103CC4009B6803F04003002B02D1BB680022DA702A
:103CD400BB681B78184600F049F903461C04BB680E
:103CE4005B78184600F042F903461B021C43BB688C
:103CF4009B78184600F03AF9034644EA0302BB688D
:103D0400DB781B0413437B6118E0FB681B689B682A
:103D140003F04003002B02D1BB680022DA70BB68B9
:103D24001B781A04BB685B781B021343BA68927849
:103D34001A43BB68DB781B0413437B61FB681B6875
:103D4400CA225A62FB681B6853225A62F86800F060
:103D5400E1F80346002B0BD0FB681B68FF225A6274
:103D6400FB6804225A77FB6800221A77012347E094
:103D7400FB681A687B6903F07F3323F0FE4313600A
:103D8400FB681B689A68FB681B6822F480229A60AF
:103D9400FB681B689968BB68DA68BB681B691A43CF
:103DA400FB681B680A439A60FB681B68DA68FB6857
:103DB4001B6822F08002DA60FB681B689B6803F0D2
:103DC4002003002B11D1F86800F07CF80346002B87
:103DD4000BD0FB681B68FF225A62FB6804225A77E7
:103DE400FB6800221A7701230AE0FB681B68FF22A4
:103DF4005A62FB6801225A77FB6800221A77002373
:103E040018461C37BD4690BD80B586B000AFF8603B
:103E1400B9607A6000237B61FB681B689A6ABB689F
:103E24005A60FB681B681B69C3F30E02BB689A6087
:103E3400FB681B681B6803F07F3323F0FE437B6140
:103E44007B691B0CDBB203F03F03DAB2BB681A7068
:103E54007B691B0ADBB203F07F03DAB2BB685A70DA
:103E64007B69DBB203F07F03DAB2BB689A707B69CB
:103E74001B0CDBB203F04003DAB2BB68DA707B6878
:103E8400002B1AD1BB681B78184600F08DF8034646
:103E94001A46BB681A70BB685B78184600F084F851
:103EA40003461A46BB685A70BB689B78184600F0F4
:103EB4007BF803461A46BB689A70002318461837E5
:103EC400BD4680BD80B584B000AF78600023FB6040
:103ED4007B681B68DA687B681B6822F0A002DA60E2
:103EE400FDF750FEF86009E0FDF74CFE0246FB6862
:103EF400D31AB3F57A7F01D9032307E07B681B68E3
:103F0400DB6803F02003002BEED0002318461037A3
:103F1400BD4680BD80B584B000AF78600023FB60EF
:103F24007B681B68DB6803F04003002B19D17B68B6
:103F34001B684FF0FF32DA60FDF724FEF86009E0F9
:103F4400FDF720FE0246FB68D31AB3F57A7F01D948
:103F5400032307E07B681B68DB6803F04003002B46
:103F6400EED0002318461037BD4680BD80B485B01E
:103F740000AF0346FB710023FB6005E0FB680133DF
:103F8400FB60FB790A3BFB71FB79092BF6D8FB68D4
:103F9400DBB21B01DAB2FB791343DBB218461437E8
:103FA400BD465DF8047B704780B485B000AF03461E
:103FB400FB710023FB60FB791B09DBB21A46134635
:103FC4009B0013445B00FB60FB7903F00F03DAB240
:103FD400FB68DBB21344DBB218461437BD465DF808
:103FE400047B704780B582B000AF78607B68002B9B
:103FF40001D1012341E07B6893F83D30DBB2002B13
:1040040006D17B68002283F83C20786800F039F8F8
:104014007B68022283F83D207B681A687B6804333E
:104024001946104600F050FE7B68012283F84620B2
:104034007B68012283F83E207B68012283F83F20BD
:104044007B68012283F840207B68012283F84120A9
:104054007B68012283F842207B68012283F8432095
:104064007B68012283F844207B68012283F8452081
:104074007B68012283F83D20002318460837BD469B
:1040840080BD80B483B000AF786000BF0C37BD46FC
:104094005DF8047B7047000080B485B000AF7860A1
:1040A4007B6893F83D30DBB2012B01D001234EE055
:1040B4007B68022283F83D207B681B68DA687B6892
:1040C4001B6842F00102DA607B681B68234A934252
:1040D40022D07B681B68B3F1804F1DD07B681B68BE
:1040E4001F4A934218D07B681B681E4A934213D020
:1040F4007B681B681C4A93420ED07B681B681B4A72
:10410400934209D07B681B68194A934204D07B68A8
:104114001B68184A934211D17B681B689B6803F0A3
:104124000703FB60FB68062B10D07B681B681A68CA
:104134007B681B6842F001021A6007E07B681B6819
:104144001A687B681B6842F001021A600023184653
:104154001437BD465DF8047B704700BF0000014082
:104164000004004000080040000C0040000401402E
:10417400004001400018004080B483B000AF786074
:104184007B681B68DA687B681B6822F00102DA60CE
:104194007B681B681A6A41F211131340002B0FD17C
:1041A4007B681B681A6A40F244431340002B07D112
:1041B4007B681B681A687B681B6822F001021A601E
:1041C4007B68012283F83D20002318460C37BD4646
:1041D4005DF8047B704780B582B000AF78607B687F
:1041E400002B01D1012341E07B6893F83D30DBB221
:1041F400002B06D17B68002283F83C20786800F00D
:1042040039F87B68022283F83D207B681A687B6852
:1042140004331946104600F057FD7B68012283F8E9
:1042240046207B68012283F83E207B68012283F8C4
:104234003F207B68012283F840207B68012283F8B9
:1042440041207B68012283F842207B68012283F8A5
:1042540043207B68012283F844207B68012283F891
:1042640045207B68012283F83D2000231846083747
:10427400BD4680BD80B483B000AF786000BF0C370A
:10428400BD465DF8047B704780B582B000AF7860AE
:1042940039607B681B6800223968184600F064FFA7
:1042A4007B681B682E4A934204D07B681B682D4AA6
:1042B400934201D1012300E00023002B17D07B6837
:1042C4001B681A6A41F211131340002B0FD17B684B
:1042D4001B681A6A40F244431340002B07D17B68E1
:1042E4001B685A6C7B681B6822F400425A647B6822
:1042F4001B681A6A41F211131340002B0FD17B681B
:104304001B681A6A40F244431340002B07D17B68B0
:104314001B681A687B681B6822F001021A603B68FC
:10432400002B04D17B68012283F83E2013E03B6814
:10433400042B04D17B68012283F83F200BE03B6807
:10434400082B04D17B68012283F8402003E07B68BA
:10435400012283F84120002318460837BD4680BD5A
:10436400000001400004014080B584B000AF7860D3
:1043740039603B68002B09D17B6893F83E30DBB28F
:10438400012B14BF01230023DBB222E03B68042B82
:1043940009D17B6893F83F30DBB2012B14BF0123B2
:1043A4000023DBB215E03B68082B09D17B6893F846
:1043B4004030DBB2012B14BF01230023DBB208E041
:1043C4007B6893F84130DBB2012B14BF0123002337
:1043D400DBB2002B01D00123C2E03B68002B04D1E7
:1043E4007B68022283F83E2013E03B68042B04D14F
:1043F4007B68022283F83F200BE03B68082B04D142
:104404007B68022283F8402003E07B68022283F861
:1044140041203B680C2B41D801A252F823F000BF85
:1044240059440008A1440008A1440008A14400081C
:104434006B440008A1440008A1440008A1440008FA
:104444007D440008A1440008A1440008A1440008D8
:104454008F4400087B681B68DA687B681B6842F03D
:104464000202DA601BE07B681B68DA687B681B6801
:1044740042F00402DA6012E07B681B68DA687B6849
:104484001B6842F00802DA6009E07B681B68DA689E
:104494007B681B6842F01002DA6000E000BF7B68B2
:1044A4001B6801223968184600F05EFE7B681B68B1
:1044B4002D4A934204D07B681B682C4A934201D155
:1044C400012300E00023002B07D07B681B685A6C93
:1044D4007B681B6842F400425A647B681B68224A6A
:1044E400934222D07B681B68B3F1804F1DD07B6858
:1044F4001B681F4A934218D07B681B681D4A93426D
:1045040013D07B681B681C4A93420ED07B681B68DF
:10451400164A934209D07B681B68184A934204D018
:104524007B681B68164A934211D17B681B689B68A1
:1045340003F00703FB60FB68062B10D07B681B6845
:104544001A687B681B6842F001021A6007E07B6806
:104554001B681A687B681B6842F001021A6000231A
:1045640018461037BD4680BD0000014000040140DC
:104574000004004000080040000C004000400140DE
:104584000018004080B582B000AF78607B68002BD3
:1045940001D1012341E07B6893F83D30DBB2002B6D
:1045A40006D17B68002283F83C20786800F039F853
:1045B4007B68022283F83D207B681A687B68043399
:1045C4001946104600F080FB7B68012283F84620E0
:1045D4007B68012283F83E207B68012283F83F2018
:1045E4007B68012283F840207B68012283F8412004
:1045F4007B68012283F842207B68012283F84320F0
:104604007B68012283F844207B68012283F84520DB
:104614007B68012283F83D20002318460837BD46F5
:1046240080BD80B483B000AF786000BF0C37BD4656
:104634005DF8047B7047000080B584B000AF7860FB
:1046440039603B68002B09D17B6893F83E30DBB2BC
:10465400012B14BF01230023DBB222E03B68042BAF
:1046640009D17B6893F83F30DBB2012B14BF0123DF
:104674000023DBB215E03B68082B09D17B6893F873
:104684004030DBB2012B14BF01230023DBB208E06E
:104694007B6893F84130DBB2012B14BF0123002364
:1046A400DBB2002B01D001237CE03B68002B04D15A
:1046B4007B68022283F83E2013E03B68042B04D17C
:1046C4007B68022283F83F200BE03B68082B04D16F
:1046D4007B68022283F8402003E07B68022283F88F
:1046E40041207B681B6801223968184600F03CFDB4
:1046F4007B681B682D4A934204D07B681B682C4A54
:10470400934201D1012300E00023002B07D07B68F2
:104714001B685A6C7B681B6842F400425A647B68CD
:104724001B68224A934222D07B681B68B3F1804FF6
:104734001DD07B681B681F4A934218D07B681B6896
:104744001D4A934213D07B681B681C4A93420ED0C7
:104754007B681B68164A934209D07B681B68184A19
:10476400934204D07B681B68164A934211D17B683C
:104774001B689B6803F00703FB60FB68062B10D0E3
:104784007B681B681A687B681B6842F001021A6028
:1047940007E07B681B681A687B681B6842F00102AB
:1047A4001A60002318461037BD4680BD0000014042
:1047B400000401400004004000080040000C0040D8
:1047C400004001400018004080B582B000AF78601E
:1047D4007B681B681B6903F00203022B22D17B68F0
:1047E4001B68DB6803F00203022B1BD17B681B6888
:1047F4006FF002021A617B6801221A777B681B68DA
:104804009B6903F00303002B03D0786800F03EFAA1
:1048140005E07868FCF71CFF786800F041FA7B68D3
:1048240000221A777B681B681B6903F00403042BBE
:1048340022D17B681B68DB6803F00403042B1BD1C3
:104844007B681B686FF004021A617B6802221A7786
:104854007B681B689B6903F44073002B03D0786862
:1048640000F014FA05E07868FCF7F2FE786800F0CE
:1048740017FA7B6800221A777B681B681B6903F0B0
:104884000803082B22D17B681B68DB6803F008034C
:10489400082B1BD17B681B686FF008021A617B68C8
:1048A40004221A777B681B68DB6903F00303002B7F
:1048B40003D0786800F0EAF905E07868FCF7C8FEF0
:1048C400786800F0EDF97B6800221A777B681B6832
:1048D4001B6903F01003102B22D17B681B68DB6873
:1048E40003F01003102B1BD17B681B686FF01002C0
:1048F4001A617B6808221A777B681B68DB6903F4FA
:104904004073002B03D0786800F0C0F905E07868A4
:10491400FCF79EFE786800F0C3F97B6800221A77E2
:104924007B681B681B6903F00103012B0ED17B68B4
:104934001B68DB6803F00103012B07D17B681B684C
:104944006FF001021A617868FCF75EFE7B681B68F1
:104954001B6903F08003802B0ED17B681B68DB6826
:1049640003F08003802B07D17B681B686FF0800203
:104974001A61786800F027FC7B681B681B6903F0E8
:104984004003402B0ED17B681B68DB6803F04003B7
:10499400402B07D17B681B686FF040021A6178686E
:1049A40000F088F97B681B681B6903F02003202B47
:1049B4000ED17B681B68DB6803F02003202B07D132
:1049C4007B681B686FF020021A61786800F0F1FBC5
:1049D40000BF0837BD4680BD80B584B000AFF86025
:1049E400B9607A60FB6893F83C30012B01D1022353
:1049F40046E0FB68012283F83C207B680C2B39D805
:104A040001A252F823F000BF414A0008794A000885
:104A1400794A0008794A00084F4A0008794A000890
:104A2400794A0008794A00085D4A0008794A000872
:104A3400794A0008794A00086B4A0008FB681B6839
:104A4400B968184600F0E0F915E0FB681B68B9681E
:104A5400184600F049FA0EE0FB681B68B96818466E
:104A640000F0B8FA07E0FB681B68B968184600F064
:104A740025FB00E000BFFB68002283F83C200023F4
:104A840018461037BD4680BD80B584B000AFF860CD
:104A9400B9607A60FB6893F83C30012B01D10223A2
:104AA400ACE0FB68012283F83C207B680C2B00F20D
:104AB4009F8001A252F823F0F14A0008F54B000848
:104AC400F54B0008F54B0008314B0008F54B000886
:104AD400F54B0008F54B0008734B0008F54B000834
:104AE400F54B0008F54B0008B34B0008FB681B6846
:104AF400B968184600F088F9FB681B689A69FB6876
:104B04001B6842F008029A61FB681B689A69FB689B
:104B14001B6822F004029A61FB681B689969BB68F0
:104B24001A69FB681B680A439A6162E0FB681B68A8
:104B3400B968184600F0D8F9FB681B689A69FB68E5
:104B44001B6842F400629A61FB681B689A69FB68FF
:104B54001B6822F480629A61FB681B689969BB68D0
:104B64001B691A02FB681B680A439A6141E0FB68EF
:104B74001B68B968184600F02DFAFB681B68DA69EF
:104B8400FB681B6842F00802DA61FB681B68DA699B
:104B9400FB681B6822F00402DA61FB681B68D969B0
:104BA400BB681A69FB681B680A43DA6121E0FB6889
:104BB4001B68B968184600F081FAFB681B68DA695B
:104BC400FB681B6842F40062DA61FB681B68DA69FF
:104BD400FB681B6822F48062DA61FB681B68D96990
:104BE400BB681B691A02FB681B680A43DA6100E0B0
:104BF40000BFFB68002283F83C20002318461037CE
:104C0400BD4680BD80B485B000AF786039600023B4
:104C1400FB603B680C2B31D801A252F823F000BF93
:104C2400594C0008814C0008814C0008814C000854
:104C3400634C0008814C0008814C0008814C00083A
:104C44006D4C0008814C0008814C0008814C000820
:104C5400774C00087B681B685B6BFB600FE07B682C
:104C64001B689B6BFB600AE07B681B68DB6BFB606B
:104C740005E07B681B681B6CFB6000E000BFFB6801
:104C840018461437BD465DF8047B704780B483B082
:104C940000AF786000BF0C37BD465DF8047B7047F9
:104CA40080B483B000AF786000BF0C37BD465DF8B8
:104CB400047B704780B483B000AF786000BF0C37CA
:104CC400BD465DF8047B704780B485B000AF786062
:104CD40039607B681B68FB607B68404A934213D051
:104CE4007B68B3F1804F0FD07B683D4A93420BD071
:104CF4007B683C4A934207D07B683B4A934203D08B
:104D04007B683A4A934208D1FB6823F07003FB6046
:104D14003B685B68FA681343FB607B682F4A9342E5
:104D24002BD07B68B3F1804F27D07B682C4A934209
:104D340023D07B682B4A93421FD07B682A4A934234
:104D44001BD07B68294A934217D07B68284A934238
:104D540013D07B68274A93420FD07B68264A93423C
:104D64000BD07B68254A934207D07B68244A934240
:104D740003D07B68234A934208D1FB6823F4407331
:104D8400FB603B68DB68FA681343FB60FB6823F055
:104D940080023B685B691343FB607B68FA681A60B6
:104DA4003B689A687B68DA623B681A687B689A6237
:104DB4007B680A4A934203D07B680C4A934203D12E
:104DC4003B681A697B681A637B6801225A6100BFD9
:104DD4001437BD465DF8047B704700BF00000140F6
:104DE4000004004000080040000C004000040140A2
:104DF40000400140004401400048014000180040C8
:104E0400001C00400020004080B487B000AF7860F0
:104E140039607B681B6A23F001027B681A627B6835
:104E24001B6A7B617B685B683B617B689B69FB6099
:104E3400FB6823F07003FB60FB6823F00303FB6053
:104E44003B681B68FA681343FB607B6923F0020329
:104E54007B613B689B687A6913437B617B68204A6A
:104E6400934203D07B681F4A93420CD17B6923F0A1
:104E740008037B613B68DB687A6913437B617B6968
:104E840023F004037B617B68154A934203D07B685B
:104E9400144A934211D13B6923F480733B613B690B
:104EA40023F400733B613B685B693A6913433B61DC
:104EB4003B689B693A6913433B617B683A695A6072
:104EC4007B68FA689A613B685A687B685A637B68B6
:104ED4007A691A6200BF1C37BD465DF8047B7047CF
:104EE400000001400004014080B487B000AF786046
:104EF40039607B681B6A23F010027B681A627B6846
:104F04001B6A7B617B685B683B617B689B69FB60B8
:104F1400FB6823F4E043FB60FB6823F44073FB600D
:104F24003B681B681B02FA681343FB607B6923F030
:104F340020037B613B689B681B017A6913437B6197
:104F44007B68224A934203D07B68214A93420DD165
:104F54007B6923F080037B613B68DB681B017A6912
:104F640013437B617B6923F040037B617B68174AB1
:104F7400934203D07B68164A934213D13B6923F4CE
:104F840080633B613B6923F400633B613B685B697D
:104F94009B003A6913433B613B689B699B003A69F8
:104FA40013433B617B683A695A607B68FA689A618B
:104FB4003B685A687B689A637B687A691A6200BFA7
:104FC4001C37BD465DF8047B704700BF00000140FC
:104FD4000004014080B487B000AF786039607B681A
:104FE4001B6A23F480727B681A627B681B6A7B618C
:104FF4007B685B683B617B68DB69FB60FB6823F073
:105004007003FB60FB6823F00303FB603B681B68D1
:10501400FA681343FB607B6923F400737B613B688C
:105024009B681B027A6913437B617B68214A934224
:1050340003D07B68204A93420DD17B6923F400633B
:105044007B613B68DB681B027A6913437B617B6984
:1050540023F480637B617B68164A934203D07B68A8
:10506400154A934213D13B6923F480533B613B6956
:1050740023F400533B613B685B691B013A691343AA
:105084003B613B689B691B013A6913433B617B6845
:105094003A695A607B68FA68DA613B685A687B68E7
:1050A400DA637B687A691A6200BF1C37BD465DF813
:1050B400047B7047000001400004014080B487B0C5
:1050C40000AF786039607B681B6A23F480527B6888
:1050D4001A627B681B6A3B617B685B687B617B68E7
:1050E400DB69FB60FB6823F4E043FB60FB6823F4AB
:1050F4004073FB603B681B681B02FA681343FB6048
:105104003B6923F400533B613B689B681B033A698A
:1051140013433B617B68124A934203D07B68114A74
:10512400934209D17B6923F480437B613B685B69CB
:105134009B017A6913437B617B687A695A607B6857
:10514400FA68DA613B685A687B681A647B683A6972
:105154001A6200BF1C37BD465DF8047B704700BF70
:10516400000001400004014080B487B000AFF86043
:10517400B9607A60BB6803F01F03012202FA03F3EB
:105184007B61FB681A6A7B69DB431A40FB681A621D
:10519400FB681A6ABB6803F01F03796801FA03F31A
:1051A4001A43FB681A6200BF1C37BD465DF8047BD6
:1051B400704780B483B000AF786000BF0C37BD4641
:1051C4005DF8047B704780B483B000AF786000BFA3
:1051D4000C37BD465DF8047B70470000DFF834D01F
:1051E4000D480E490E4A002302E0D458C45004333B
:1051F400C4188C42F9D30B4A0B4C002301E0136012
:105204000432A242FBD3FCF745FC00F011F8FBF793
:10521400CBFB70470000022000000020900000201B
:105224002C5400089000002054020020FEE70000E7
:1052340070B50D4E0D4CA41BA4100025A54209D138
:105244000B4E0C4C00F078F8A41BA4100025A542CA
:1052540005D170BD56F8253098470135EEE756F86C
:10526400253098470135F2E72454000824540008F7
:105274002454000828540008931E222B10B50C4611
:1052840004D900230B701C46204610BD0A2A09D1FC
:10529400002807DA2D230B7040420121214400F03D
:1052A4000DF8F1E70021F9E7FFF7E6BF02440346F2
:1052B400934200D1704703F8011BF9E7F0B51D4B89
:1052C4008BB005460C466E4603F1200C18685968ED
:1052D400374603C7083363453E46F7D118681B7940
:1052E4003B71931E222B38604FF0000304D92370C6
:1052F4001C4620460BB0F0BD661EB5FBF2F00AAFAB
:1053040002FB10553D44591C15F8285C06F8015F52
:10531400054668B9605423442246191B101B814278
:10532400E7DD1178187802F8010B03F80119F4E7A6
:105334000B46E2E7F4530008F8B500BFF8BC08BC1C
:105344009E467047F8B500BFF8BC08BC9E4670473F
:10535400202000003A00000030000000466F6F6417
:105364002064697370656E6572000000666565642B
:10537400000000002D3E000073657474696E67734D
:1053840000000000737065656400000074696D6559
:1053940000000000616C61726D7300006261636BF8
:1053A4000000000073706565643A0000312E4131DD
:1053B40000000000322E413200000000332E413341
:1053C4000000000020202020000000007365727699
:1053D400696E672E2E2E0000000000000000000001
:1053E4000102030406070809000000000102030487
:1053F4003031323334353637383961626364656647
:105404006768696A6B6C6D6E6F70717273747576B0
:085414007778797A00000000AE
:08541C0018AEFF7F0100000043
:04542400E901000892
:04542800C5010008B2
:10542C00010002000100000001000800010006005C
:10543C00000002000000000001000200010000005A
:10544C0000000A000000080001000A00010008002A
:10545C00000002000000000001000200010000003A
:10546C0000000A0000000800000003000000040017
:10547C000000030000000A00000006000000050008
:10548C0000000700000009000000080004000000F4
:10549C00320000000100000032000000AA000000F1
:1054AC00C80000000024F4001000000001000000FF
:04000005080051E1BD
:00000001FF
