:020000040800F2
:10000000000002209D390008ED390008ED39000894
:10001000ED390008ED390008ED3900080000000056
:10002000000000000000000000000000ED390008A2
:10003000ED39000800000000ED3900080505000852
:10004000ED390008ED390008ED390008ED390008F8
:10005000ED390008ED390008ED390008ED390008E8
:10006000110500081F050008ED390008ED390008EA
:10007000ED390008ED390008ED390008ED390008C8
:10008000ED390008ED390008ED390008ED390008B8
:10009000ED390008ED390008ED390008ED390008A8
:1000A000ED390008ED390008ED390008ED39000898
:1000B000ED390008ED390008ED390008ED39000888
:1000C000ED390008ED390008ED390008ED39000878
:1000D000ED390008ED390008ED390008ED39000868
:1000E0002D050008ED390008ED390008ED3900084C
:1000F000ED390008ED390008ED390008ED39000848
:10010000ED390008ED390008ED390008ED39000837
:10011000ED390008ED3900083D050008ED3900080B
:10012000ED390008ED390008ED390008ED39000817
:10013000ED3900080000000000000000ED39000863
:10014000ED390008ED390008ED390008ED390008F7
:10015000ED390008ED390008ED390008ED390008E7
:10016000ED390008ED390008ED390008ED390008D7
:10017000ED390008ED390008ED39000800000000F5
:1001800000000000ED390008000000000000000041
:10019000ED3900080000000000000000ED39000803
:1001A000000000000000000000000000ED39000821
:1001B000ED390008ED390008ED390008ED39000887
:0401C000ED3900080D
:1001C40010B5054C237833B9044B13B10448AFF38D
:1001D40000800123237010BD4400002000000000B3
:1001E400F83A000808B5034B1BB103490348AFF3C1
:1001F400008008BD0000000048000020F83A000814
:1002040053B94AB9002908BF00281CBF4FF0FF3179
:100214004FF0FF3000F072B9ADF1080C6DE904CE77
:1002240000F006F8DDF804E0DDE9022304B07047CD
:100234002DE9F047089E04468846002B4BD18A429C
:10024400154667D9B2FA82F24AB1C2F1200701FA1F
:1002540002F320FA07F7954047EA030894404FEA6F
:10026400154E230CB8FBFEF71FFA85FC0EFB17880E
:1002740043EA084307FB0CF1994209D9EB1807F14B
:10028400FF3080F01B81994240F21881023F2B44D9
:100294005B1AA4B2B3FBFEF00EFB103344EA034432
:1002A40000FB0CFCA44509D92C1900F1FF3380F0A4
:1002B4000781A44540F2048102382C4440EA0740F7
:1002C400A4EB0C0400271EB1D4400023C6E900436C
:1002D4003946BDE8F0878B4209D9002E00F0EB8047
:1002E4000027C6E9000138463946BDE8F087B3FA6D
:1002F40083F7002F47D18B4202D3824200F2FA8067
:10030400841A61EB030301209846002EE0D0C6E96D
:100314000048DDE702B9FFDEB2FA82F2002A40F0BB
:100324008F80491B4FEA154E1FFA85F80127B1FB50
:10033400FEFC230C0EFB1C1143EA014308FB0CF1E9
:10034400994207D9EB180CF1FF3002D2994200F21E
:10035400CD808446591AA3B2B1FBFEF00EFB1014F3
:1003640043EA044408FB00F8A04507D92C1900F11E
:10037400FF3302D2A04500F2B6801846A4EB08046D
:1003840040EA0C409FE7C7F1200CBB4022FA0CFE68
:100394004EEA030E01FA07F420FA0CF521FA0CF3E5
:1003A4004FEA1E482543B3FBF8F92C0C08FB19331C
:1003B4001FFA8EFA44EA034309FB0AF49C4202FA48
:1003C40007F200FA07F10BD91EEB030309F1FF3022
:1003D40080F087809C4240F28480A9F10209734432
:1003E4001B1BADB2B3FBF8F008FB103345EA034422
:1003F40000FB0AFAA24508D91EEB040400F1FF33FE
:100404006BD2A24569D90238744440EA0940A0FB82
:100414000289A4EB0A044C45C2464B4654D351D03E
:10042400002E69D0B1EB0A0564EB030404FA0CFC5A
:10043400FD40FC404CEA0505C6E90054002747E7A7
:10044400C2F1200320FA03F7954001FA02F021FAE1
:1004540003F34FEA154E3843010CB3FBFEF71FFAC2
:1004640085F80EFB173341EA034107FB08F38B427F
:1004740004FA02F407D9691807F1FF3C2FD28B4222
:100484002DD9023F2944CB1A81B2B3FBFEF00EFBF7
:10049400103341EA034100FB08F38B4207D9691882
:1004A40000F1FF3C17D28B4215D902382944C91AEE
:1004B40040EA07473BE73746304609E70746E7E6A1
:1004C4001846FBE64145ABD2B8EB020A69EB0E02D3
:1004D40001381346A4E76046E9E7184695E76746FE
:1004E400D1E781467CE702382C4447E7ACF1020CA3
:1004F4002B442FE7384608E73746E9E6704700BF44
:1005040080B500AF00F0ECFE00BF80BD80B500AF49
:10051400042001F013FA00BF80BD80B500AF0820AD
:1005240001F00CFA00BF80BD80B500AF4FF48060CD
:1005340001F004FA00BF80BD80B500AF024802F0AC
:10054400B3FD00BF80BD00BF0001002080B586B0B0
:1005540002AF0346FB71FB7923F00F03FB73FB79B6
:100564001B01BB73FB7B43F00C03DBB23B72FB7BD5
:1005740043F00803DBB27B72BB7B43F00C03DBB2BA
:10058400BB72BB7B43F00803DBB2FB7207F10802CA
:100594006423009304234E21034801F01FFB00BF92
:1005A4001037BD4680BD00BFAC00002080B586B0CA
:1005B40002AF0346FB71FB7923F00F03FB73FB7956
:1005C4001B01BB73FB7B43F00D03DBB23B72FB7B74
:1005D40043F00903DBB27B72BB7B43F00D03DBB258
:1005E400BB72BB7B43F00903DBB2FB7207F1080269
:1005F4006423009304234E21034801F0EFFA00BF63
:100604001037BD4680BD00BFAC00002080B582B06D
:1006140000AF8020FFF79AFF00237B6005E02020D5
:10062400FFF7C4FF7B6801337B607B68452BF6DDF5
:1006340000BF0837BD4680BD80B582B000AF78608A
:1006440039607B68002B02D0012B05D009E03B68A0
:1006540043F080033B6004E03B6843F0C0033B602D
:1006640000BF3B68DBB21846FFF770FF00BF0837D6
:10067400BD4680BD80B500AF322000F051FE302071
:10068400FFF764FF052000F04BFE3020FFF75EFF0C
:10069400012000F045FE3020FFF758FF0A2000F04B
:1006A4003FFE2020FFF752FF0A2000F039FE2820E9
:1006B400FFF74CFF012000F033FE0820FFF746FF50
:1006C400012000F02DFE0120FFF740FF012000F083
:1006D40027FE012000F024FE0620FFF737FF01204B
:1006E40000F01EFE0C20FFF731FF00BF80BD80B577
:1006F40082B000AF786006E07B685A1C7A601B7891
:100704001846FFF753FF7B681B78002BF4D100BF1A
:100714000837BD4680BD80B584B000AFF860B960CD
:100724007A607968B868FFF787FFF868FFF7DFFF3A
:1007340000BF1037BD4680BD80B584B000AFF860FF
:10074400B9607A60FFF762FF7968B868FFF774FFF1
:10075400F868FFF7CCFF00BF1037BD4680BD80B5F9
:1007640000AF082000F025FF092000F022FF282018
:1007740000F01FFF00BF80BD80B500AF082000F06F
:100784000AFF092000F007FF282000F004FF00BF43
:1007940080BD000080B582B000AF00237B60154BA4
:1007A4001B6C144A43F010031364124B1B6C03F0CC
:1007B40010037B607B68104B104A1A600E4B50226A
:1007C4005A600D4B41F65732DA600B4802F052FA88
:1007D4000346002B01D000F05FF90F2200213620E0
:1007E40000F0BDFE362000F0D6FE00BF0837BD463F
:1007F40080BD00BF0038024000010020001000400E
:1008040080B582B000AF7860164B1B88B3F5806F5B
:1008140011D1144B1B881946134801F077F803468D
:10082400002B19D1114B01221A70114802F0ECFA75
:10083400FFF7A2FF10E00B4B1B8819460D4801F08F
:1008440065F80346002B07D1084B01221A700848AB
:1008540002F0DAFAFFF790FFFFF78EFF00BF0837C8
:10086400BD4680BD48010020000002406000002019
:10087400000100200004024080B500AF00F0DEFC5F
:1008840000F018F800F0A6F800F076F8FFF782FF01
:10089400FFF7F0FE0121054800F02EFC00220021A4
:1008A4000348FFF749FF00F0F1FAFCE700000240BB
:1008B400103B000880B594B000AF07F11C0334224C
:1008C4000021184603F0D0F807F1080300221A604B
:1008D4005A609A60DA601A6100237B60244B1B6CB7
:1008E400234A43F080531364214B1B6C03F0805361
:1008F4007B607B6800233B601E4B1B6823F44043F2
:100904001C4A43F4804313601A4B1B6803F44043AE
:100914003B603B680223FB610123BB621023FB6243
:1009240000237B6307F11C03184601F005FF03460F
:10093400002B01D000F0B0F80F23BB600023FB6054
:1009440000233B614FF4A0537B614FF48053BB61A0
:1009540007F108030021184601F048FC0346002B68
:1009640001D000F099F800BF5037BD4680BD00BFEC
:10097400003802400070004080B500AF124B134AAB
:100984001A60114B124A5A600F4B00229A600E4BA8
:100994000022DA600C4B4FF480421A610A4B0022A9
:1009A4005A61094B00229A61074B0022DA61064B17
:1009B40000221A62044800F0D9FF0346002B01D03C
:1009C40000F06AF800BF80BDAC0000200054004075
:1009D400A086010080B588B000AF07F10C030022A7
:1009E4001A605A609A60DA601A610023BB60264B71
:1009F4001B6B254A43F001031363234B1B6B03F06A
:100A04000103BB60BB6800237B601F4B1B6B1E4A4A
:100A140043F0020313631C4B1B6B03F002037B6064
:100A24007B684FF48063FB60184B3B6101237B615F
:100A34000023BB6107F10C031946154800F0D4FDEF
:100A44000C23FB6007F10C031946124800F0CCFD9F
:100A54000F220021082000F082FD082000F09BFDF9
:100A64000F220021092000F07AFD092000F093FDF7
:100A74000F220021282000F072FD282000F08BFDB9
:100A840000BF2037BD4680BD003802400000211061
:100A9400000002400004024080B400AF72B6FEE7DA
:100AA40080B500AFFFF7B2FD002200210448FFF734
:100AB40032FE002201210348FFF72DFE00BF80BD56
:100AC400203B00082C3B000880B500AFFFF79EFDDB
:100AD400022200210748FFF71EFE022201210648D8
:100AE400FFF719FE0B2200210448FFF714FE00BF94
:100AF40080BD00BF403B0008483B0008503B000855
:100B040080B500AFFFF782FD002200210248FFF705
:100B140002FE00BF80BD00BF583B000880B500AF97
:100B2400FFF774FD002200210248FFF7F4FD00BF27
:100B340080BD00BF643B000880B582B000AFFFF702
:100B4400DFFF2B4B1B68391D0A22184602F08AFF6F
:100B54003B1D082200211846FFF7DDFD254B00222E
:100B64001A7000BF234B1B78002BFBD0224B1B6851
:100B7400082B05D0B3F5806F30D0042B17D033E0A9
:100B84001B4B1B68082B2CDC194B1B680133184AC0
:100B94001360174B1B68391D0A22184602F062FFC6
:100BA4003B1D082200211846FFF7B5FD19E0104B44
:100BB4001B68012B17DD0E4B1B68013B0C4A1360AD
:100BC4000B4B1B68391D0A22184602F04BFF3B1DD4
:100BD400082200211846FFF79EFD04E000F056F9B4
:100BE40002E000BF00E000BF024B00221A70B8E729
:100BF40030000020600000202C00002080B582B06E
:100C040000AFFFF78BFF2E4B1B68391D0A221846D5
:100C140002F028FF3B1D072200211846FFF77BFD49
:100C2400284B00221A7000BF264B1B78002BFBD0E8
:100C3400254B1B68082B05D0B3F5806F35D0042BEA
:100C44001AD038E01E4B1B68B3F5FA6F30DA1C4B30
:100C54001B6864331A4A1360194B1B68391D0A2236
:100C6400184602F0FFFEFFF759FF3B1D0722002143
:100C74001846FFF750FD1EE0114B1B68C82B19DD09
:100C84000F4B1B68643B0E4A13600D4B1B68391DE8
:100C94000A22184602F0E6FEFFF740FF3B1D07223A
:100CA40000211846FFF737FD05E000F0EFF802E0F9
:100CB40000BF00E000BF034B00221A70B3E700BF7F
:100CC40034000020600000202C00002080B500AF1C
:100CD400FFF7FAFE684B02221A60674B1B68674AEB
:100CE40052F83310644B1B68644ADB0013445B689E
:100CF4001A466348FFF70FFD624B00221A7000BFCB
:100D0400604B1B78002BFBD05F4B1B68082B62D019
:100D1400B3F5806F02D0042B13D0A8E0564B1B68A8
:100D2400012B07D0022B02D0002B06D008E0FFF7DE
:100D340003FF05E0FFF762FF02E000F0A7F800BF41
:100D440095E04D4B1B68002B40F38E804A4B1B688B
:100D5400013B494A1360484B1B68012B16D0022BF8
:100D640026D0002B00D035E0FFF7AEFE424B1B68C7
:100D7400424A52F83310404B1B68404ADB0013448C
:100D84005B681A463E48FFF7C6FC23E0FFF79CFE6B
:100D9400394B1B68394A52F83310374B1B68374AB2
:100DA400DB0013445B681A463548FFF7B4FC11E0D6
:100DB400FFF78AFE304B1B68304A52F833102E4B33
:100DC4001B682E4ADB0013445B681A462C48FFF765
:100DD400A2FC00BF48E0284B1B68012B46DC264BD5
:100DE4001B680133244A1360234B1B68012B16D064
:100DF400022B26D0002B00D035E0FFF765FE1E4BFA
:100E04001B681E4A52F833101B4B1B681B4ADB003D
:100E140013445B681A461A48FFF77DFC23E0FFF78A
:100E240053FE154B1B68154A52F83310124B1B68BE
:100E3400124ADB0013445B681A461148FFF76BFC47
:100E440011E0FFF741FE0C4B1B680C4A52F83310BB
:100E5400094B1B68094ADB0013445B681A460848BF
:100E6400FFF759FC00BF01E000BF00E000BF054BE5
:100E740000221A7043E700BF280000200000002071
:100E8400743B0008600000202C00002080B500AFF7
:100E9400FFF706FE2F4B03221A602E4B1B682E4AC7
:100EA40052F833102B4B1B682B4ADB0013445B684E
:100EB4001A462A48FFF72FFC294B00221A7000BF5C
:100EC400274B1B78002BFBD0264B1B68082B28D004
:100ED400B3F5806F02D0042B0ED037E01D4B1B6896
:100EE400032B02D0042B03D005E000F03DF802E010
:100EF400FFF7ECFE00BF29E0164B04221A60FFF74F
:100F0400CFFD144B1B68144A52F83310114B1B6865
:100F1400114ADB0013445B681A461048FFF7FBFBD9
:100F240014E00C4B03221A60FFF7BAFD094B1B684F
:100F3400094A52F83310074B1B68074ADB00134475
:100F44005B681A460548FFF7E6FB00BF044B002226
:100F54001A70B4E72800002000000020743B000849
:100F6400600000202C00002080B582B000AF002279
:100F740001210F48FFF7E0FB00237B6008E0B42069
:100F840000F01CF9002000F019F97B6801337B6044
:100F9400084B1B687A689A42F1DBFFF781FD002257
:100FA40001210548FFF7B7FB00BF0837BD4680BDE8
:100FB400783B000830000020743B000880B582B004
:100FC40000AF0346FB80114801F0AEFEFFF7C7FBFC
:100FD4000F4AFB881380FB88082B0AD0B3F5806F77
:100FE40002D0042B09D00CE00A4B4FF480621A6043
:100FF40007E0084B08221A6003E0064B04221A603B
:1010040000BF00BF0837BD4680BD00BF00010020FF
:10101400480100202C00002080B582B000AF0023DE
:101024007B60104B5B6C0F4A43F4804353640D4B5D
:101034005B6C03F480437B607B6800233B60094B5B
:101044001B6C084A43F080531364064B1B6C03F07B
:1010540080533B603B68072000F076FA00BF0837F6
:10106400BD4680BD0038024080B58AB000AF7860CC
:1010740007F1140300221A605A609A60DA601A6158
:101084007B681B68194A93422BD100233B61184BA0
:101094001B6B174A43F002031363154B1B6B03F0DE
:1010A40002033B613B69C0237B611223BB610123C3
:1010B400FB6103233B6204237B6207F1140319469B
:1010C4000C4800F091FA0023FB60094B1B6C084AA2
:1010D40043F400131364064B1B6C03F40013FB600E
:1010E400FB6800BF2837BD4680BD00BF00540040E8
:1010F400003802400004024080B590B000AF786030
:101104000B467B800023FB60294B1B6C284A43F071
:1011140001031364264B1B6C03F00103FB60FB68A3
:101124000023BB60224B1B6B214A43F00103136372
:101134001F4B1B6B03F00103BB60BB687B88FB6226
:1011440002233B630123FB6307F12C03194619486F
:1011540000F04AFA184B4FF080421A60164B4F22A7
:101164005A60154B4FF4FA62DA60134801F07BFEC3
:101174000346002B01D000F04BF860233B610023B1
:10118400BB6100237B6107F11003002219460A4862
:1011940002F092F80346002B01D000F039F8002148
:1011A400054801F0B9FE00BF4037BD4680BD00BF11
:1011B40000380240000002406400002080B582B084
:1011C40000AF0346FB71FB79002B02D0B42B0AD08D
:1011D40013E00D4B1B68C8225A630C4B1B6818465E
:1011E40000F09EF80CE0084B1B6832225A63074B50
:1011F4001B68184600F094F802E000F009F800BFFC
:1012040000BF0837BD4680BD6400002034000020C4
:1012140080B400AF72B6FEE780B400AF064BD3F8DB
:101224008830054A43F47003C2F8883000BFBD46D5
:101234005DF8047B704700BF00ED00E080B500AFAF
:101244000E4B1B680D4A43F4007313600B4B1B6871
:101254000A4A43F480631360084B1B68074A43F44B
:1012640080731360032000F06FF9002000F008F889
:10127400FFF7D2FE0023184680BD00BF003C0240A9
:1012840080B582B000AF7860124B1A68124B1B789D
:1012940019464FF47A73B3FBF1F3B2FBF3F3184638
:1012A40000F095F90346002B01D001230EE07B6882
:1012B4000F2B0AD8002279684FF0FF3000F04FF965
:1012C400064A7B681360002300E0012318460837B0
:1012D400BD4680BD38000020400000203C000020B6
:1012E40080B400AF064B1B781A46064B1B681344A8
:1012F400044A136000BFBD465DF8047B704700BF1D
:10130400400000204C01002080B400AF034B1B6858
:101314001846BD465DF8047B704700BF4C010020B1
:1013240080B584B000AF7860FFF7EEFFB8607B68EB
:10133400FB60FB68B3F1FF3F05D0094B1B781A46ED
:10134400FB681344FB6000BFFFF7DEFF0246BB6887
:10135400D31AFA689A42F7D800BF1037BD4680BD49
:101364004000002080B485B000AF78607B6803F053
:101374000703FB600C4BDB68BB60BA684FF6FF03E6
:101384001340BB60FB681A02BB68134343F0BF639E
:1013940043F40033BB60044ABB68D36000BF143716
:1013A400BD465DF8047B704700ED00E080B400AFFB
:1013B400044BDB681B0A03F007031846BD465DF8BF
:1013C400047B704700ED00E080B483B000AF0346B7
:1013D400FB7197F90730002B0BDBFB7903F01F023D
:1013E400074997F907305B09012000FA02F241F836
:1013F400232000BF0C37BD465DF8047B704700BF57
:1014040000E100E080B483B000AF0346FB7197F9BC
:101414000730002B10DBFB7903F01F02094997F911
:1014240007305B09012000FA02F2203341F823203F
:10143400BFF34F8FBFF36F8F00BF0C37BD465DF80E
:10144400047B704700E100E080B483B000AF034642
:101454003960FB7197F90730002B0ADB3B68DAB27D
:101464000C4997F907301201D2B20B4483F80023D8
:101474000AE03B68DAB20849FB7903F00F03043B46
:101484001201D2B20B441A7600BF0C37BD465DF888
:10149400047B704700E100E000ED00E080B489B017
:1014A40000AFF860B9607A60FB6803F00703FB6182
:1014B400FB69C3F10703042B28BF0423BB61FB6949
:1014C4000433062B02D9FB69033B00E000237B6154
:1014D4004FF0FF32BB6902FA03F3DA43BB681A40E8
:1014E4007B699A404FF0FF317B6901FA03F3D943DA
:1014F4007B680B40134318462437BD465DF8047BD4
:101504007047000080B582B000AF78607B68013B13
:10151400B3F1807F01D301230FE00A4A7B68013BCA
:1015240053600F214FF0FF30FFF78EFF054B002271
:101534009A60044B07221A60002318460837BD46F8
:1015440080BD00BF10E000E080B582B000AF7860DD
:101554007868FFF707FF00BF0837BD4680BD80B538
:1015640086B000AF0346B9607A60FB7300237B61E9
:10157400FFF71CFF78617A68B9687869FFF78EFF16
:10158400024697F90F3011461846FFF75DFF00BF7A
:101594001837BD4680BD80B582B000AF0346FB71ED
:1015A40097F907301846FFF70FFF00BF0837BD460D
:1015B40080BD80B582B000AF0346FB7197F9073058
:1015C4001846FFF71FFF00BF0837BD4680BD80B532
:1015D40082B000AF78607868FFF794FF034618463E
:1015E4000837BD4680BD000080B489B000AF786084
:1015F400396000237B6100233B610023BB6100232E
:10160400FB6165E10122FB6902FA03F37B613B683C
:101614001B687A6913403B613A697B699A4240F0DE
:1016240054813B685B6803F00303012B05D03B68DE
:101634005B6803F00303022B30D17B689B68BB61BA
:10164400FB695B00032202FA03F3DB43BA6913402C
:10165400BB613B68DA68FB695B0002FA03F3BA69B1
:101664001343BB617B68BA699A607B685B68BB6142
:101674000122FB6902FA03F3DB43BA691340BB613D
:101684003B685B681B0903F00102FB6902FA03F380
:10169400BA691343BB617B68BA695A603B685B688B
:1016A40003F00303032B17D07B68DB68BB61FB6982
:1016B4005B00032202FA03F3DB43BA691340BB6104
:1016C4003B689A68FB695B0002FA03F3BA69134347
:1016D400BB617B68BA69DA603B685B6803F003034B
:1016E400022B23D1FB69DA087B68083253F82230D5
:1016F400BB61FB6903F007039B000F2202FA03F3AB
:10170400DB43BA691340BB613B681A69FB6903F0A8
:1017140007039B0002FA03F3BA691343BB61FB6935
:10172400DA087B680832B96943F822107B681B68C1
:10173400BB61FB695B00032202FA03F3DB43BA6972
:101744001340BB613B685B6803F00302FB695B0009
:1017540002FA03F3BA691343BB617B68BA691A607E
:101764003B685B6803F08053002B00F0AE800023DD
:10177400FB605C4B5B6C5B4A43F480435364594BA2
:101784005B6C03F48043FB60FB68574AFB699B086E
:10179400023352F82330BB61FB6903F003039B005F
:1017A4000F2202FA03F3DB43BA691340BB617B687F
:1017B4004E4A934225D07B684D4A93421FD07B68A2
:1017C4004C4A934219D07B684B4A934213D07B68AE
:1017D4004A4A93420DD07B68494A934207D07B68BA
:1017E400484A934201D106230CE007230AE005236B
:1017F40008E0042306E0032304E0022302E00123BB
:1018040000E00023FA6902F0030292009340BA69EF
:101814001343BB613449FB699B080233BA6941F83D
:101824002320394B1B68BB613B69DB43BA69134016
:10183400BB613B685B6803F48033002B03D0BA6957
:101844003B691343BB61304ABB6913602E4B5B6831
:10185400BB613B69DB43BA691340BB613B685B68AE
:1018640003F40033002B03D0BA693B691343BB6113
:10187400254ABB695360244B9B68BB613B69DB43CE
:10188400BA691340BB613B685B6803F48013002BA7
:1018940003D0BA693B691343BB611B4ABB699360BC
:1018A400194BDB68BB613B69DB43BA691340BB611D
:1018B4003B685B6803F40013002B03D0BA693B69EF
:1018C4001343BB61104ABB69D360FB690133FB61FD
:1018D400FB690F2B7FF696AE00BF2437BD465DF83B
:1018E400047B704700380240003801400000024089
:1018F4000004024000080240000C024000100240B4
:101904000014024000180240003C014080B485B03D
:1019140000AF78600B467B807B681A697B88134034
:10192400002B02D00123FB7301E00023FB73FB7B3C
:1019340018461437BD465DF8047B704780B582B005
:1019440000AF0346FB80084B5A69FB881340002B09
:1019540006D0054AFB885361FB881846FFF72EFB27
:1019640000BF0837BD4680BD003C014080B584B04F
:1019740000AF78607B68002B01D101231FE17B68F5
:1019840093F83D30DBB2002B06D17B68002283F84C
:101994003C207868FFF768FB7B68242283F83D20AD
:1019A4007B681B681A687B681B6822F001021A6056
:1019B4007B681B681A687B681B6842F400421A60E3
:1019C4007B681B681A687B681B6822F400421A60F3
:1019D40000F0FEFCF8607B685B687B4A934207D8A2
:1019E400FB687A4A934294BF01230023DBB206E0EA
:1019F400FB68774A934294BF01230023DBB2002B98
:101A040001D00123DBE0FB68724AA2FB03239B0C99
:101A1400BB607B681B685B6823F03F017B681B68C5
:101A2400BA680A435A607B681B681B6A23F03F014B
:101A34007B685B68644A934202D8BB68013309E05F
:101A4400BB684FF4967202FB03F3634AA2FB0323C1
:101A54009B0901337A6812680B4313627B681B6825
:101A6400DB6923F44F4222F0FF027B685B6856492E
:101A74008B420DD8FB68591E7B685B685B00B1FB29
:101A8400F3F30133C3F30B03042B38BF04234FE0F8
:101A94007B689B68002B11D1FB68581E7B685968D2
:101AA4000B465B000B44B0FBF3F30133C3F30B03AE
:101AB400002B0CBF01230023DBB212E0FB68581E8D
:101AC4007B6859680B469B000B4499000B44B0FBA0
:101AD400F3F30133C3F30B03002B0CBF01230023E7
:101AE400DBB2002B01D0012322E07B689B68002B32
:101AF4000ED1FB68581E7B6859680B465B000B448B
:101B0400B0FBF3F30133C3F30B0343F400430FE0DF
:101B1400FB68581E7B6859680B469B000B44990070
:101B24000B44B0FBF3F30133C3F30B0343F440431F
:101B3400796809681343CB617B681B681B6823F0D1
:101B4400C0017B68DA697B681B6A1A437B681B687F
:101B54000A431A607B681B689B6823F4034323F0E1
:101B6400FF037A6811697A68D26811437A68126847
:101B74000B4393607B681B68DB6823F0FF017B6881
:101B84005A697B689B691A437B681B680A43DA605D
:101B94007B681B681A687B681B6842F001021A6044
:101BA4007B6800221A647B68202283F83D207B68CE
:101BB40000221A637B68002283F83E200023184623
:101BC4001037BD4680BD00BFA08601007F841E0083
:101BD400FF083D0083DE1B43D34D621080B588B0FF
:101BE40002AFF8607A601A460B467B8113463B814C
:101BF400FFF78AFB7861FB6893F83D30DBB2202B5A
:101C040040F0E0807B690093192301227049F86851
:101C140000F064F90346002B01D00223D3E0FB68F3
:101C240093F83C30012B01D10223CCE0FB68012264
:101C340083F83C20FB681B681B6803F00103012B3D
:101C440007D0FB681B681A68FB681B6842F0010236
:101C54001A60FB681B681A68FB681B6822F4006240
:101C64001A60FB68212283F83D20FB68102283F868
:101C74003E20FB6800221A64FB687A685A62FB689B
:101C84003A895A85FB685B8D9AB2FB681A85FB68B2
:101C9400504ADA6279897B693A6AF86800F09CF8FC
:101CA4000346002B01D001238DE000233B61FB6838
:101CB4001B685B693B61FB681B689B693B613B6913
:101CC40066E07A69396AF86800F0DEF90346002BA9
:101CD4000DD0FB681B6C042B07D1FB681B681A68CA
:101CE400FB681B6842F400721A6001236BE0FB6816
:101CF4005B6A1A78FB681B681A61FB685B6A5A1C8A
:101D0400FB685A62FB685B8D9BB2013B9AB2FB682D
:101D14005A85FB681B8D013B9AB2FB681A85FB68E8
:101D24001B685B6903F00403042B1BD1FB681B8D48
:101D3400002B17D0FB685B6A1A78FB681B681A6172
:101D4400FB685B6A5A1CFB685A62FB685B8D9BB23A
:101D5400013B9AB2FB685A85FB681B8D013B9AB222
:101D6400FB681A857A69396AF86800F0CEF9034687
:101D7400002B0DD0FB681B6C042B07D1FB681B6880
:101D84001A68FB681B6842F400721A6001231AE0A7
:101D9400FB681B8D002B94D1FB681B681A68FB68D9
:101DA4001B6842F400721A60FB68202283F83D200D
:101DB400FB68002283F83E20FB68002283F83C2065
:101DC400002300E0022318461837BD4680BD00BF3B
:101DD400020010000000FFFF80B588B002AFF86079
:101DE4007A603B600B467B81FB68DB6A7B617B69C5
:101DF400082B06D07B69012B03D07B6913F5803F48
:101E040008D1FB681B681A68FB681B6842F480727F
:101E14001A600BE0FB681B6B122B07D1FB681B6875
:101E24001A68FB681B6842F480721A603B6800936E
:101E34007B6800224FF00111F86800F04FF8034668
:101E4400002B0DD0FB681B681B6803F48073B3F58B
:101E5400807F03D1FB684FF400721A64032335E0DA
:101E6400FB681B69B3F5804F08D17B89DBB21A4646
:101E7400FB681B6802F0FE021A611BE07B89DB1120
:101E8400DBB203F00603DBB263F00F03DAB2FB68E4
:101E94001B681A613B687A680E49F86800F075F8A7
:101EA4000346002B01D0012310E07B89DAB2FB68E2
:101EB4001B681A613B687A680749F86800F065F89E
:101EC4000346002B01D0012300E0002318461837F5
:101ED400BD4680BD080001000200010080B584B049
:101EE40000AFF860B9603B601346FB7125E03B68C6
:101EF400B3F1FF3F21D0FFF707FA0246BB69D31ABB
:101F04003A689A4202D33B68002B16D1FB68002240
:101F14001A63FB68202283F83D20FB68002283F8C3
:101F24003E20FB681B6C43F02002FB681A64FB68CC
:101F3400002283F83C20012323E0BB681B0CDBB2A6
:101F4400012B0DD1FB681B685B69DA43BB68134046
:101F54009BB2002B0CBF01230023DBB21A460CE01A
:101F6400FB681B689B69DA43BB6813409BB2002B78
:101F74000CBF01230023DBB21A46FB799A42B6D088
:101F8400002318461037BD4680BD80B584B000AF2D
:101F9400F860B9607A603B6051E0FB681B685B697C
:101FA40003F48063B3F5806F23D1FB681B681A6860
:101FB400FB681B6842F400721A60FB681B686FF4CC
:101FC40080625A61FB6800221A63FB68202283F84E
:101FD4003D20FB68002283F83E20FB681B6C43F025
:101FE4000402FB681A64FB68002283F83C20012386
:101FF40046E07B68B3F1FF3F21D0FFF785F9024645
:102004003B68D31A7A689A4202D37B68002B16D1B4
:10201400FB6800221A63FB68202283F83D20FB68DA
:10202400002283F83E20FB681B6C43F02002FB680F
:102034001A64FB68002283F83C20012320E0BB687B
:102044001B0CDBB2012B0CD1FB681B685B69DA4308
:10205400BB6813409BB2002B14BF01230023DBB2E7
:102064000BE0FB681B689B69DA43BB6813409BB2B7
:10207400002B14BF01230023DBB2002B8DD10023DE
:1020840018461037BD4680BD80B584B000AFF860F7
:10209400B9607A602DE0F86800F078F80346002B08
:1020A40001D001232DE0BB68B3F1FF3F21D0FFF73E
:1020B4002BF902467B68D31ABA689A4202D3BB68EA
:1020C400002B16D1FB6800221A63FB68202283F8D8
:1020D4003D20FB68002283F83E20FB681B6C43F024
:1020E4002002FB681A64FB68002283F83C20012369
:1020F40007E0FB681B685B6903F08003802BCAD18F
:10210400002318461037BD4680BD80B584B000AFAB
:10211400F860B9607A602DE0F86800F037F803469B
:10212400002B01D001232DE0BB68B3F1FF3F21D088
:10213400FFF7EAF802467B68D31ABA689A4202D3D8
:10214400BB68002B16D1FB6800221A63FB682022AF
:1021540083F83D20FB68002283F83E20FB681B6C5B
:1021640043F02002FB681A64FB68002283F83C20D9
:10217400012307E0FB681B685B6903F00403042B7D
:10218400CAD1002318461037BD4680BD80B483B041
:1021940000AF78607B681B685B6903F48063B3F508
:1021A400806F1BD17B681B686FF480625A617B6807
:1021B40000221A637B68202283F83D207B6800227A
:1021C40083F83E207B681B6C43F004027B681A642E
:1021D4007B68002283F83C20012300E0002318469A
:1021E4000C37BD465DF8047B7047000080B584B0B1
:1021F40000AF786039607B68002B01D10123CCE00B
:10220400684B1B6803F00F033A689A420CD9654B7C
:102214003A68D2B21A70634B1B6803F00F033A6832
:102224009A4201D00123B8E07B681B6803F00203E3
:10223400002B20D07B681B6803F00403002B05D01F
:10224400594B9B68584A43F4E05393607B681B687E
:1022540003F00803002B05D0534B9B68524A43F408
:1022640060439360504B9B6823F0F0027B689B684B
:102274004D4913438B607B681B6803F00103002BFB
:1022840044D07B685B68012B07D1474B1B6803F480
:102294000033002B19D101237FE07B685B68022B9C
:1022A40003D07B685B68032B07D13F4B1B6803F0AB
:1022B4000073002B09D101236FE03B4B1B6803F033
:1022C4000203002B01D1012367E0374B9B6823F005
:1022D40003027B685B68344913438B60FFF714F88F
:1022E400F8600AE0FFF710F80246FB68D31A41F2DF
:1022F4008832934201D903234FE02B4B9B6803F0B0
:102304000C027B685B689B009A42EBD1254B1B68EF
:1023140003F00F033A689A420CD2224B3A68D2B2C5
:102324001A70204B1B6803F00F033A689A4201D0DD
:10233400012332E07B681B6803F00403002B08D000
:10234400194B9B6823F4E0527B68DB6816491343FE
:102354008B607B681B6803F00803002B09D0124BC9
:102364009B6823F460427B681B69DB000E491343BE
:102374008B6000F041F801460B4B9B681B0903F08E
:102384000F030A4AD35C21FA03F3094A1360094B89
:102394001B681846FEF774FF002318461037BD4625
:1023A40080BD00BF003C024000380240843B00086E
:1023B400380000203C00002080B400AF034B1B68B1
:1023C4001846BD465DF8047B704700BF3800002006
:1023D40080B500AFFFF7F0FF0146054B9B689B0AF1
:1023E40003F00703034AD35C21FA03F3184680BDC4
:1023F40000380240943B0008F0B587B000AF0023DA
:10240400FB6000237B610023BB6000237B6000230F
:102414003B61C64B9B6803F00C030C2B00F27E81DE
:1024240001A252F823F000BF61240008212700080C
:102434002127000821270008672400082127000815
:1024440021270008212700086D24000821270008FF
:102454002127000821270008C9250008B44B3B6147
:102464005FE1B44B3B615CE1B04B5B6803F03F035D
:10247400FB60AE4B5B6803F48003002B4AD0AB4B8C
:102484005B689B094FF0000440F2FF114FF000021B
:1024940003EA010504EA0206294632464FF0000326
:1024A4004FF00004540144EAD1644B01194622461A
:1024B400491B62EB06024FF000034FF00004940145
:1024C40044EA91648B015B1A64EB02044FF000014F
:1024D4004FF00002E20042EA5372D9000B46144660
:1024E4005B1944EB06044FF000014FF00002620256
:1024F40042EAD35259020B46144618462146FB6859
:102504004FF000041A462346FDF77AFE03460C46B4
:102514007B6149E0854B5B689B094FF0000440F206
:10252400FF114FF0000203EA010504EA02062946FE
:1025340032464FF000034FF00004540144EAD164E2
:102544004B0119462246491B62EB06024FF0000379
:102554004FF00004940144EA91648B015B1A64EB2C
:1025640002044FF000014FF00002E20042EA53720D
:10257400D9000B4614465B1944EB06044FF00001E6
:102584004FF00002A20242EA935299020B4614460B
:1025940018462146FB684FF000041A462346FDF70F
:1025A4002FFE03460C467B61604B5B681B0C03F0FB
:1025B400030301335B00BB607A69BB68B2FBF3F3CE
:1025C4003B61AEE0594B5B6803F03F03FB60574B44
:1025D4005B6803F48003002B4AD0544B5B689B096F
:1025E4004FF0000440F2FF114FF0000203EA01052E
:1025F40004EA0206294632464FF000034FF0000475
:10260400540144EAD1644B0119462246491B62EB4A
:1026140006024FF000034FF00004940144EA916471
:102624008B015B1A64EB02044FF000014FF00002CF
:10263400E20042EA5372D9000B4614465B1944EB9C
:1026440006044FF000014FF00002620242EAD35246
:1026540059020B46144618462146FB684FF0000405
:102664001A462346FDF7CCFD03460C467B6149E040
:102674002E4B5B689B094FF0000440F2FF114FF0B2
:10268400000203EA010504EA0206294632464FF035
:1026940000034FF00004540144EAD1644B0119468D
:1026A4002246491B62EB06024FF000034FF0000480
:1026B400940144EA91648B015B1A64EB02044FF0C9
:1026C40000014FF00002E20042EA5372D9000B46C7
:1026D40014465B1944EB06044FF000014FF000026E
:1026E400A20242EA935299020B4614461846214626
:1026F400FB684FF000041A462346FDF781FD0346AC
:102704000C467B61094B5B681B0F03F007037B607E
:102714007A697B68B2FBF3F33B6102E0044B3B61F3
:1027240000BF3B6918461C37BD46F0BD0038024067
:102734000024F40000127A0080B586B000AF7860FF
:102744007B68002B01D101238DE27B681B6803F0B9
:102754000103002B00F08380944B9B6803F00C036F
:10276400042B19D0914B9B6803F00C03082B06D162
:102774008E4B5B6803F48003B3F5800F0CD08B4B56
:102784009B6803F00C030C2B12D1884B5B6803F499
:102794008003B3F5800F0BD1844B1B6803F4003323
:1027A400002B5BD07B685B68002B57D101235AE276
:1027B4007B685B68B3F5803F06D17C4B1B687B4A22
:1027C40043F4803313601DE07B685B68B3F5A02F8E
:1027D4000CD1764B1B68754A43F480231360734B0A
:1027E4001B68724A43F4803313600BE06F4B1B6821
:1027F4006E4A23F4803313606C4B1B686B4A23F4DA
:10280400802313607B685B68002B13D0FEF77CFD8C
:10281400386108E0FEF778FD02463B69D31A642B61
:1028240001D903231FE2614B1B6803F40033002B1F
:10283400F0D014E0FEF768FD386108E0FEF764FDAF
:1028440002463B69D31A642B01D903230BE2574B8D
:102854001B6803F40033002BF0D100E000BF7B6859
:102864001B6803F00203002B6FD0504B9B6803F0EE
:102874000C03002B17D04D4B9B6803F00C03082B63
:1028840005D14A4B5B6803F48003002B0BD0474B04
:102894009B6803F00C030C2B1CD1444B5B6803F4C2
:1028A4008003002B16D1414B1B6803F00203002B5D
:1028B40005D07B68DB68012B01D00123D3E13B4BBE
:1028C4001B6823F0F8027B681B69DB00374913435C
:1028D4000B603AE07B68DB68002B20D0344B01228C
:1028E4001A60FEF711FD386108E0FEF70DFD02469F
:1028F4003B69D31A022B01D90323B4E12B4B1B6888
:1029040003F00203002BF0D0284B1B6823F0F802DD
:102914007B681B69DB00254913430B6015E0244BDE
:1029240000221A60FEF7F0FC386108E0FEF7ECFCC8
:1029340002463B69D31A022B01D9032393E11B4BB3
:102944001B6803F00203002BF0D17B681B6803F0C3
:102954000803002B36D07B685B69002B16D0154B1F
:1029640001221A60FEF7D0FC386108E0FEF7CCFCC7
:1029740002463B69D31A022B01D9032373E10B4BA3
:102984005B6F03F00203002BF0D01BE0094B002225
:102994001A60FEF7B9FC38610EE0FEF7B5FC02469A
:1029A4003B69D31A022B07D903235CE100380240A8
:1029B40000004742800E47428A4B5B6F03F00203DC
:1029C400002BEAD17B681B6803F00403002B00F0A2
:1029D40097800023FB75834B1B6C03F08053002B03
:1029E4000FD10023BB607F4B1B6C7E4A43F08053A6
:1029F40013647C4B1B6C03F08053BB60BB680123E6
:102A0400FB75794B1B6803F48073002B18D1764B4C
:102A14001B68754A43F480731360FEF775FC3861D4
:102A240008E0FEF771FC02463B69D31A022B01D978
:102A3400032318E16C4B1B6803F48073002BF0D064
:102A44007B689B68012B06D1664B1B6F654A43F07C
:102A5400010313671CE07B689B68052B0CD1614B59
:102A64001B6F604A43F0040313675E4B1B6F5D4AA0
:102A740043F0010313670BE05A4B1B6F594A23F0D1
:102A840001031367574B1B6F564A23F00403136764
:102A94007B689B68002B15D0FEF736FC38610AE092
:102AA400FEF732FC02463B69D31A41F28832934264
:102AB40001D90323D7E04B4B1B6F03F00203002B18
:102AC400EED014E0FEF720FC38610AE0FEF71CFCAF
:102AD40002463B69D31A41F28832934201D9032357
:102AE400C1E0404B1B6F03F00203002BEED1FB7DD2
:102AF400012B05D13B4B1B6C3A4A23F080531364E2
:102B04007B689B69002B00F0AD80364B9B6803F01B
:102B14000C03082B60D07B689B69022B45D1334B97
:102B240000221A60FEF7F0FB386108E0FEF7ECFBC8
:102B340002463B69D31A022B01D9032393E0294BA4
:102B44001B6803F00073002BF0D17B68DA697B68A3
:102B54001B6A1A437B685B6A9B011A437B689B6A06
:102B64005B08013B1B041A437B68DB6A1B061A43A0
:102B74007B681B6B1B071B4913434B601B4B0122D8
:102B84001A60FEF7C1FB386108E0FEF7BDFB0246A0
:102B94003B69D31A022B01D9032364E0114B1B6850
:102BA40003F00073002BF0D05CE0104B00221A609D
:102BB400FEF7AAFB386108E0FEF7A6FB02463B6974
:102BC400D31A022B01D903234DE0064B1B6803F0F3
:102BD4000073002BF0D145E07B689B69012B07D182
:102BE400012340E00038024000700040600047428A
:102BF4001F4B5B68FB607B689B69012B30D0FB68D3
:102C040003F480027B68DB699A4229D1FB6803F0F4
:102C14003F027B681B6A9A4222D1FA6847F6C07366
:102C240013407A68526A9201934219D1FB6803F403
:102C340040327B689B6A5B08013B1B049A420FD1BC
:102C4400FB6803F070627B68DB6A1B069A4207D15B
:102C5400FB6803F0E0427B681B6B1B079A4201D0C0
:102C6400012300E0002318461837BD4680BD00BF8D
:102C74000038024080B582B000AF78607B68002BDA
:102C840001D1012341E07B6893F83D30DBB2002B96
:102C940006D17B68002283F83C20786800F039F87C
:102CA4007B68022283F83D207B681A687B680433C2
:102CB4001946104600F0E6FB7B68012283F84620A3
:102CC4007B68012283F83E207B68012283F83F2041
:102CD4007B68012283F840207B68012283F841202D
:102CE4007B68012283F842207B68012283F8432019
:102CF4007B68012283F844207B68012283F8452005
:102D04007B68012283F83D20002318460837BD461E
:102D140080BD80B483B000AF786000BF0C37BD467F
:102D24005DF8047B7047000080B485B000AF786024
:102D34007B6893F83D30DBB2012B01D001234EE0D8
:102D44007B68022283F83D207B681B68DA687B6815
:102D54001B6842F00102DA607B681B68234A9342D5
:102D640022D07B681B68B3F1804F1DD07B681B6841
:102D74001F4A934218D07B681B681E4A934213D0A3
:102D84007B681B681C4A93420ED07B681B681B4AF5
:102D9400934209D07B681B68194A934204D07B682C
:102DA4001B68184A934211D17B681B689B6803F027
:102DB4000703FB60FB68062B10D07B681B681A684E
:102DC4007B681B6842F001021A6007E07B681B689D
:102DD4001A687B681B6842F001021A6000231846D7
:102DE4001437BD465DF8047B704700BF0000014006
:102DF4000004004000080040000C004000040140B2
:102E0400004001400018004080B483B000AF7860F7
:102E14007B681B68DA687B681B6822F00102DA6051
:102E24007B681B681A6A41F211131340002B0FD1FF
:102E34007B681B681A6A40F244431340002B07D195
:102E44007B681B681A687B681B6822F001021A60A1
:102E54007B68012283F83D20002318460C37BD46C9
:102E64005DF8047B704780B582B000AF78607B6802
:102E7400002B01D1012341E07B6893F83D30DBB2A4
:102E8400002B06D17B68002283F83C20786800F090
:102E940039F87B68022283F83D207B681A687B68D6
:102EA40004331946104600F0EDFA7B68012283F8DA
:102EB40046207B68012283F83E207B68012283F848
:102EC4003F207B68012283F840207B68012283F83D
:102ED40041207B68012283F842207B68012283F829
:102EE40043207B68012283F844207B68012283F815
:102EF40045207B68012283F83D20002318460837CB
:102F0400BD4680BD80B483B000AF786000BF0C378D
:102F1400BD465DF8047B704780B584B000AF78602F
:102F240039603B68002B09D17B6893F83E30DBB2F3
:102F3400012B14BF01230023DBB222E03B68042BE6
:102F440009D17B6893F83F30DBB2012B14BF012316
:102F54000023DBB215E03B68082B09D17B6893F8AA
:102F64004030DBB2012B14BF01230023DBB208E0A5
:102F74007B6893F84130DBB2012B14BF012300239B
:102F8400DBB2002B01D001237CE03B68002B04D191
:102F94007B68022283F83E2013E03B68042B04D1B3
:102FA4007B68022283F83F200BE03B68082B04D1A6
:102FB4007B68022283F8402003E07B68022283F8C6
:102FC40041207B681B6801223968184600F0AAFC7E
:102FD4007B681B682D4A934204D07B681B682C4A8B
:102FE400934201D1012300E00023002B07D07B682A
:102FF4001B685A6C7B681B6842F400425A647B6805
:103004001B68224A934222D07B681B68B3F1804F2D
:103014001DD07B681B681F4A934218D07B681B68CD
:103024001D4A934213D07B681B681C4A93420ED0FE
:103034007B681B68164A934209D07B681B68184A50
:10304400934204D07B681B68164A934211D17B6873
:103054001B689B6803F00703FB60FB68062B10D01A
:103064007B681B681A687B681B6842F001021A605F
:1030740007E07B681B681A687B681B6842F00102E2
:103084001A60002318461037BD4680BD0000014079
:10309400000401400004004000080040000C00400F
:1030A400004001400018004080B582B000AF786055
:1030B4007B681B681B6903F00203022B22D17B6827
:1030C4001B68DB6803F00203022B1BD17B681B68BF
:1030D4006FF002021A617B6801221A777B681B6811
:1030E4009B6903F00303002B03D0786800F0ACF96C
:1030F40005E0786800F09EF9786800F0AFF97B6825
:1031040000221A777B681B681B6903F00403042BF5
:1031140022D17B681B68DB6803F00403042B1BD1FA
:103124007B681B686FF004021A617B6802221A77BD
:103134007B681B689B6903F44073002B03D0786899
:1031440000F082F905E0786800F074F9786800F01E
:1031540085F97B6800221A777B681B681B6903F07A
:103164000803082B22D17B681B68DB6803F0080383
:10317400082B1BD17B681B686FF008021A617B68FF
:1031840004221A777B681B68DB6903F00303002BB6
:1031940003D0786800F058F905E0786800F04AF93F
:1031A400786800F05BF97B6800221A777B681B68FB
:1031B4001B6903F01003102B22D17B681B68DB68AA
:1031C40003F01003102B1BD17B681B686FF01002F7
:1031D4001A617B6808221A777B681B68DB6903F431
:1031E4004073002B03D0786800F02EF905E078686E
:1031F40000F020F9786800F031F97B6800221A7732
:103204007B681B681B6903F00103012B0ED17B68EB
:103214001B68DB6803F00103012B07D17B681B6883
:103224006FF001021A617868FDF7EAFA7B681B689F
:103234001B6903F08003802B0ED17B681B68DB685D
:1032440003F08003802B07D17B681B686FF080023A
:103254001A61786800F095FB7B681B681B6903F0B2
:103264004003402B0ED17B681B68DB6803F04003EE
:10327400402B07D17B681B686FF040021A617868A5
:1032840000F0F6F87B681B681B6903F02003202B11
:103294000ED17B681B68DB6803F02003202B07D169
:1032A4007B681B686FF020021A61786800F05FFB8E
:1032B40000BF0837BD4680BD80B584B000AFF8605C
:1032C400B9607A60FB6893F83C30012B01D102238A
:1032D400ACE0FB68012283F83C207B680C2B00F2F5
:1032E4009F8001A252F823F02133000825340008FE
:1032F400253400082534000861330008253400080B
:103304002534000825340008A333000825340008B8
:103314002534000825340008E3330008FB681B68E3
:10332400B968184600F04EF9FB681B689A69FB6897
:103334001B6842F008029A61FB681B689A69FB6883
:103344001B6822F004029A61FB681B689969BB68D8
:103354001A69FB681B680A439A6162E0FB681B6890
:10336400B968184600F09EF9FB681B689A69FB6807
:103374001B6842F400629A61FB681B689A69FB68E7
:103384001B6822F480629A61FB681B689969BB68B8
:103394001B691A02FB681B680A439A6141E0FB68D7
:1033A4001B68B968184600F0F3F9FB681B68DA6912
:1033B400FB681B6842F00802DA61FB681B68DA6983
:1033C400FB681B6822F00402DA61FB681B68D96998
:1033D400BB681A69FB681B680A43DA6121E0FB6871
:1033E4001B68B968184600F047FAFB681B68DA697D
:1033F400FB681B6842F40062DA61FB681B68DA69E7
:10340400FB681B6822F48062DA61FB681B68D96977
:10341400BB681B691A02FB681B680A43DA6100E097
:1034240000BFFB68002283F83C20002318461037B5
:10343400BD4680BD80B483B000AF786000BF0C3758
:10344400BD465DF8047B704780B483B000AF7860FC
:1034540000BF0C37BD465DF8047B704780B483B071
:1034640000AF786000BF0C37BD465DF8047B704741
:1034740080B483B000AF786000BF0C37BD465DF800
:10348400047B704780B485B000AF786039607B6896
:103494001B68FB607B68404A934213D07B68B3F19E
:1034A400804F0FD07B683D4A93420BD07B683C4AE7
:1034B400934207D07B683B4A934203D07B683A4AE5
:1034C400934208D1FB6823F07003FB603B685B68A0
:1034D400FA681343FB607B682F4A93422BD07B68C6
:1034E400B3F1804F27D07B682C4A934223D07B686A
:1034F4002B4A93421FD07B682A4A93421BD07B6895
:10350400294A934217D07B68284A934213D07B6898
:10351400274A93420FD07B68264A93420BD07B689C
:10352400254A934207D07B68244A934203D07B68A0
:10353400234A934208D1FB6823F44073FB603B6841
:10354400DB68FA681343FB60FB6823F080023B6886
:103554005B691343FB607B68FA681A603B689A688E
:103564007B68DA623B681A687B689A627B680A4AFD
:10357400934203D07B680C4A934203D13B681A6997
:103584007B681A637B6801225A6100BF1437BD4609
:103594005DF8047B704700BF000001400004004058
:1035A40000080040000C00400004014000400140BD
:1035B400004401400048014000180040001C004045
:1035C4000020004080B487B000AF786039607B6829
:1035D4001B6A23F001027B681A627B681B6A7B61A9
:1035E4007B685B683B617B689B69FB60FB6823F0DD
:1035F4007003FB60FB6823F00303FB603B681B68FC
:10360400FA681343FB607B6923F002037B613B6828
:103614009B687A6913437B617B68204A934203D099
:103624007B681F4A93420CD17B6923F008037B61BA
:103634003B68DB687A6913437B617B6923F004038D
:103644007B617B68154A934203D07B68144A93429A
:1036540011D13B6923F480733B613B6923F400730C
:103664003B613B685B693A6913433B613B689B6917
:103674003A6913433B617B683A695A607B68FA682C
:103684009A613B685A687B685A637B687A691A62F4
:1036940000BF1C37BD465DF8047B70470000014045
:1036A4000004014080B487B000AF786039607B6863
:1036B4001B6A23F010027B681A627B681B6A7B61B9
:1036C4007B685B683B617B689B69FB60FB6823F4F8
:1036D400E043FB60FB6823F44073FB603B681B68BA
:1036E4001B02FA681343FB607B6923F020037B61B0
:1036F4003B689B681B017A6913437B617B68224AA0
:10370400934203D07B68214A93420DD17B6923F015
:1037140080037B613B68DB681B017A6913437B612F
:103724007B6923F040037B617B68174A934203D093
:103734007B68164A934213D13B6923F480633B614F
:103744003B6923F400633B613B685B699B003A6916
:1037540013433B613B689B699B003A6913433B619C
:103764007B683A695A607B68FA689A613B685A6870
:103774007B689A637B687A691A6200BF1C37BD460E
:103784005DF8047B704700BF000001400004014065
:1037940080B487B000AF786039607B681B6A23F41B
:1037A40080727B681A627B681B6A7B617B685B68DA
:1037B4003B617B68DB69FB60FB6823F07003FB60A3
:1037C400FB6823F00303FB603B681B68FA68134340
:1037D400FB607B6923F400737B613B689B681B027D
:1037E4007A6913437B617B68214A934203D07B68E7
:1037F400204A93420DD17B6923F400637B613B68CB
:10380400DB681B027A6913437B617B6923F4806361
:103814007B617B68164A934203D07B68154A9342C6
:1038240013D13B6923F480533B613B6923F4005378
:103834003B613B685B691B013A6913433B613B682D
:103844009B691B013A6913433B617B683A695A607F
:103854007B68FA68DA613B685A687B68DA637B687C
:103864007A691A6200BF1C37BD465DF8047B704755
:10387400000001400004014080B487B000AF7860CC
:1038840039607B681B6A23F480527B681A627B6808
:103894001B6A3B617B685B687B617B68DB69FB60FF
:1038A400FB6823F4E043FB60FB6823F44073FB6094
:1038B4003B681B681B02FA681343FB603B6923F4F3
:1038C40000533B613B689B681B033A6913433B61AC
:1038D4007B68124A934203D07B68114A934209D110
:1038E4007B6923F480437B613B685B699B017A6954
:1038F40013437B617B687A695A607B68FA68DA6192
:103904003B685A687B681A647B683A691A6200BF2C
:103914001C37BD465DF8047B704700BF00000140C2
:103924000004014080B487B000AFF860B9607A60E9
:10393400BB6803F01F03012202FA03F37B61FB68F7
:103944001A6A7B69DB431A40FB681A62FB681A6ACD
:10395400BB6803F01F03796801FA03F31A43FB6899
:103964001A6200BF1C37BD465DF8047B704780B403
:1039740083B000AF786000BF0C37BD465DF8047BB0
:10398400704780B483B000AF786000BF0C37BD4689
:103994005DF8047B70470000DFF834D00D480E4911
:1039A4000E4A002302E0D458C4500433C4188C4295
:1039B400F9D30B4A0B4C002301E013600432A242FA
:1039C400FBD3FDF729FC00F011F8FCF755FF704715
:1039D400000002200000002044000020D43B000826
:1039E4004400002050010020FEE7000070B50D4E99
:1039F4000D4CA41BA4100025A54209D10B4E0C4C60
:103A040000F078F8A41BA4100025A54205D170BDD0
:103A140056F8253098470135EEE756F82530984793
:103A24000135F2E7CC3B0008CC3B0008CC3B000856
:103A3400D03B0008931E222B10B50C4604D900235A
:103A44000B701C46204610BD0A2A09D1002807DA4B
:103A54002D230B7040420121214400F00DF8F1E7C1
:103A64000021F9E7FFF7E6BF02440346934200D181
:103A7400704703F8011BF9E7F0B51D4B8BB0054601
:103A84000C466E4603F1200C18685968374603C784
:103A9400083363453E46F7D118681B793B71931E82
:103AA400222B38604FF0000304D923701C462046B3
:103AB4000BB0F0BD661EB5FBF2F00AAF02FB105569
:103AC4003D44591C15F8285C06F8015F054668B9A1
:103AD400605423442246191B101B8142E7DD1178F0
:103AE400187802F8010B03F80119F4E70B46E2E732
:103AF4009C3B0008F8B500BFF8BC08BC9E46704764
:0C3B0400F8B500BFF8BC08BC9E46704736
:103B1000666F6F642064697370656E736572000010
:103B200064697370656E73657200000020206665BD
:103B3000656420202073657474696E67000000005E
:103B40006379636C657300007370656564000000E1
:103B50006261636B000000006379636C6573203CF5
:103B6000203E00007370656564203C202020203ECC
:103B7000000000002D3E000073657276696E672EAE
:103B80002E2E0000000000000000000001020304CF
:103B90000607080900000000010203043031323337
:103BA0003435363738396162636465666768696AD7
:103BB0006B6C6D6E6F707172737475767778797ADD
:043BC0000000000001
:083BC40070C6FF7F0100000044
:043BCC00E901000803
:043BD000C501000823
:103BD40000000000090000000100000000000000D7
:103BE40000000000000000000100000000000000D0
:103BF40001000000070000000300000004000000B2
:103C040001000000C80000000024F40010000000BF
:043C140001000000AB
:040000050800399D19
:00000001FF
