:020000040800F2
:100000000000022069460008B9460008B946000809
:10001000B9460008B9460008B946000800000000CB
:10002000000000000000000000000000B9460008C9
:10003000B946000800000000B946000805050008A0
:10004000B9460008B9460008B9460008B946000894
:10005000B9460008B9460008B9460008B946000884
:10006000110500081F050008B9460008B946000838
:10007000B9460008B9460008B9460008B946000864
:10008000B9460008B9460008B9460008B946000854
:10009000B9460008B9460008B94600082D05000811
:1000A000B9460008B9460008B9460008B946000834
:1000B000B9460008B9460008B9460008B946000824
:1000C000B9460008B9460008B9460008B946000814
:1000D000B9460008B9460008B9460008B946000804
:1000E000B9460008B9460008B9460008B9460008F4
:1000F000B9460008B9460008B9460008B9460008E4
:10010000B9460008B9460008B9460008B9460008D3
:10011000B9460008B94600083D0500085105000829
:10012000B9460008B9460008B9460008B9460008B3
:10013000B94600080000000000000000B9460008B1
:10014000B9460008B9460008B9460008B946000893
:10015000B9460008B9460008B9460008B946000883
:10016000B9460008B9460008B9460008B946000873
:10017000B9460008B9460008B9460008000000006A
:1001800000000000B9460008000000000000000068
:10019000B94600080000000000000000B946000851
:1001A000000000000000000000000000B946000848
:1001B000B9460008B9460008B9460008B946000823
:0401C000B946000834
:1001C40010B5054C237833B9044B13B10448AFF38D
:1001D40000800123237010BD4800002000000000AF
:1001E400C447000808B5034B1BB103490348AFF3E8
:1001F400008008BD000000004C000020C447000837
:1002040053B94AB9002908BF00281CBF4FF0FF3179
:100214004FF0FF3000F072B9ADF1080C6DE904CE77
:1002240000F006F8DDF804E0DDE9022304B07047CD
:100234002DE9F047089E04468846002B4BD18A429C
:10024400154667D9B2FA82F24AB1C2F1200701FA1F
:1002540002F320FA07F7954047EA030894404FEA6F
:10026400154E230CB8FBFEF71FFA85FC0EFB17880E
:1002740043EA084307FB0CF1994209D9EB1807F14B
:10028400FF3080F01B81994240F21881023F2B44D9
:100294005B1AA4B2B3FBFEF00EFB103344EA034432
:1002A40000FB0CFCA44509D92C1900F1FF3380F0A4
:1002B4000781A44540F2048102382C4440EA0740F7
:1002C400A4EB0C0400271EB1D4400023C6E900436C
:1002D4003946BDE8F0878B4209D9002E00F0EB8047
:1002E4000027C6E9000138463946BDE8F087B3FA6D
:1002F40083F7002F47D18B4202D3824200F2FA8067
:10030400841A61EB030301209846002EE0D0C6E96D
:100314000048DDE702B9FFDEB2FA82F2002A40F0BB
:100324008F80491B4FEA154E1FFA85F80127B1FB50
:10033400FEFC230C0EFB1C1143EA014308FB0CF1E9
:10034400994207D9EB180CF1FF3002D2994200F21E
:10035400CD808446591AA3B2B1FBFEF00EFB1014F3
:1003640043EA044408FB00F8A04507D92C1900F11E
:10037400FF3302D2A04500F2B6801846A4EB08046D
:1003840040EA0C409FE7C7F1200CBB4022FA0CFE68
:100394004EEA030E01FA07F420FA0CF521FA0CF3E5
:1003A4004FEA1E482543B3FBF8F92C0C08FB19331C
:1003B4001FFA8EFA44EA034309FB0AF49C4202FA48
:1003C40007F200FA07F10BD91EEB030309F1FF3022
:1003D40080F087809C4240F28480A9F10209734432
:1003E4001B1BADB2B3FBF8F008FB103345EA034422
:1003F40000FB0AFAA24508D91EEB040400F1FF33FE
:100404006BD2A24569D90238744440EA0940A0FB82
:100414000289A4EB0A044C45C2464B4654D351D03E
:10042400002E69D0B1EB0A0564EB030404FA0CFC5A
:10043400FD40FC404CEA0505C6E90054002747E7A7
:10044400C2F1200320FA03F7954001FA02F021FAE1
:1004540003F34FEA154E3843010CB3FBFEF71FFAC2
:1004640085F80EFB173341EA034107FB08F38B427F
:1004740004FA02F407D9691807F1FF3C2FD28B4222
:100484002DD9023F2944CB1A81B2B3FBFEF00EFBF7
:10049400103341EA034100FB08F38B4207D9691882
:1004A40000F1FF3C17D28B4215D902382944C91AEE
:1004B40040EA07473BE73746304609E70746E7E6A1
:1004C4001846FBE64145ABD2B8EB020A69EB0E02D3
:1004D40001381346A4E76046E9E7184695E76746FE
:1004E400D1E781467CE702382C4447E7ACF1020CA3
:1004F4002B442FE7384608E73746E9E6704700BF44
:1005040080B500AF00F0ECFF00BF80BD80B500AF48
:10051400042001F013FB00BF80BD80B500AF0820AC
:1005240001F00CFB00BF80BD80B500AF202001F0BE
:1005340005FB00BF80BD000080B500AF024803F09A
:1005440019FC00BF80BD00BF4C01002080B500AF86
:10055400024803F00FFC00BF80BD00BF040100206F
:1005640080B586B002AF0346FB71FB7923F00F031D
:10057400FB73FB791B01BB73FB7B43F00C03DBB206
:100584003B72FB7B43F00803DBB27B72BB7B43F023
:100594000C03DBB2BB72BB7B43F00803DBB2FB7220
:1005A40007F108026423009304234E21034801F059
:1005B40015FC00BF1037BD4680BD00BFB000002051
:1005C40080B586B002AF0346FB71FB7923F00F03BD
:1005D400FB73FB791B01BB73FB7B43F00D03DBB2A5
:1005E4003B72FB7B43F00903DBB27B72BB7B43F0C2
:1005F4000D03DBB2BB72BB7B43F00903DBB2FB72BE
:1006040007F108026423009304234E21034801F0F8
:10061400E5FB00BF1037BD4680BD00BFB000002021
:1006240080B582B000AF8020FFF79AFF00237B6083
:1006340005E02020FFF7C4FF7B6801337B607B6803
:10064400452BF6DD00BF0837BD4680BD80B582B0BE
:1006540000AF786039607B68002B02D0012B05D095
:1006640009E03B6843F080033B6004E03B6843F0EF
:10067400C0033B6000BF3B68DBB21846FFF770FF66
:1006840000BF0837BD4680BD80B500AF322000F002
:1006940047FF3020FFF764FF052000F041FF3020C2
:1006A400FFF75EFF012000F03BFF3020FFF758FF0B
:1006B4000A2000F035FF2020FFF752FF0A2000F047
:1006C4002FFF2820FFF74CFF012000F029FF08200E
:1006D400FFF746FF012000F023FF0120FFF740FF52
:1006E400012000F01DFF012000F01AFF0620FFF793
:1006F40037FF012000F014FF0C20FFF731FF00BF8B
:1007040080BD80B582B000AF786006E07B685A1C7B
:100714007A601B781846FFF753FF7B681B78002B21
:10072400F4D100BF0837BD4680BD80B584B000AFAA
:10073400F860B9607A607968B868FFF787FFF8688D
:10074400FFF7DFFF00BF1037BD4680BD80B584B022
:1007540000AFF860B9607A60FFF762FF7968B86843
:10076400FFF774FFF868FFF7CCFF00BF1037BD46F2
:1007740080BD000080B588B000AF07F10C030022F3
:1007840019461D4802F0EEFF3B7B184607F10803AB
:100794000A22194603F0CCFF7B7B18463B1D0A2234
:1007A400194603F0C5FFBB7B18463B460A2219468F
:1007B40003F0BEFF07F10803002200211846FFF7EB
:1007C400B4FF022200210D48FFF7AFFF3B1D0322B7
:1007D40000211846FFF7A9FF052200210748FFF76B
:1007E400A4FF3B46062200211846FFF79EFF00BFE8
:1007F4002037BD4680BD00BF94010020DC470008BF
:1008040080B586B000AF1A4B1A4A1A60184B002202
:100814005A60174B7F229A60154BFF22DA60144B03
:1008240000221A61124B4FF480125A61104B0022BD
:100834009A610F4802F048FE0346002B01D000F0F5
:10084400E9F910233B710A237B710023BB71002358
:10085400FB713B1D00221946054802F0C6FE034603
:10086400002B01D000F0D6F900BF1837BD4680BD7B
:10087400940100200028004080B500AF082000F05B
:1008840098FF092000F095FF282000F092FF00BF98
:1008940080BD80B500AF082000F07DFF092000F086
:1008A4007AFF282000F077FF00BF80BD80B582B0BA
:1008B40000AF00237B60154B1B6C144A43F01003FC
:1008C4001364124B1B6C03F010037B607B68104BAA
:1008D400104A1A600E4B50225A600D4B41F65732A3
:1008E400DA600B4803F02CF80346002B01D000F02B
:1008F40091F90F220021362000F031FF362000F05C
:100904004AFF00BF0837BD4680BD00BF0038024023
:100914004C0100200010004080B582B000AF0023DD
:100924007B60154B1B6C144A43F020031364124B79
:100934001B6C03F020037B607B68104B104A1A6029
:100944000E4B4FF4FA525A600C4B40F2E732DA6025
:100954000A4802F0F5FF0346002B01D000F05AF9D3
:100964000F220021372000F0FAFE372000F013FF99
:1009740000BF0837BD4680BD003802400401002096
:100984000014004080B582B000AF78607B681B68BB
:10099400124A934206D1124B1B78012B17D1FFF751
:1009A400E9FE14E00F4B1B88322B10D00D4B1B8833
:1009B40019460D4801F0AAF80346002B07D10B4B4A
:1009C40001221A700A4803F085F8FFF762FFFFF767
:1009D40060FF00BF0837BD4680BD00BF0014004063
:1009E400360000203400002000040240640000208F
:1009F4004C01002080B500AF00F020FD00F022F88B
:100A040000F0B0F801210C4800F076FC00F07CF80E
:100A1400FFF73AFEFFF74AFFFFF77EFFFFF7F0FE0E
:100A2400002200210548FFF791FE054802F0E2FF8D
:100A340000F0F6FAF9E700BF00000240E0470008C2
:100A44000401002080B594B000AF07F11C033422E8
:100A54000021184603F06EFE07F1080300221A6015
:100A64005A609A60DA601A6100237B60244B1B6C25
:100A7400234A43F080531364214B1B6C03F08053CF
:100A84007B607B6800233B601E4B1B6823F4404360
:100A94001C4A43F4804313601A4B1B6803F440431D
:100AA4003B603B680223FB610123BB621023FB62B2
:100AB40000237B6307F11C03184602F067FA034620
:100AC400002B01D000F0A6F80F23BB600023FB60CD
:100AD40000233B614FF4A0537B614FF48053BB610F
:100AE40007F108030021184601F080FC0346002B9F
:100AF40001D000F08FF800BF5037BD4680BD00BF65
:100B0400003802400070004080B500AF124B134A19
:100B14001A60114B124A5A600F4B00229A600E4B16
:100B24000022DA600C4B4FF480421A610A4B002217
:100B34005A61094B00229A61074B0022DA61064B85
:100B440000221A62044801F011F80346002B01D078
:100B540000F060F800BF80BDB000002000540040E9
:100B6400A086010080B588B000AF07F10C03002215
:100B74001A605A609A60DA601A610023BB60224BE3
:100B84001B6B214A43F0010313631F4B1B6B03F0E0
:100B94000103BB60BB6800237B601B4B1B6B1A4AC1
:100BA40043F002031363184B1B6B03F002037B60D7
:100BB4007B682C23FB60154B3B6101237B61002385
:100BC400BB6107F10C031946114800F00DFE0F221A
:100BD4000021082000F0C3FD082000F0DCFD0F22F6
:100BE4000021092000F0BBFD092000F0D4FD0F22F4
:100BF4000021172000F0B3FD172000F0CCFD00BF4A
:100C04002037BD4680BD00BF0038024000002110DF
:100C14000004024080B400AF72B6FEE780B500AFB6
:100C2400FFF7FEFCFFF7A6FD002201210348FFF7B2
:100C34007CFD034B01221A7000BF80BDF047000801
:100C44003600002080B500AFFFF7EAFC0222002145
:100C54000748FFF76AFD022201210648FFF765FDF8
:100C64000B2200210448FFF760FD00BF80BD00BFD8
:100C7400044800080C4800081448000880B500AF78
:100C8400FFF7CEFC002200210248FFF74EFD00BF13
:100C940080BD00BF1C48000880B500AFFFF7C0FC52
:100CA400002200210248FFF740FD00BF80BD00BFC5
:100CB4002848000880B582B000AF2D4B00221A707E
:100CC400FFF7DCFF2B4B1B68391D0A22184603F083
:100CD4002FFD3B1D082200211846FFF726FD264B59
:100CE40000221A7000BF244B1B78002BFBD0234B2F
:100CF4001B68082B04D0202B30D0042B17D033E0F2
:100D04001C4B1B68082B2CDC1A4B1B680133194A3B
:100D14001360184B1B68391D0A22184603F008FD9E
:100D24003B1D082200211846FFF7FFFC19E0114B78
:100D34001B68012B17DD0F4B1B68013B0D4A136029
:100D44000C4B1B68391D0A22184603F0F1FC3B1DAD
:100D5400082200211846FFF7E8FC04E000F060F9DF
:100D640002E000BF00E000BF034B00221A70B9E7A5
:100D74003600002030000020640000202C000020F9
:100D840080B582B000AF304B00221A70FFF784FFA9
:100D94002E4B1B68391D0A22184603F0C9FC3B1D63
:100DA400072200211846FFF7C0FC294B00221A70C5
:100DB40000BF274B1B78002BFBD0264B1B68082B4E
:100DC40004D0202B35D0042B1AD038E01F4B1B68DD
:100DD400B3F5FA6F30DA1D4B1B6864331B4A13609A
:100DE4001A4B1B68391D0A22184603F0A1FCFFF7B1
:100DF40053FF3B1D072200211846FFF796FC1EE017
:100E0400124B1B68C82B19DD104B1B68643B0F4A3F
:100E140013600E4B1B68391D0A22184603F088FC28
:100E2400FFF73AFF3B1D072200211846FFF77DFC20
:100E340005E000F0F5F802E000BF00E000BF044B5D
:100E440000221A70B4E700BF3600002038000020EA
:100E5400640000202C00002080B500AF6A4B002203
:100E64001A70FFF7EFFE694B02221A60674B1B688A
:100E7400674A52F83310654B1B68654ADB0013441C
:100E84005B681A466348FFF750FC634B00221A70F4
:100E940000BF614B1B78002BFBD0604B1B68082BF9
:100EA40061D0202B02D0042B13D0A8E0574B1B6831
:100EB400012B07D0022B02D0002B06D008E0FFF74D
:100EC400F9FE05E0FFF75CFF02E000F0A9F800BFBF
:100ED40095E04E4B1B68002B40F38E804B4B1B68F8
:100EE400013B4A4A1360494B1B68012B16D0022B65
:100EF40026D0002B00D035E0FFF7A4FE434B1B683F
:100F0400434A52F83310414B1B68414ADB001344F7
:100F14005B681A463F48FFF708FC23E0FFF792FEA0
:100F24003A4B1B683A4A52F83310384B1B68384A1C
:100F3400DB0013445B681A463648FFF7F6FB11E002
:100F4400FFF780FE314B1B68314A52F833102F4BA8
:100F54001B682F4ADB0013445B681A462D48FFF7D1
:100F6400E4FB00BF48E0294B1B68012B46DC274B00
:100F74001B680133254A1360244B1B68012B16D0D0
:100F8400022B26D0002B00D035E0FFF75BFE1F4B71
:100F94001B681F4A52F833101C4B1B681C4ADB00A9
:100FA40013445B681A461B48FFF7BFFB23E0FFF7B7
:100FB40049FE164B1B68164A52F83310134B1B6834
:100FC400134ADB0013445B681A461248FFF7ADFB73
:100FD40011E0FFF737FE0D4B1B680D4A52F8331032
:100FE4000A4B1B680A4ADB0013445B681A4609482B
:100FF400FFF79BFB00BF01E000BF00E000BF064B12
:1010040000221A7044E700BF3600002028000020A8
:101014000000002038480008640000202C00002054
:1010240080B500AFFFF7FAFD324B03221A60314B53
:101034001B68314A52F833102E4B1B682E4ADB00D2
:1010440013445B681A462D48FFF76FFB2C4B0022B4
:101054001A7000BF2A4B1B78002BFBD0294B1B684E
:10106400082B2AD0202B02D0042B0ED03DE0214B9C
:101074001B68032B02D0042B03D005E000F046F8D4
:1010840002E0FFF7E9FE00BF2FE01A4B04221A60CA
:10109400002201211C48FFF748FB164B1B68164A27
:1010A40052F83310134B1B68134ADB0013445B687C
:1010B4001A461248FFF739FB17E00E4B03221A6059
:1010C400072201211048FFF730FB0A4B1B680A4A2C
:1010D40052F83310074B1B68074ADB0013445B6864
:1010E4001A460648FFF721FB00BF054B00221A7081
:1010F400AFE700BF280000200000002038480008A7
:10110400640000202C0000203C48000880B582B018
:1011140000AF124B00221A70002201211048FFF781
:1011240015FB00237B6008E0B42000F047F90020A1
:1011340000F044F97B6801337B600A4B1B687A68D2
:101144009A42F1DBFFF76AFD002201210648FFF70E
:10115400ECFA00BF0837BD4680BD00BF3600002052
:1011640040480008300000203848000880B582B0AC
:1011740000AF0346FB80104802F03CFCFFF77CFB09
:101184000E4AFB881380FB88082B08D0202B02D042
:10119400042B08D00BE00A4B20221A6007E0084B0E
:1011A40008221A6003E0064B04221A6000BF00BF45
:1011B4000837BD4680BD00BF4C010020340000202C
:1011C4002C00002080B582B000AF00237B60104B60
:1011D4005B6C0F4A43F4804353640D4B5B6C03F424
:1011E40080437B607B6800233B60094B1B6C084A8F
:1011F40043F080531364064B1B6C03F080533B6035
:101204003B68072000F0A0FA00BF0837BD4680BD48
:101214000038024080B58AB000AF786007F114034B
:1012240000221A605A609A60DA601A617B681B684F
:10123400194A93422BD100233B61184B1B6B174A6D
:1012440043F002031363154B1B6B03F002033B6172
:101254003B69C0237B611223BB610123FB61032330
:101264003B6204237B6207F1140319460C4800F027
:10127400BBFA0023FB60094B1B6C084A43F40013C0
:101284001364064B1B6C03F40013FB60FB6800BF84
:101294002837BD4680BD00BF0054004000380240DE
:1012A4000004024080B5A6B000AF786004237B66DA
:1012B4000123FB6607F16403184601F067FE034649
:1012C400002B01D0FFF7A6FC2023BB604FF48073F2
:1012D400BB6407F10803184601F08EF90346002B9E
:1012E40001D0FFF797FC034B01221A6000BF983727
:1012F400BD4680BD3C0E474280B590B000AF7860DB
:101304000B467B800023FB60294B1B6C284A43F06F
:1013140001031364264B1B6C03F00103FB60FB68A1
:101324000023BB60224B1B6B214A43F00103136370
:101334001F4B1B6B03F00103BB60BB687B88FB6224
:1013440002233B630123FB6307F12C03194619486D
:1013540000F04AFA184B4FF080421A60164B4F22A5
:101364005A60154B4FF4FA62DA60134802F0E1FB5D
:101374000346002B01D000F04BF860233B610023AF
:10138400BB6100237B6107F11003002219460A4860
:1013940002F0F8FD0346002B01D000F039F80021DB
:1013A400054802F01FFC00BF4037BD4680BD00BFAA
:1013B40000380240000002406800002080B582B07E
:1013C40000AF0346FB71FB79002B02D0B42B0AD08B
:1013D40013E00D4B1B68C8225A630C4B1B6818465C
:1013E40000F09EF80CE0084B1B6832225A63074B4E
:1013F4001B68184600F094F802E000F009F800BFFA
:1014040000BF0837BD4680BD6800002038000020BA
:1014140080B400AF72B6FEE780B400AF064BD3F8D9
:101424008830054A43F47003C2F8883000BFBD46D3
:101434005DF8047B704700BF00ED00E080B500AFAD
:101444000E4B1B680D4A43F4007313600B4B1B686F
:101454000A4A43F480631360084B1B68074A43F449
:1014640080731360032000F06FF9002000F008F887
:10147400FFF7A8FE0023184680BD00BF003C0240D1
:1014840080B582B000AF7860124B1A68124B1B789B
:1014940019464FF47A73B3FBF1F3B2FBF3F3184636
:1014A40000F095F90346002B01D001230EE07B6880
:1014B4000F2B0AD8002279684FF0FF3000F04FF963
:1014C400064A7B681360002300E0012318460837AE
:1014D400BD4680BD3C0000204400002040000020A8
:1014E40080B400AF064B1B781A46064B1B681344A6
:1014F400044A136000BFBD465DF8047B704700BF1B
:1015040044000020B401002080B400AF034B1B68EA
:101514001846BD465DF8047B704700BFB401002047
:1015240080B584B000AF7860FFF7EEFFB8607B68E9
:10153400FB60FB68B3F1FF3F05D0094B1B781A46EB
:10154400FB681344FB6000BFFFF7DEFF0246BB6885
:10155400D31AFA689A42F7D800BF1037BD4680BD47
:101564004400002080B485B000AF78607B6803F04D
:101574000703FB600C4BDB68BB60BA684FF6FF03E4
:101584001340BB60FB681A02BB68134343F0BF639C
:1015940043F40033BB60044ABB68D36000BF143714
:1015A400BD465DF8047B704700ED00E080B400AFF9
:1015B400044BDB681B0A03F007031846BD465DF8BD
:1015C400047B704700ED00E080B483B000AF0346B5
:1015D400FB7197F90730002B0BDBFB7903F01F023B
:1015E400074997F907305B09012000FA02F241F834
:1015F400232000BF0C37BD465DF8047B704700BF55
:1016040000E100E080B483B000AF0346FB7197F9BA
:101614000730002B10DBFB7903F01F02094997F90F
:1016240007305B09012000FA02F2203341F823203D
:10163400BFF34F8FBFF36F8F00BF0C37BD465DF80C
:10164400047B704700E100E080B483B000AF034640
:101654003960FB7197F90730002B0ADB3B68DAB27B
:101664000C4997F907301201D2B20B4483F80023D6
:101674000AE03B68DAB20849FB7903F00F03043B44
:101684001201D2B20B441A7600BF0C37BD465DF886
:10169400047B704700E100E000ED00E080B489B015
:1016A40000AFF860B9607A60FB6803F00703FB6180
:1016B400FB69C3F10703042B28BF0423BB61FB6947
:1016C4000433062B02D9FB69033B00E000237B6152
:1016D4004FF0FF32BB6902FA03F3DA43BB681A40E6
:1016E4007B699A404FF0FF317B6901FA03F3D943D8
:1016F4007B680B40134318462437BD465DF8047BD2
:101704007047000080B582B000AF78607B68013B11
:10171400B3F1807F01D301230FE00A4A7B68013BC8
:1017240053600F214FF0FF30FFF78EFF054B00226F
:101734009A60044B07221A60002318460837BD46F6
:1017440080BD00BF10E000E080B582B000AF7860DB
:101754007868FFF707FF00BF0837BD4680BD80B536
:1017640086B000AF0346B9607A60FB7300237B61E7
:10177400FFF71CFF78617A68B9687869FFF78EFF14
:10178400024697F90F3011461846FFF75DFF00BF78
:101794001837BD4680BD80B582B000AF0346FB71EB
:1017A40097F907301846FFF70FFF00BF0837BD460B
:1017B40080BD80B582B000AF0346FB7197F9073056
:1017C4001846FFF71FFF00BF0837BD4680BD80B530
:1017D40082B000AF78607868FFF794FF034618463C
:1017E4000837BD4680BD000080B489B000AF786082
:1017F400396000237B6100233B610023BB6100232C
:10180400FB6165E10122FB6902FA03F37B613B683A
:101814001B687A6913403B613A697B699A4240F0DC
:1018240054813B685B6803F00303012B05D03B68DC
:101834005B6803F00303022B30D17B689B68BB61B8
:10184400FB695B00032202FA03F3DB43BA6913402A
:10185400BB613B68DA68FB695B0002FA03F3BA69AF
:101864001343BB617B68BA699A607B685B68BB6140
:101874000122FB6902FA03F3DB43BA691340BB613B
:101884003B685B681B0903F00102FB6902FA03F37E
:10189400BA691343BB617B68BA695A603B685B6889
:1018A40003F00303032B17D07B68DB68BB61FB6980
:1018B4005B00032202FA03F3DB43BA691340BB6102
:1018C4003B689A68FB695B0002FA03F3BA69134345
:1018D400BB617B68BA69DA603B685B6803F0030349
:1018E400022B23D1FB69DA087B68083253F82230D3
:1018F400BB61FB6903F007039B000F2202FA03F3A9
:10190400DB43BA691340BB613B681A69FB6903F0A6
:1019140007039B0002FA03F3BA691343BB61FB6933
:10192400DA087B680832B96943F822107B681B68BF
:10193400BB61FB695B00032202FA03F3DB43BA6970
:101944001340BB613B685B6803F00302FB695B0007
:1019540002FA03F3BA691343BB617B68BA691A607C
:101964003B685B6803F08053002B00F0AE800023DB
:10197400FB605C4B5B6C5B4A43F480435364594BA0
:101984005B6C03F48043FB60FB68574AFB699B086C
:10199400023352F82330BB61FB6903F003039B005D
:1019A4000F2202FA03F3DB43BA691340BB617B687D
:1019B4004E4A934225D07B684D4A93421FD07B68A0
:1019C4004C4A934219D07B684B4A934213D07B68AC
:1019D4004A4A93420DD07B68494A934207D07B68B8
:1019E400484A934201D106230CE007230AE0052369
:1019F40008E0042306E0032304E0022302E00123B9
:101A040000E00023FA6902F0030292009340BA69ED
:101A14001343BB613449FB699B080233BA6941F83B
:101A24002320394B1B68BB613B69DB43BA69134014
:101A3400BB613B685B6803F48033002B03D0BA6955
:101A44003B691343BB61304ABB6913602E4B5B682F
:101A5400BB613B69DB43BA691340BB613B685B68AC
:101A640003F40033002B03D0BA693B691343BB6111
:101A7400254ABB695360244B9B68BB613B69DB43CC
:101A8400BA691340BB613B685B6803F48013002BA5
:101A940003D0BA693B691343BB611B4ABB699360BA
:101AA400194BDB68BB613B69DB43BA691340BB611B
:101AB4003B685B6803F40013002B03D0BA693B69ED
:101AC4001343BB61104ABB69D360FB690133FB61FB
:101AD400FB690F2B7FF696AE00BF2437BD465DF839
:101AE400047B704700380240003801400000024087
:101AF4000004024000080240000C024000100240B2
:101B04000014024000180240003C014080B485B03B
:101B140000AF78600B467B807B681A697B88134032
:101B2400002B02D00123FB7301E00023FB73FB7B3A
:101B340018461437BD465DF8047B704780B582B003
:101B440000AF0346FB80084B5A69FB881340002B07
:101B540006D0054AFB885361FB881846FFF706FB4D
:101B640000BF0837BD4680BD003C014080B584B04D
:101B740000AF78607B68002B01D101231FE17B68F3
:101B840093F83D30DBB2002B06D17B68002283F84A
:101B94003C207868FFF73EFB7B68242283F83D20D5
:101BA4007B681B681A687B681B6822F001021A6054
:101BB4007B681B681A687B681B6842F400421A60E1
:101BC4007B681B681A687B681B6822F400421A60F1
:101BD40000F0FEFCF8607B685B687B4A934207D8A0
:101BE400FB687A4A934294BF01230023DBB206E0E8
:101BF400FB68774A934294BF01230023DBB2002B96
:101C040001D00123DBE0FB68724AA2FB03239B0C97
:101C1400BB607B681B685B6823F03F017B681B68C3
:101C2400BA680A435A607B681B681B6A23F03F0149
:101C34007B685B68644A934202D8BB68013309E05D
:101C4400BB684FF4967202FB03F3634AA2FB0323BF
:101C54009B0901337A6812680B4313627B681B6823
:101C6400DB6923F44F4222F0FF027B685B6856492C
:101C74008B420DD8FB68591E7B685B685B00B1FB27
:101C8400F3F30133C3F30B03042B38BF04234FE0F6
:101C94007B689B68002B11D1FB68581E7B685968D0
:101CA4000B465B000B44B0FBF3F30133C3F30B03AC
:101CB400002B0CBF01230023DBB212E0FB68581E8B
:101CC4007B6859680B469B000B4499000B44B0FB9E
:101CD400F3F30133C3F30B03002B0CBF01230023E5
:101CE400DBB2002B01D0012322E07B689B68002B30
:101CF4000ED1FB68581E7B6859680B465B000B4489
:101D0400B0FBF3F30133C3F30B0343F400430FE0DD
:101D1400FB68581E7B6859680B469B000B4499006E
:101D24000B44B0FBF3F30133C3F30B0343F440431D
:101D3400796809681343CB617B681B681B6823F0CF
:101D4400C0017B68DA697B681B6A1A437B681B687D
:101D54000A431A607B681B689B6823F4034323F0DF
:101D6400FF037A6811697A68D26811437A68126845
:101D74000B4393607B681B68DB6823F0FF017B687F
:101D84005A697B689B691A437B681B680A43DA605B
:101D94007B681B681A687B681B6842F001021A6042
:101DA4007B6800221A647B68202283F83D207B68CC
:101DB40000221A637B68002283F83E200023184621
:101DC4001037BD4680BD00BFA08601007F841E0081
:101DD400FF083D0083DE1B43D34D621080B588B0FD
:101DE40002AFF8607A601A460B467B8113463B814A
:101DF400FFF78AFB7861FB6893F83D30DBB2202B58
:101E040040F0E0807B690093192301227049F8684F
:101E140000F064F90346002B01D00223D3E0FB68F1
:101E240093F83C30012B01D10223CCE0FB68012262
:101E340083F83C20FB681B681B6803F00103012B3B
:101E440007D0FB681B681A68FB681B6842F0010234
:101E54001A60FB681B681A68FB681B6822F400623E
:101E64001A60FB68212283F83D20FB68102283F866
:101E74003E20FB6800221A64FB687A685A62FB6899
:101E84003A895A85FB685B8D9AB2FB681A85FB68B0
:101E9400504ADA6279897B693A6AF86800F09CF8FA
:101EA4000346002B01D001238DE000233B61FB6836
:101EB4001B685B693B61FB681B689B693B613B6911
:101EC40066E07A69396AF86800F0DEF90346002BA7
:101ED4000DD0FB681B6C042B07D1FB681B681A68C8
:101EE400FB681B6842F400721A6001236BE0FB6814
:101EF4005B6A1A78FB681B681A61FB685B6A5A1C88
:101F0400FB685A62FB685B8D9BB2013B9AB2FB682B
:101F14005A85FB681B8D013B9AB2FB681A85FB68E6
:101F24001B685B6903F00403042B1BD1FB681B8D46
:101F3400002B17D0FB685B6A1A78FB681B681A6170
:101F4400FB685B6A5A1CFB685A62FB685B8D9BB238
:101F5400013B9AB2FB685A85FB681B8D013B9AB220
:101F6400FB681A857A69396AF86800F0CEF9034685
:101F7400002B0DD0FB681B6C042B07D1FB681B687E
:101F84001A68FB681B6842F400721A6001231AE0A5
:101F9400FB681B8D002B94D1FB681B681A68FB68D7
:101FA4001B6842F400721A60FB68202283F83D200B
:101FB400FB68002283F83E20FB68002283F83C2063
:101FC400002300E0022318461837BD4680BD00BF39
:101FD400020010000000FFFF80B588B002AFF86077
:101FE4007A603B600B467B81FB68DB6A7B617B69C3
:101FF400082B06D07B69012B03D07B6913F5803F46
:1020040008D1FB681B681A68FB681B6842F480727D
:102014001A600BE0FB681B6B122B07D1FB681B6873
:102024001A68FB681B6842F480721A603B6800936C
:102034007B6800224FF00111F86800F04FF8034666
:10204400002B0DD0FB681B681B6803F48073B3F589
:10205400807F03D1FB684FF400721A64032335E0D8
:10206400FB681B69B3F5804F08D17B89DBB21A4644
:10207400FB681B6802F0FE021A611BE07B89DB111E
:10208400DBB203F00603DBB263F00F03DAB2FB68E2
:102094001B681A613B687A680E49F86800F075F8A5
:1020A4000346002B01D0012310E07B89DAB2FB68E0
:1020B4001B681A613B687A680749F86800F065F89C
:1020C4000346002B01D0012300E0002318461837F3
:1020D400BD4680BD080001000200010080B584B047
:1020E40000AFF860B9603B601346FB7125E03B68C4
:1020F400B3F1FF3F21D0FFF707FA0246BB69D31AB9
:102104003A689A4202D33B68002B16D1FB6800223E
:102114001A63FB68202283F83D20FB68002283F8C1
:102124003E20FB681B6C43F02002FB681A64FB68CA
:10213400002283F83C20012323E0BB681B0CDBB2A4
:10214400012B0DD1FB681B685B69DA43BB68134044
:102154009BB2002B0CBF01230023DBB21A460CE018
:10216400FB681B689B69DA43BB6813409BB2002B76
:102174000CBF01230023DBB21A46FB799A42B6D086
:10218400002318461037BD4680BD80B584B000AF2B
:10219400F860B9607A603B6051E0FB681B685B697A
:1021A40003F48063B3F5806F23D1FB681B681A685E
:1021B400FB681B6842F400721A60FB681B686FF4CA
:1021C40080625A61FB6800221A63FB68202283F84C
:1021D4003D20FB68002283F83E20FB681B6C43F023
:1021E4000402FB681A64FB68002283F83C20012384
:1021F40046E07B68B3F1FF3F21D0FFF785F9024643
:102204003B68D31A7A689A4202D37B68002B16D1B2
:10221400FB6800221A63FB68202283F83D20FB68D8
:10222400002283F83E20FB681B6C43F02002FB680D
:102234001A64FB68002283F83C20012320E0BB6879
:102244001B0CDBB2012B0CD1FB681B685B69DA4306
:10225400BB6813409BB2002B14BF01230023DBB2E5
:102264000BE0FB681B689B69DA43BB6813409BB2B5
:10227400002B14BF01230023DBB2002B8DD10023DC
:1022840018461037BD4680BD80B584B000AFF860F5
:10229400B9607A602DE0F86800F078F80346002B06
:1022A40001D001232DE0BB68B3F1FF3F21D0FFF73C
:1022B4002BF902467B68D31ABA689A4202D3BB68E8
:1022C400002B16D1FB6800221A63FB68202283F8D6
:1022D4003D20FB68002283F83E20FB681B6C43F022
:1022E4002002FB681A64FB68002283F83C20012367
:1022F40007E0FB681B685B6903F08003802BCAD18D
:10230400002318461037BD4680BD80B584B000AFA9
:10231400F860B9607A602DE0F86800F037F8034699
:10232400002B01D001232DE0BB68B3F1FF3F21D086
:10233400FFF7EAF802467B68D31ABA689A4202D3D6
:10234400BB68002B16D1FB6800221A63FB682022AD
:1023540083F83D20FB68002283F83E20FB681B6C59
:1023640043F02002FB681A64FB68002283F83C20D7
:10237400012307E0FB681B685B6903F00403042B7B
:10238400CAD1002318461037BD4680BD80B483B03F
:1023940000AF78607B681B685B6903F48063B3F506
:1023A400806F1BD17B681B686FF480625A617B6805
:1023B40000221A637B68202283F83D207B68002278
:1023C40083F83E207B681B6C43F004027B681A642C
:1023D4007B68002283F83C20012300E00023184698
:1023E4000C37BD465DF8047B7047000080B584B0AF
:1023F40000AF786039607B68002B01D10123CCE009
:10240400684B1B6803F00F033A689A420CD9654B7A
:102414003A68D2B21A70634B1B6803F00F033A6830
:102424009A4201D00123B8E07B681B6803F00203E1
:10243400002B20D07B681B6803F00403002B05D01D
:10244400594B9B68584A43F4E05393607B681B687C
:1024540003F00803002B05D0534B9B68524A43F406
:1024640060439360504B9B6823F0F0027B689B6849
:102474004D4913438B607B681B6803F00103002BF9
:1024840044D07B685B68012B07D1474B1B6803F47E
:102494000033002B19D101237FE07B685B68022B9A
:1024A40003D07B685B68032B07D13F4B1B6803F0A9
:1024B4000073002B09D101236FE03B4B1B6803F031
:1024C4000203002B01D1012367E0374B9B6823F003
:1024D40003027B685B68344913438B60FFF714F88D
:1024E400F8600AE0FFF710F80246FB68D31A41F2DD
:1024F4008832934201D903234FE02B4B9B6803F0AE
:102504000C027B685B689B009A42EBD1254B1B68ED
:1025140003F00F033A689A420CD2224B3A68D2B2C3
:102524001A70204B1B6803F00F033A689A4201D0DB
:10253400012332E07B681B6803F00403002B08D0FE
:10254400194B9B6823F4E0527B68DB6816491343FC
:102554008B607B681B6803F00803002B09D0124BC7
:102564009B6823F460427B681B69DB000E491343BC
:102574008B6000F06BFB01460B4B9B681B0903F05F
:102584000F030A4AD35C21FA03F3094A1360094B87
:102594001B681846FEF774FF002318461037BD4623
:1025A40080BD00BF003C0240003802404C48000897
:1025B4003C0000204000002080B400AF034B1B68A7
:1025C4001846BD465DF8047B704700BF3C00002000
:1025D40080B500AFFFF7F0FF0146054B9B689B0AEF
:1025E40003F00703034AD35C21FA03F3184680BDC2
:1025F400003802405C48000880B58CB000AF7860B9
:1026040000237B6200233B620023FB610023BB6148
:1026140000237B6100233B610023FB600023FB62FA
:102624000023BB627B681B6803F00103002B10D0FE
:102634006F4BD3F88C3023F0C0627B689B6B6C4982
:102644001343C1F88C307B689B6B002B01D10123B1
:10265400FB627B681B6803F00203002B10D0644B01
:10266400D3F88C3023F0C0527B68DB6B6049134392
:10267400C1F88C307B68DB6B002B01D10123FB623A
:102684007B681B6803F00403002B17D0584BD3F866
:102694008C3023F440127B681B6B55491343C1F8FB
:1026A4008C307B681B6BB3F5801F01D10123FB6267
:1026B4007B681B6B002B01D10123BB627B681B6809
:1026C40003F00803002B17D0494BD3F88C3023F4C4
:1026D40040027B685B6B46491343C1F88C307B68CE
:1026E4005B6BB3F5800F01D10123FB627B685B6BED
:1026F400002B01D10123BB627B681B6803F020031C
:10270400002B00F08A800023BB60394B1B6C384AD5
:1027140043F080531364364B1B6C03F08053BB604F
:10272400BB68344B1B68334A43F480731360FEF771
:10273400EBFE786208E0FEF7E7FE02467B6AD31AF6
:10274400022B01D9032378E22A4B1B6803F480731C
:10275400002BF0D0264B1B6F03F440733B623B6AA3
:10276400002B2FD07B681B6C03F440733A6A9A42A7
:1027740028D01F4B1B6F23F440733B621E4B012276
:102784001A601D4B00221A60194A3B6A1367184BE2
:102794001B6F03F00103012B14D1FEF7B5FE786221
:1027A4000AE0FEF7B1FE02467B6AD31A41F2883290
:1027B400934201D9032340E20D4B1B6F03F0020344
:1027C400002BEED07B681B6C03F44073B3F5407FA1
:1027D40014D1074B9B6823F4F8127B681B6C23F01D
:1027E400704323F44073024913438B600CE000BF31
:1027F4000038024000700040400E47424A4B9B683C
:10280400494A23F4F8139360474B1A6F7B681B6C97
:10281400C3F30B03444913430B677B681B6803F042
:102824001003002B04D07B6893F858203F4B1A60A8
:102834007B681B6803F08003002B0AD03A4BD3F863
:10284400943023F440027B68DB6C37491343C1F8AE
:1028540094307B681B6803F04003002B0AD0324B92
:10286400D3F8943023F080627B689B6C2E49134329
:10287400C1F894307B681B6803F48073002B11D07B
:10288400294BD3F8943023F000627B685B6D2649B2
:102894001343C1F894307B685B6DB3F1006F01D1D1
:1028A4000123BB627B681B6803F40073002B0AD00E
:1028B4001D4BD3F8943023F080527B685B6C1A492B
:1028C4001343C1F894307B681B6803F48063002BC6
:1028D40011D0154BD3F8943023F000527B681B6D54
:1028E40011491343C1F894307B681B6DB3F1005F49
:1028F40001D10123FB62FB6A012B05D07B681B68B5
:10290400B3F5006F40F0FF80094B00221A60FEF718
:10291400FBFD78620EE0FEF7F7FD02467B6AD31AF0
:10292400022B07D9032388E100380240E011474213
:10293400680047427E4B1B6803F00063002BEAD11A
:102944007B681B6803F00103002B03D07B689B6B3F
:10295400002B09D07B681B6803F00203002B28D0EE
:102964007B68DB6B002B24D1714BD3F884301B0CB8
:1029740003F0030301335B00FB616D4BD3F8843038
:102984001B0E03F00F03BB617B685A687B689B686E
:102994009B011A43FB695B08013B1B041A43BB6997
:1029A4001B061A437B685B691B0761491343C1F823
:1029B40084307B681B6803F00403002B04D07B681D
:1029C4001B6BB3F5801F0AD07B681B6803F00803F8
:1029D400002B35D07B685B6BB3F5800F30D1544B43
:1029E400D3F884301B0C03F0030301335B00FB6159
:1029F4004F4BD3F884301B0F03F007037B617B68D4
:102A04005A687B689B689B011A43FB695B08013B1E
:102A14001B041A437B681B691B061A437B691B074B
:102A240043491343C1F88430414BD3F88C3023F02D
:102A34001F027B689B6A013B3D491343C1F88C30FC
:102A44007B681B6803F48063002B29D07B681B6DB3
:102A5400B3F1005F24D1364BD3F884301B0C03F060
:102A6400030301335B00BB61314BD3F884301B0F8C
:102A740003F007037B617B685A687B689B689B0152
:102A84001A437B68DB685B08013B1B041A43BB6980
:102A94001B061A437B691B0725491343C1F884307D
:102AA4007B681B6803F40063002B16D07B685A68AC
:102AB4007B689B689B011A437B68DB685B08013B6E
:102AC4001B041A437B681B691B061A437B685B69FA
:102AD4001B0717491343C1F88430164B01221A60AF
:102AE400FEF712FD786208E0FEF70EFD02467B6AEF
:102AF400D31A022B01D903239FE00D4B1B6803F06B
:102B04000063002BF0D0BB6A012B40F095800A4B88
:102B140000221A60FEF7F8FC78620FE0FEF7F4FC7E
:102B240002467B6AD31A022B08D9032385E000BF2F
:102B3400003802406800474270004742414B1B681E
:102B440003F00053B3F1005FE8D07B681B6803F027
:102B54000403002B03D07B681B6B002B09D07B681C
:102B64001B6803F00803002B2BD07B685B6B002BE6
:102B740027D1344BD3F888301B0C03F00303013303
:102B84005B003B617B689A697B68DB699B011A4344
:102B94003B695B08013B1B041A437B685B6A1B06A9
:102BA40028491343C1F88830264BD3F88C3023F4DA
:102BB400F8527B68DB6A013B1B0222491343C1F8CC
:102BC4008C307B681B6803F48073002B1DD07B68FA
:102BD4005B6DB3F1006F18D11A4BD3F888301B0E1C
:102BE40003F00F03FB607B689A697B68DB699B01D8
:102BF4001A437B681B6A5B08013B1B041A43FB688E
:102C04001B0610491343C1F888300F4B01221A6088
:102C1400FEF77AFC786208E0FEF776FC02467B6AEF
:102C2400D31A022B01D9032307E0064B1B6803F0D8
:102C34000053B3F1005FEFD1002318463037BD468F
:102C440080BD00BF0038024070004742F0B587B035
:102C540000AF0023FB6000237B610023BB600023E3
:102C64007B6000233B61C64B9B6803F00C030C2B79
:102C740000F27E8101A252F823F000BFB52C0008B7
:102C8400752F0008752F0008752F0008BB2C00084D
:102C9400752F0008752F0008752F0008C12C000837
:102CA400752F0008752F0008752F00081D2E0008C9
:102CB400B44B3B615FE1B44B3B615CE1B04B5B689F
:102CC40003F03F03FB60AE4B5B6803F48003002B0F
:102CD4004AD0AB4B5B689B094FF0000440F2FF11F4
:102CE4004FF0000203EA010504EA020629463246CF
:102CF4004FF000034FF00004540144EAD1644B0147
:102D040019462246491B62EB06024FF000034FF0BE
:102D14000004940144EA91648B015B1A64EB02049D
:102D24004FF000014FF00002E20042EA5372D90072
:102D34000B4614465B1944EB06044FF000014FF0B8
:102D44000002620242EAD35259020B461446184664
:102D54002146FB684FF000041A462346FDF750FA5B
:102D640003460C467B6149E0854B5B689B094FF049
:102D7400000440F2FF114FF0000203EA010504EAE7
:102D84000206294632464FF000034FF00004540176
:102D940044EAD1644B0119462246491B62EB060200
:102DA4004FF000034FF00004940144EA91648B0156
:102DB4005B1A64EB02044FF000014FF00002E200E2
:102DC40042EA5372D9000B4614465B1944EB0604DD
:102DD4004FF000014FF00002A20242EA935299021E
:102DE4000B46144618462146FB684FF000041A4669
:102DF4002346FDF705FA03460C467B61604B5B688E
:102E04001B0C03F0030301335B00BB607A69BB68EE
:102E1400B2FBF3F33B61AEE0594B5B6803F03F0355
:102E2400FB60574B5B6803F48003002B4AD0544B80
:102E34005B689B094FF0000440F2FF114FF0000261
:102E440003EA010504EA0206294632464FF000036C
:102E54004FF00004540144EAD1644B011946224660
:102E6400491B62EB06024FF000034FF0000494018B
:102E740044EA91648B015B1A64EB02044FF0000195
:102E84004FF00002E20042EA5372D9000B461446A6
:102E94005B1944EB06044FF000014FF0000262029C
:102EA40042EAD35259020B46144618462146FB689F
:102EB4004FF000041A462346FDF7A2F903460C46D8
:102EC4007B6149E02E4B5B689B094FF0000440F2A4
:102ED400FF114FF0000203EA010504EA0206294645
:102EE40032464FF000034FF00004540144EAD16429
:102EF4004B0119462246491B62EB06024FF00003C0
:102F04004FF00004940144EA91648B015B1A64EB72
:102F140002044FF000014FF00002E20042EA537253
:102F2400D9000B4614465B1944EB06044FF000012C
:102F34004FF00002A20242EA935299020B46144651
:102F440018462146FB684FF000041A462346FDF755
:102F540057F903460C467B61094B5B681B0F03F072
:102F640007037B607A697B68B2FBF3F33B6102E0A1
:102F7400044B3B6100BF3B6918461C37BD46F0BD9E
:102F8400003802400024F40000127A0080B586B0B4
:102F940000AF78607B68002B01D101238DE27B6850
:102FA4001B6803F00103002B00F08380944B9B68A3
:102FB40003F00C03042B19D0914B9B6803F00C0312
:102FC400082B06D18E4B5B6803F48003B3F5800FA6
:102FD4000CD08B4B9B6803F00C030C2B12D1884B49
:102FE4005B6803F48003B3F5800F0BD1844B1B683B
:102FF40003F40033002B5BD07B685B68002B57D154
:1030040001235AE27B685B68B3F5803F06D17C4BB1
:103014001B687B4A43F4803313601DE07B685B6864
:10302400B3F5A02F0CD1764B1B68754A43F480236B
:103034001360734B1B68724A43F4803313600BE0D4
:103044006F4B1B686E4A23F4803313606C4B1B6810
:103054006B4A23F4802313607B685B68002B13D0D6
:10306400FEF752FA386108E0FEF74EFA02463B6971
:10307400D31A642B01D903231FE2614B1B6803F4A9
:103084000033002BF0D014E0FEF73EFA386108E07C
:10309400FEF73AFA02463B69D31A642B01D903239B
:1030A4000BE2574B1B6803F40033002BF0D100E014
:1030B40000BF7B681B6803F00203002B6FD0504BEA
:1030C4009B6803F00C03002B17D04D4B9B6803F057
:1030D4000C03082B05D14A4B5B6803F48003002BD7
:1030E4000BD0474B9B6803F00C030C2B1CD1444BB7
:1030F4005B6803F48003002B16D1414B1B6803F07B
:103104000203002B05D07B68DB68012B01D001236F
:10311400D3E13B4B1B6823F0F8027B681B69DB009F
:10312400374913430B603AE07B68DB68002B20D0FF
:10313400344B01221A60FEF7E7F9386108E0FEF724
:10314400E3F902463B69D31A022B01D90323B4E104
:103154002B4B1B6803F00203002BF0D0284B1B6899
:1031640023F0F8027B681B69DB00254913430B60DD
:1031740015E0244B00221A60FEF7C6F9386108E016
:10318400FEF7C2F902463B69D31A022B01D9032385
:1031940093E11B4B1B6803F00203002BF0D17B6807
:1031A4001B6803F00803002B36D07B685B69002B97
:1031B40016D0154B01221A60FEF7A6F9386108E013
:1031C400FEF7A2F902463B69D31A022B01D9032365
:1031D40073E10B4B5B6F03F00203002BF0D01BE099
:1031E400094B00221A60FEF78FF938610EE0FEF7F2
:1031F4008BF902463B69D31A022B07D903235CE1FE
:103204000038024000004742800E47428A4B5B6F01
:1032140003F00203002BEAD17B681B6803F004036C
:10322400002B00F097800023FB75834B1B6C03F08D
:103234008053002B0FD10023BB607F4B1B6C7E4A55
:1032440043F0805313647C4B1B6C03F08053BB60CE
:10325400BB680123FB75794B1B6803F48073002B57
:1032640018D1764B1B68754A43F480731360FEF7DC
:103274004BF9386108E0FEF747F902463B69D31A77
:10328400022B01D9032318E16C4B1B6803F48073F0
:10329400002BF0D07B689B68012B06D1664B1B6F1B
:1032A400654A43F0010313671CE07B689B68052BA8
:1032B4000CD1614B1B6F604A43F0040313675E4BF0
:1032C4001B6F5D4A43F0010313670BE05A4B1B6FFE
:1032D400594A23F001031367574B1B6F564A23F0D7
:1032E400040313677B689B68002B15D0FEF70CF969
:1032F40038610AE0FEF708F902463B69D31A41F245
:103304008832934201D90323D7E04B4B1B6F03F060
:103314000203002BEED014E0FEF7F6F838610AE061
:10332400FEF7F2F802463B69D31A41F2883293421F
:1033340001D90323C1E0404B1B6F03F00203002BB0
:10334400EED1FB7D012B05D13B4B1B6C3A4A23F09C
:10335400805313647B689B69002B00F0AD80364B6F
:103364009B6803F00C03082B60D07B689B69022BDD
:1033740045D1334B00221A60FEF7C6F8386108E0E5
:10338400FEF7C2F802463B69D31A022B01D9032384
:1033940093E0294B1B6803F00073002BF0D17B688A
:1033A400DA697B681B6A1A437B685B6A9B011A4370
:1033B4007B689B6A5B08013B1B041A437B68DB6ADE
:1033C4001B061A437B681B6B1B071B4913434B608B
:1033D4001B4B01221A60FEF797F8386108E0FEF7EC
:1033E40093F802463B69D31A022B01D9032364E004
:1033F400114B1B6803F00073002BF0D05CE0104B02
:1034040000221A60FEF780F8386108E0FEF77CF8C5
:1034140002463B69D31A022B01D903234DE0064B24
:103424001B6803F00073002BF0D145E07B689B69B7
:10343400012B07D1012340E0003802400070004016
:10344400600047421F4B5B68FB607B689B69012BF4
:1034540030D0FB6803F480027B68DB699A4229D18F
:10346400FB6803F03F027B681B6A9A4222D1FA6828
:1034740047F6C07313407A68526A9201934219D195
:10348400FB6803F440327B689B6A5B08013B1B04C6
:103494009A420FD1FB6803F070627B68DB6A1B06FB
:1034A4009A4207D1FB6803F0E0427B681B6B1B0761
:1034B4009A4201D0012300E0002318461837BD4684
:1034C40080BD00BF0038024080B582B000AF786094
:1034D4007B68002B01D1012383E07B685B7FDBB237
:1034E400002B05D17B6800221A777868FDF7DAFE95
:1034F4007B6802225A777B681B68CA225A627B68FF
:103504001B6853225A62786800F0B2F90346002B14
:1035140008D07B681B68FF225A627B6804225A77B2
:1035240001235EE07B681B689B687A68126823F459
:10353400E00323F0400393607B681B6899687B6811
:103544005A687B681B691A437B685B691A437B680A
:103554001B680A439A607B681B687A68D2681A61A0
:103564007B681B6819697B689B681A047B681B6805
:103574000A431A617B681B68DA687B681B6822F05F
:103584008002DA607B681B689B6803F02003002BD1
:103594000ED1786800F044F90346002B08D07B680C
:1035A4001B68FF225A627B6804225A77012318E0C1
:1035B4007B681B681A6C7B681B6822F480221A647F
:1035C4007B681B68196C7B689A697B681B680A4373
:1035D4001A647B681B68FF225A627B6801225A774F
:1035E400002318460837BD4680BD90B587B000AFAC
:1035F400F860B9607A6000237B61FB681B7F012B54
:1036040001D10223AAE0FB6801221A77FB68022297
:103614005A777B68002B26D1FB681B689B6803F0F4
:103624004003002B02D1BB680022DA70BB681B7810
:10363400184600F049F903461C04BB685B78184639
:1036440000F042F903461B021C43BB689B781846F2
:1036540000F03AF9034644EA0302BB68DB781B0432
:1036640013437B6118E0FB681B689B6803F040030D
:10367400002B02D1BB680022DA70BB681B781A04E5
:10368400BB685B781B021343BA6892781A43BB6821
:10369400DB781B0413437B61FB681B68CA225A62F4
:1036A400FB681B6853225A62F86800F0E1F803468D
:1036B400002B0BD0FB681B68FF225A62FB680422B4
:1036C4005A77FB6800221A77012347E0FB681A68DF
:1036D4007B6903F07F3323F0FE431360FB681B68B0
:1036E4009A68FB681B6822F480229A60FB681B6856
:1036F4009968BB68DA68BB681B691A43FB681B6876
:103704000A439A60FB681B68DA68FB681B6822F04E
:103714008002DA60FB681B689B6803F02003002BBF
:1037240011D1F86800F07CF80346002B0BD0FB683D
:103734001B68FF225A62FB6804225A77FB68002246
:103744001A7701230AE0FB681B68FF225A62FB68B0
:1037540001225A77FB6800221A77002318461C3787
:10376400BD4690BD80B586B000AFF860B9607A60A0
:1037740000237B61FB681B689A6ABB685A60FB681C
:103784001B681B69C3F30E02BB689A60FB681B6865
:103794001B6803F07F3323F0FE437B617B691B0CC2
:1037A400DBB203F03F03DAB2BB681A707B691B0A11
:1037B400DBB203F07F03DAB2BB685A707B69DBB219
:1037C40003F07F03DAB2BB689A707B691B0CDBB22F
:1037D40003F04003DAB2BB68DA707B68002B1AD1BD
:1037E400BB681B78184600F08DF803461A46BB6880
:1037F4001A70BB685B78184600F084F803461A46D2
:10380400BB685A70BB689B78184600F07BF8034687
:103814001A46BB689A70002318461837BD4680BD07
:1038240080B584B000AF78600023FB607B681B68C0
:10383400DA687B681B6822F0A002DA60FDF764FE98
:10384400F86009E0FDF760FE0246FB68D31AB3F5A1
:103854007A7F01D9032307E07B681B68DB6803F0E8
:103864002003002BEED0002318461037BD4680BD40
:1038740080B584B000AF78600023FB607B681B6870
:10388400DB6803F04003002B19D17B681B684FF001
:10389400FF32DA60FDF738FEF86009E0FDF734FE28
:1038A4000246FB68D31AB3F57A7F01D9032307E0F4
:1038B4007B681B68DB6803F04003002BEED0002319
:1038C40018461037BD4680BD80B485B000AF0346AE
:1038D400FB710023FB6005E0FB680133FB60FB79AF
:1038E4000A3BFB71FB79092BF6D8FB68DBB21B01A1
:1038F400DAB2FB791343DBB218461437BD465DF8E0
:10390400047B704780B485B000AF0346FB7100238D
:10391400FB60FB791B09DBB21A4613469B00134478
:103924005B00FB60FB7903F00F03DAB2FB68DBB2E8
:103934001344DBB218461437BD465DF8047B704768
:1039440080B582B000AF78607B68002B01D1012381
:1039540041E07B6893F83D30DBB2002B06D17B68F5
:10396400002283F83C20786800F039F87B68022252
:1039740083F83D207B681A687B6804331946104637
:1039840000F0E6FB7B68012283F846207B68012275
:1039940083F83E207B68012283F83F207B68012264
:1039A40083F840207B68012283F841207B68012250
:1039B40083F842207B68012283F843207B6801223C
:1039C40083F844207B68012283F845207B68012228
:1039D40083F83D20002318460837BD4680BD80B4D7
:1039E40083B000AF786000BF0C37BD465DF8047B40
:1039F4007047000080B485B000AF78607B6893F8AE
:103A04003D30DBB2012B01D001234EE07B68022262
:103A140083F83D207B681B68DA687B681B6842F08A
:103A24000102DA607B681B68234A934222D07B68D8
:103A34001B68B3F1804F1DD07B681B681F4A9342FB
:103A440018D07B681B681E4A934213D07B681B689E
:103A54001C4A93420ED07B681B681B4A934209D0D0
:103A64007B681B68194A934204D07B681B68184A18
:103A7400934211D17B681B689B6803F00703FB60CA
:103A8400FB68062B10D07B681B681A687B681B6870
:103A940042F001021A6007E07B681B681A687B68C1
:103AA4001B6842F001021A60002318461437BD4611
:103AB4005DF8047B704700BF000001400004004033
:103AC40000080040000C0040000401400040014098
:103AD4000018004080B483B000AF78607B681B6836
:103AE400DA687B681B6822F00102DA607B681B6875
:103AF4001A6A41F211131340002B0FD17B681B6823
:103B04001A6A40F244431340002B07D17B681B68B8
:103B14001A687B681B6822F001021A607B68012224
:103B240083F83D20002318460C37BD465DF8047B1E
:103B3400704780B582B000AF78607B68002B01D1FC
:103B4400012341E07B6893F83D30DBB2002B06D1C2
:103B54007B68002283F83C20786800F039F87B68A1
:103B6400022283F83D207B681A687B680433194677
:103B7400104600F0EDFA7B68012283F846207B684A
:103B8400012283F83E207B68012283F83F207B6872
:103B9400012283F840207B68012283F841207B685E
:103BA400012283F842207B68012283F843207B684A
:103BB400012283F844207B68012283F845207B6836
:103BC400012283F83D20002318460837BD4680BDF6
:103BD40080B483B000AF786000BF0C37BD465DF899
:103BE400047B704780B584B000AF786039603B686F
:103BF400002B09D17B6893F83E30DBB2012B14BF54
:103C040001230023DBB222E03B68042B09D17B684B
:103C140093F83F30DBB2012B14BF01230023DBB246
:103C240015E03B68082B09D17B6893F84030DBB280
:103C3400012B14BF01230023DBB208E07B6893F857
:103C44004130DBB2012B14BF01230023DBB2002B74
:103C540001D001237CE03B68002B04D17B68022265
:103C640083F83E2013E03B68042B04D17B680222D6
:103C740083F83F200BE03B68082B04D17B680222C9
:103C840083F8402003E07B68022283F841207B68AC
:103C94001B6801223968184600F0AAFC7B681B687F
:103CA4002D4A934204D07B681B682C4A934201D16D
:103CB400012300E00023002B07D07B681B685A6CAB
:103CC4007B681B6842F400425A647B681B68224A82
:103CD400934222D07B681B68B3F1804F1DD07B6870
:103CE4001B681F4A934218D07B681B681D4A934285
:103CF40013D07B681B681C4A93420ED07B681B68F8
:103D0400164A934209D07B681B68184A934204D030
:103D14007B681B68164A934211D17B681B689B68B9
:103D240003F00703FB60FB68062B10D07B681B685D
:103D34001A687B681B6842F001021A6007E07B681E
:103D44001B681A687B681B6842F001021A60002332
:103D540018461037BD4680BD0000014000040140F4
:103D64000004004000080040000C004000400140F6
:103D74000018004080B582B000AF78607B681B6893
:103D84001B6903F00203022B22D17B681B68DB68EA
:103D940003F00203022B1BD17B681B686FF0020245
:103DA4001A617B6801221A777B681B689B6903F0A0
:103DB4000303002B03D0786800F0ACF905E07868C1
:103DC40000F09EF9786800F0AFF97B6800221A775A
:103DD4007B681B681B6903F00403042B22D17B68F6
:103DE4001B68DB6803F00403042B1BD17B681B688E
:103DF4006FF004021A617B6802221A777B681B68E1
:103E04009B6903F44073002B03D0786800F082F9B7
:103E140005E0786800F074F9786800F085F97B684B
:103E240000221A777B681B681B6903F00803082BC0
:103E340022D17B681B68DB6803F00803082B1BD1C5
:103E44007B681B686FF008021A617B6804221A778A
:103E54007B681B68DB6903F00303002B03D07868DD
:103E640000F058F905E0786800F04AF9786800F045
:103E74005BF97B6800221A777B681B681B6903F077
:103E84001003102B22D17B681B68DB6803F010033E
:103E9400102B1BD17B681B686FF010021A617B68C2
:103EA40008221A777B681B68DB6903F44073002BD4
:103EB40003D0786800F02EF905E0786800F020F966
:103EC400786800F031F97B6800221A777B681B68F8
:103ED4001B6903F00103012B0ED17B681B68DB68AF
:103EE40003F00103012B07D17B681B686FF001020B
:103EF4001A617868FCF746FD7B681B681B6903F050
:103F04008003802B0ED17B681B68DB6803F0800381
:103F1400802B07D17B681B686FF080021A61786878
:103F240000F095FB7B681B681B6903F04003402B82
:103F34000ED17B681B68DB6803F04003402B07D17C
:103F44007B681B686FF040021A61786800F0F6F82D
:103F54007B681B681B6903F02003202B0ED17B6850
:103F64001B68DB6803F02003202B07D17B681B68E8
:103F74006FF020021A61786800F05FFB00BF083719
:103F8400BD4680BD80B584B000AFF860B9607A608A
:103F9400FB6893F83C30012B01D10223ACE0FB68B1
:103FA400012283F83C207B680C2B00F29F8001A245
:103FB40052F823F0ED3F0008F1400008F1400008FA
:103FC400F14000082D400008F1400008F1400008CD
:103FD400F14000086F400008F1400008F14000087B
:103FE400F1400008AF400008FB681B68B968184638
:103FF40000F04EF9FB681B689A69FB681B6842F085
:1040040008029A61FB681B689A69FB681B6822F0C6
:1040140004029A61FB681B689969BB681A69FB68AA
:104024001B680A439A6162E0FB681B68B96818461A
:1040340000F09EF9FB681B689A69FB681B6842F4F0
:1040440000629A61FB681B689A69FB681B6822F42A
:1040540080629A61FB681B689969BB681B691A02D4
:10406400FB681B680A439A6141E0FB681B68B968F6
:10407400184600F0F3F9FB681B68DA69FB681B68F3
:1040840042F00802DA61FB681B68DA69FB681B68A6
:1040940022F00402DA61FB681B68D969BB681A69FB
:1040A400FB681B680A43DA6121E0FB681B68B96896
:1040B400184600F047FAFB681B68DA69FB681B685E
:1040C40042F40062DA61FB681B68DA69FB681B680A
:1040D40022F48062DA61FB681B68D969BB681B69DA
:1040E4001A02FB681B680A43DA6100E000BFFB6840
:1040F400002283F83C20002318461037BD4680BDBB
:1041040080B483B000AF786000BF0C37BD465DF863
:10411400047B704780B483B000AF786000BF0C3775
:10412400BD465DF8047B704780B483B000AF78600F
:1041340000BF0C37BD465DF8047B704780B483B084
:1041440000AF786000BF0C37BD465DF8047B704754
:1041540080B485B000AF786039607B681B68FB6011
:104164007B68404A934213D07B68B3F1804F0FD0F1
:104174007B683D4A93420BD07B683C4A934207D00C
:104184007B683B4A934203D07B683A4A934208D106
:10419400FB6823F07003FB603B685B68FA681343B9
:1041A400FB607B682F4A93422BD07B68B3F1804F2E
:1041B40027D07B682C4A934223D07B682B4A9342B6
:1041C4001FD07B682A4A93421BD07B68294A9342BA
:1041D40017D07B68284A934213D07B68274A9342BE
:1041E4000FD07B68264A93420BD07B68254A9342C2
:1041F40007D07B68244A934203D07B68234A9342C6
:1042040008D1FB6823F44073FB603B68DB68FA6801
:104214001343FB60FB6823F080023B685B69134334
:10422400FB607B68FA681A603B689A687B68DA62AC
:104234003B681A687B689A627B680A4A934203D097
:104244007B680C4A934203D13B681A697B681A6302
:104254007B6801225A6100BF1437BD465DF8047BB8
:10426400704700BF00000140000400400008004007
:10427400000C0040000401400040014000440140A3
:104284000048014000180040001C0040002000408D
:1042940080B487B000AF786039607B681B6A23F014
:1042A40001027B681A627B681B6A7B617B685B68BE
:1042B4003B617B689B69FB60FB6823F07003FB60D8
:1042C400FB6823F00303FB603B681B68FA68134335
:1042D400FB607B6923F002037B613B689B687A691E
:1042E40013437B617B68204A934203D07B681F4A57
:1042F40093420CD17B6923F008037B613B68DB6844
:104304007A6913437B617B6923F004037B617B68D7
:10431400154A934203D07B68144A934211D13B69F6
:1043240023F480733B613B6923F400733B613B6876
:104334005B693A6913433B613B689B693A69134380
:104344003B617B683A695A607B68FA689A613B68AA
:104354005A687B685A637B687A691A6200BF1C37A3
:10436400BD465DF8047B7047000001400004014035
:1043740080B487B000AF786039607B681B6A23F033
:1043840010027B681A627B681B6A7B617B685B68CE
:104394003B617B689B69FB60FB6823F4E043FB6043
:1043A400FB6823F44073FB603B681B681B02FA68DC
:1043B4001343FB607B6923F020037B613B689B68AC
:1043C4001B017A6913437B617B68224A934203D0C1
:1043D4007B68214A93420DD17B6923F080037B6182
:1043E4003B68DB681B017A6913437B617B6923F0BB
:1043F40040037B617B68174A934203D07B68164A6B
:10440400934213D13B6923F480633B613B6923F4FA
:1044140000633B613B685B699B003A6913433B6102
:104424003B689B699B003A6913433B617B683A692B
:104434005A607B68FA689A613B685A687B689A6339
:104444007B687A691A6200BF1C37BD465DF8047B3D
:10445400704700BF000001400004014080B487B0F1
:1044640000AF786039607B681B6A23F480727B68D4
:104474001A627B681B6A7B617B685B683B617B6853
:10448400DB69FB60FB6823F07003FB60FB6823F0CF
:104494000303FB603B681B68FA681343FB607B699A
:1044A40023F400737B613B689B681B027A691343A6
:1044B4007B617B68214A934203D07B68204A934204
:1044C4000DD17B6923F400637B613B68DB681B02CD
:1044D4007A6913437B617B6923F480637B617B6826
:1044E400164A934203D07B68154A934213D13B6921
:1044F40023F480533B613B6923F400533B613B68E5
:104504005B691B013A6913433B613B689B691B016F
:104514003A6913433B617B683A695A607B68FA687D
:10452400DA613B685A687B68DA637B687A691A6285
:1045340000BF1C37BD465DF8047B70470000014096
:104544000004014080B487B000AF786039607B68B4
:104554001B6A23F480527B681A627B681B6A3B6186
:104564007B685B687B617B68DB69FB60FB6823F4C9
:10457400E043FB60FB6823F44073FB603B681B680B
:104584001B02FA681343FB603B6923F400533B614D
:104594003B689B681B033A6913433B617B68124A7F
:1045A400934203D07B68114A934209D17B6923F477
:1045B40080437B613B685B699B017A6913437B6140
:1045C4007B687A695A607B68FA68DA613B685A6882
:1045D4007B681A647B683A691A6200BF1C37BD465F
:1045E4005DF8047B704700BF0000014000040140F7
:1045F40080B487B000AFF860B9607A60BB6803F03C
:104604001F03012202FA03F37B61FB681A6A7B69C8
:10461400DB431A40FB681A62FB681A6ABB6803F042
:104624001F03796801FA03F31A43FB681A6200BF97
:104634001C37BD465DF8047B704780B483B000AF7F
:10464400786000BF0C37BD465DF8047B704780B4CA
:1046540083B000AF786000BF0C37BD465DF8047BC3
:1046640070470000DFF834D00D480E490E4A00238D
:1046740002E0D458C4500433C4188C42F9D30B4A12
:104684000B4C002301E013600432A242FBD3FCF77D
:10469400C3FE00F011F8FCF7ADF9704700000220EA
:1046A40000000020480000209C480008480000202A
:1046B400B8010020FEE7000070B50D4E0D4CA41BA0
:1046C400A4100025A54209D10B4E0C4C00F078F83B
:1046D400A41BA4100025A54205D170BD56F82530B1
:1046E40098470135EEE756F8253098470135F2E74B
:1046F4009448000894480008944800089848000822
:10470400931E222B10B50C4604D900230B701C46B3
:10471400204610BD0A2A09D1002807DA2D230B7080
:1047240040420121214400F00DF8F1E70021F9E7AE
:10473400FFF7E6BF02440346934200D1704703F8F3
:10474400011BF9E7F0B51D4B8BB005460C466E46D0
:1047540003F1200C18685968374603C708336345CA
:104764003E46F7D118681B793B71931E222B3860A3
:104774004FF0000304D923701C4620460BB0F0BD53
:10478400661EB5FBF2F00AAF02FB10553D44591CFE
:1047940015F8285C06F8015F054668B9605423449F
:1047A4002246191B101B8142E7DD1178187802F8A4
:1047B400010B03F80119F4E70B46E2E7644800082B
:1047C400F8B500BFF8BC08BC9E467047F8B500BFFA
:0847D400F8BC08BC9E467047CA
:1047DC003A000000666F6F642064697370656E73D5
:1047EC006572000020206665656420202073657466
:1047FC0074696E67000000006379636C6573000078
:10480C0073706565640000006261636B00000000FA
:10481C006379636C6573203C203E000073706565A2
:10482C0064203C202020203E000000002D3E000093
:10483C002020000073657276696E672E2E2E0000A4
:10484C000000000000000000010203040607080934
:10485C0000000000010203043031323334353637A6
:10486C0038396162636465666768696A6B6C6D6E22
:10487C006F707172737475767778797A00000000B6
:08488C00A8B9FF7F0100000044
:04489400E90100082E
:04489800C50100084E
:10489C000000000009000000010000000000000002
:1048AC0000000000000000000100000000000000FB
:1048BC0001000000070000000300000032000000AF
:1048CC000100000032000100C80000000024F400C8
:0848DC001000000001000000C3
:040000050800466940
:00000001FF
