:020000040800F2
:1000000000000220811F0008D11F0008D11F000836
:10001000D11F0008D11F0008D11F000800000000F8
:10002000000000000000000000000000D11F0008D8
:10003000D11F000800000000D11F000805050008BE
:10004000D11F0008D11F0008D11F0008D11F0008D0
:10005000D11F0008D11F0008D11F00080D0500089E
:10006000D11F0008D11F0008D11F0008D11F0008B0
:10007000D11F0008D11F0008D11F0008D11F0008A0
:10008000D11F0008D11F0008D11F0008D11F000890
:10009000D11F0008D11F0008D11F0008D11F000880
:1000A000D11F0008D11F0008D11F0008D11F000870
:1000B000D11F0008D11F0008D11F0008D11F000860
:1000C000D11F0008D11F0008D11F0008D11F000850
:1000D000D11F0008D11F0008D11F0008D11F000840
:1000E000D11F0008D11F0008D11F0008D11F000830
:1000F000D11F0008D11F0008D11F0008D11F000820
:10010000D11F0008D11F0008D11F0008D11F00080F
:10011000D11F0008D11F0008D11F0008D11F0008FF
:10012000D11F0008D11F0008D11F0008D11F0008EF
:10013000D11F00080000000000000000D11F0008CF
:10014000D11F0008D11F0008D11F0008D11F0008CF
:10015000D11F0008D11F0008D11F0008D11F0008BF
:10016000D11F0008D11F0008D11F0008D11F0008AF
:10017000D11F0008D11F0008D11F00080000000097
:1001800000000000D11F0008000000000000000077
:10019000D11F00080000000000000000D11F00086F
:1001A000000000000000000000000000D11F000857
:1001B000D11F0008D11F0008D11F0008D11F00085F
:0401C000D11F000843
:1001C40010B5054C237833B9044B13B10448AFF38D
:1001D40000800123237010BD1000002000000000E7
:1001E4002C20000808B5034B1BB103490348AFF3A7
:1001F400008008BD00000000140000202C2000082E
:1002040053B94AB9002908BF00281CBF4FF0FF3179
:100214004FF0FF3000F072B9ADF1080C6DE904CE77
:1002240000F006F8DDF804E0DDE9022304B07047CD
:100234002DE9F047089E04468846002B4BD18A429C
:10024400154667D9B2FA82F24AB1C2F1200701FA1F
:1002540002F320FA07F7954047EA030894404FEA6F
:10026400154E230CB8FBFEF71FFA85FC0EFB17880E
:1002740043EA084307FB0CF1994209D9EB1807F14B
:10028400FF3080F01B81994240F21881023F2B44D9
:100294005B1AA4B2B3FBFEF00EFB103344EA034432
:1002A40000FB0CFCA44509D92C1900F1FF3380F0A4
:1002B4000781A44540F2048102382C4440EA0740F7
:1002C400A4EB0C0400271EB1D4400023C6E900436C
:1002D4003946BDE8F0878B4209D9002E00F0EB8047
:1002E4000027C6E9000138463946BDE8F087B3FA6D
:1002F40083F7002F47D18B4202D3824200F2FA8067
:10030400841A61EB030301209846002EE0D0C6E96D
:100314000048DDE702B9FFDEB2FA82F2002A40F0BB
:100324008F80491B4FEA154E1FFA85F80127B1FB50
:10033400FEFC230C0EFB1C1143EA014308FB0CF1E9
:10034400994207D9EB180CF1FF3002D2994200F21E
:10035400CD808446591AA3B2B1FBFEF00EFB1014F3
:1003640043EA044408FB00F8A04507D92C1900F11E
:10037400FF3302D2A04500F2B6801846A4EB08046D
:1003840040EA0C409FE7C7F1200CBB4022FA0CFE68
:100394004EEA030E01FA07F420FA0CF521FA0CF3E5
:1003A4004FEA1E482543B3FBF8F92C0C08FB19331C
:1003B4001FFA8EFA44EA034309FB0AF49C4202FA48
:1003C40007F200FA07F10BD91EEB030309F1FF3022
:1003D40080F087809C4240F28480A9F10209734432
:1003E4001B1BADB2B3FBF8F008FB103345EA034422
:1003F40000FB0AFAA24508D91EEB040400F1FF33FE
:100404006BD2A24569D90238744440EA0940A0FB82
:100414000289A4EB0A044C45C2464B4654D351D03E
:10042400002E69D0B1EB0A0564EB030404FA0CFC5A
:10043400FD40FC404CEA0505C6E90054002747E7A7
:10044400C2F1200320FA03F7954001FA02F021FAE1
:1004540003F34FEA154E3843010CB3FBFEF71FFAC2
:1004640085F80EFB173341EA034107FB08F38B427F
:1004740004FA02F407D9691807F1FF3C2FD28B4222
:100484002DD9023F2944CB1A81B2B3FBFEF00EFBF7
:10049400103341EA034100FB08F38B4207D9691882
:1004A40000F1FF3C17D28B4215D902382944C91AEE
:1004B40040EA07473BE73746304609E70746E7E6A1
:1004C4001846FBE64145ABD2B8EB020A69EB0E02D3
:1004D40001381346A4E76046E9E7184695E76746FE
:1004E400D1E781467CE702382C4447E7ACF1020CA3
:1004F4002B442FE7384608E73746E9E6704700BF44
:1005040008B500F0C5FA08BD08B5022000F03AFCB1
:1005140008BD000000B585B000F0F0030001C0B2D2
:1005240043F00C028DF80C2043F008038DF80D30D5
:1005340040F00C038DF80E3040F008008DF80F00E9
:1005440064230093042303AA4E21034800F058FEB9
:1005540005B05DF804FB00BF7C00002000B585B049
:1005640000F0F0030001C0B243F00D028DF80C203E
:1005740043F009038DF80D3040F00D038DF80E3073
:1005840040F009008DF80F0064230093042303AAAC
:100594004E21034800F034FE05B05DF804FB00BFB3
:1005A4007C00002010B58020FFF7B4FF002403E096
:1005B4002020FFF7D3FF0134452CF9DD10BD08B529
:1005C40028B1012806D0C8B2FFF7A4FF08BD41F046
:1005D4008001F8E741F0C001F5E708B5322000F0EA
:1005E40069FA3020FFF796FF052000F063FA302007
:1005F400FFF790FF012000F05DFA3020FFF78AFF3B
:100604000A2000F057FA2020FFF784FF0A2000F0A8
:1006140051FA2820FFF77EFF012000F04BFA082052
:10062400FFF778FF012000F045FA0120FFF772FF81
:10063400012000F03FFA012000F03CFA0620FFF709
:1006440069FF012000F036FA0C20FFF763FF08BDB4
:1006540010B5044602E00134FFF780FF207800283B
:10066400F9D110BD70B504460D461646FFF79AFF42
:1006740031462846FFF7A3FF2046FFF7E9FF70BD88
:1006840030B587B000240194029403940494059433
:100694000094124B1A6B42F001021A631B6B03F0B5
:1006A40001030093009B0E4D22460221284600F0D0
:1006B40063FB022301930B4B0293012303930494E2
:1006C40001A9284600F074FA0F222146072000F001
:1006D40017FA072000F048FA07B030BD003802408E
:1006E4000000024000001110014B01221A707047F3
:1006F4002C00002072B6FEE708B50A480A4B0360D6
:100704000A4B436000238360C3604FF4804202615C
:1007140043618361C361036200F098FC00B908BDC2
:10072400FFF7E8FF7C00002000540040A086010091
:1007340000B595B03422002107A801F06DFC002318
:100744000293039304930593069300931B4A116C3D
:1007540041F080511164126C02F080520092009AB0
:10076400019317490A6822F4404242F480420A6025
:100774000A6802F440420192019A0222079201227D
:100784000A9210220B920D9307A800F07BFF88B900
:100794000F2302930021039104914FF4A053059376
:1007A4004FF48053069302A800F0E4FD20B915B07D
:1007B4005DF804FBFFF79EFFFFF79CFF0038024043
:1007C4000070004010B500F049F9FA2000F072F909
:1007D400FFF7AEFFFFF754FFFFF78EFFFFF7FDFEB5
:1007E400002201212048FFF73DFF4FF47A7000F00A
:1007F40061F901211D4800F0A1F8002201211C48E3
:10080400FFF730FF1CE0002201211A48FFF72AFFFE
:10081400002409E0B42000F0D9F8002000F0D6F854
:10082400154B00221A700134042CF3DD002201213F
:100834000F48FFF717FF03E00F4B5B78002BFBD14A
:100844000E4B1B78002BD8D00B4B1B78002BDAD126
:100854000B4B1B78002BEFD0084B00221A70064B71
:1008640001225A70ECE700BF5C200008000002403F
:1008740068200008742000082C00002000000020DC
:100884007800002000B583B0002100910C4B5A6C15
:1008940042F480425A645A6C02F480420092009AF4
:1008A40001911A6C42F080521A641B6C03F080535D
:1008B4000193019B072000F011F903B05DF804FBDC
:1008C4000038024030B589B00023039304930593A4
:1008D400069307930268154B9A4201D009B030BDC4
:1008E40000250195124C236B43F002032363236B11
:1008F40003F002030193019BC02303931223049387
:1009040001230593032306930423079303A90948AA
:1009140000F04EF90295236C43F400132364236C16
:1009240003F400130293029BD8E700BF0054004075
:10093400003802400004024072B6FEE700B58FB0F2
:10094400002000901E4B1A6C42F001021A641A6CCB
:1009540002F001020092009A01901A6B42F0010227
:100964001A631B6B03F001030193019B099102239A
:100974000A9301230D9309A9124800F019F91248AA
:100984004FF0804303604F2343604FF4FA63C36026
:1009940001F090F980B9602302930022049203923B
:1009A40002A9094801F0EAF940B90021064801F01A
:1009B4005FFA0FB05DF804FBFFF7BEFFFFF7BCFF63
:1009C40000380240000002403000002008B550B159
:1009D400B42811D1094B1B6832225A634FF4967024
:1009E40000F068F807E0054B1B68C8225A634FF40F
:1009F400967000F05FF808BDFFF79EFF30000020FE
:100A0400034AD2F8883043F47003C2F88830704740
:100A140000ED00E010B504460E4B18784FF47A73DD
:100A2400B3FBF0F30C4A1068B0FBF3F000F0AAF843
:100A340068B90F2C01D901200AE0002221464FF0A9
:100A4400FF3000F05DF8034B5C60002000E0012003
:100A540010BD00BF080000200400002008B50B4BA7
:100A64001A6842F400721A601A6842F480621A60CA
:100A74001A6842F480721A60032000F02FF80020F4
:100A8400FFF7C8FFFFF7FEFE002008BD003C024050
:100A9400034A1168034B1B780B441360704700BF73
:100AA400D400002008000020014B1868704700BFE4
:100AB400D400002038B50446FFF7F6FF0546B4F12C
:100AC400FF3F02D0044B1B781C44FFF7EDFF401B93
:100AD400A042FAD338BD00BF08000020074AD368FB
:100AE40023F4E0631B041B0C000200F4E0601843D1
:100AF40040F0BF6040F40030D060704700ED00E08B
:100B040030B4174BDB68C3F30223C3F10704042C8E
:100B140028BF04241D1D062D18D9033B4FF0FF35B3
:100B240005FA04F421EA0401994005FA03F322EAE0
:100B34000303194300280BDB0901C9B200F160402B
:100B440000F5614080F8001330BC70470023E5E7EE
:100B540000F00F000901C9B2024B1954F4E700BFB9
:100B640000ED00E014ED00E0002807DB00F01F02B8
:100B7400400901239340024A42F82030704700BFE5
:100B840000E100E00138B0F1807F0AD2064B5860E2
:100B9400064AF02182F823100020986007221A6088
:100BA40070470120704700BF10E000E000ED00E056
:100BB40000230F2B00F2D680F0B482B05DE086688B
:100BC4005F000324BC4026EA0406CC68BC403443DE
:100BD4008460466826EA02064C68C4F300129A4010
:100BE4003243426056E0DC08083450F8247003F0C5
:100BF400070296000F22B24027EA02070A69B240B0
:100C04003A4340F8242059E0062200E00022B24092
:100C14003A430234544E46F82420544A1468EA43B2
:100C240002EA04064F6817F4803F01D045EA04063F
:100C34004E4C2660646802EA04064F6817F4003FCD
:100C440001D045EA0406494C6660A46802EA040639
:100C54004F6817F4801F01D045EA0406434CA66090
:100C6400E46822404E6816F4001F01D045EA0402ED
:100C74003E4CE26001330F2B71D801229A400C687C
:100C840004EA0205AA42F5D14C6804F00304013CCD
:100C9400012C94D94A6802F00302032A09D0C468DB
:100CA4005E000322B24024EA02048A68B24022436E
:100CB400C2604A6802F00302022A94D004685E000B
:100CC4000322B24024EA02044A6802F00302B2405A
:100CD400224302604A6812F0805FCBD00022019266
:100CE400234A546C44F480445464526C02F48042A9
:100CF4000192019A9C08A61C1B4A52F8267003F024
:100D0400030296000F22B24027EA0207194A9042D2
:100D14003FF47CAF02F58062904216D002F5806207
:100D2400904214D002F58062904212D002F58062A3
:100D3400904210D002F5806290420ED002F580629B
:100D440090423FF461AF072261E701225FE702228C
:100D54005DE703225BE7042259E7052257E702B067
:100D6400F0BC7047704700BF00380140003C0140B0
:100D7400003802400000024012B909048161704742
:100D84008161704708B5054B5B69034200D108BD1A
:100D9400024B5861FFF7A8FCF9E700BF003C014093
:100DA40003685A6912F4806F11D06FF480625A613B
:100DB40000230363202280F83D2080F83E30026C3B
:100DC40042F00402026480F83C30012070470020A5
:100DD4007047F8B506460C4617461D4622E0FFF755
:100DE40063FE069BC01AA84200D8DDB90023336312
:100DF400202286F83D2086F83E30326C42F02002F4
:100E0400326486F83C3001201AE033685B6924EAD6
:100E140003039BB2B3FA83F35B099F420FD1B5F18D
:100E2400FF3FDCD1C4F30743012BEED033689B6949
:100E340024EA03039BB2B3FA83F35B09EDE70020D2
:100E4400F8BDF8B504460D4616461F463CE01A6840
:100E540042F400721A6023686FF480625A610023BE
:100E64002363202284F83D2084F83E30226C42F033
:100E74000402226484F83C30012033E0FFF714FEBE
:100E8400C01BB04200D8FEB900232363202284F89B
:100E94003D2084F83E30226C42F02002226484F823
:100EA4003C3001201EE023685B6925EA03039BB202
:100EB400003318BF0123A3B123685A6912F4806F69
:100EC400C5D1B6F1FF3FD9D1C5F30743012BEAD011
:100ED40023689B6925EA03039BB2003318BF0123EF
:100EE400E9E70020F8BD0000F0B583B004460F46E2
:100EF40015461E46C36A082B0DD0012B0BD013F5E3
:100F0400803F08D0036B122B0AD10268136843F4A4
:100F14008073136004E02268136843F480731360E1
:100F240000962B4600224FF001112046FFF751FF97
:100F340058B123681B6813F4807F2BD04FF40073DF
:100F440023640323184603B0F0BD2369B3F5804F2F
:100F54000ED1236807F0FE071F6133462A460F4966
:100F64002046FFF76EFF03460028EBD00123E9E794
:100F7400FB11226803F0060343F0F00313613346C8
:100F84002A4607492046FFF75CFF28B92368FFB2C9
:100F94001F61E2E70323D5E70123D3E70200010041
:100FA4000800010070B504460D46164623685B69C7
:100FB40013F0800F1CD12046FFF7F2FED0B9B5F133
:100FC400FF3FF3D0FFF770FD801BA84201D8002D2E
:100FD400ECD100232363202284F83D2084F83E30A2
:100FE400226C42F02002226484F83C30012000E0AC
:100FF400002070BD0120FCE770B504460D4616467E
:1010040023685B6913F0040F1CD12046FFF7C8FE68
:10101400D0B9B5F1FF3FF3D0FFF746FD801BA842DE
:1010240001D8002DECD100232363202284F83D2035
:1010340084F83E30226C42F02002226484F83C3072
:10104400012000E0002070BD0120FCE7002800F032
:10105400C880F8B5044690F83D30002B75D02423A1
:1010640084F83D302268136823F00103136022687A
:10107400136843F4004313602268136823F40043A5
:10108400136000F02DFA6268584B9A4262D8584BAC
:1010940098428CBF00230123002B40F0A480554BC1
:1010A400A3FB00239B0C21684A6822F03F021A43E9
:1010B4004A6025682A6A22F03F0266684B498E42DC
:1010C4004ED8013313432B622568E96921F44F415B
:1010D40021F0FF016368454A93424BD801385B0015
:1010E400B0FBF3F30133C3F30B03042B38BF042326
:1010F4000B43EB6121680B6823F0C003E269206AAB
:10110400024313430B6021688B6823F4034323F0E9
:10111400FF032269E068024313438B602168CB68B4
:1011240023F0FF036269A06902431343CB60226882
:10113400136843F00103136000202064202384F823
:101144003D30206384F83E00F8BD80F83C30FFF762
:10115400B9FB84E7284B98428CBF002301239BE70B
:101164004FF4967101FB03F32449A1FB03139B097C
:101174000133A7E7A268BAB9461E03EB4307B6FBDF
:10118400F7F60136C6F30B06B6FA86F6760936BBD1
:10119400C2B9013803EB4303B0FBF3F30133C3F3E8
:1011A4000B0242F40043A3E7461E03EB830707EB5D
:1011B4008707B6FBF7F60136C6F30B06B6FA86F6D2
:1011C4007609E4E7013803EB830303EB8303B0FB05
:1011D400F3F20132C2F30B0242F4404388E70123E5
:1011E40086E7012070470120AEE700BFA08601001A
:1011F4007F841E0083DE1B43FF083D00D34D621035
:101204002DE9F04184B004460E4690461F46FFF790
:101214004BFC94F83D30DBB2202B04D00226304640
:1012240004B0BDE8F08105460090192301224F491E
:101234002046FFF7CEFD002840F0918094F83C3022
:10124400012B00F08E80012384F83C3023681A6857
:1012540012F0010F03D11A6842F001021A602268E9
:10126400136823F400631360212384F83D301023B2
:1012740084F83E3000232364C4F824806785638D9A
:1012840023853B4BE3622B460A9A31462046FFF7FF
:101294002BFE0646002866D10023039323685A696F
:1012A40003929B690393039B12E0236C042B01D0EC
:1012B4000126B4E72268136843F40073136001261F
:1012C400ADE72A460A992046FFF796FE00282CD15E
:1012D400238D002B35D02A460A992046FFF762FE5B
:1012E4000028E2D1626A236812781A61616A4B1C91
:1012F4006362638D013B9BB26385238D013B9BB28B
:1013040023852268506910F0040FDAD0002BD8D05E
:101314004B781361636A01336362638D013B9BB253
:101324006385238D013B2385CBE7236C042B01D0FC
:10133400012674E72268136843F4007313600126DE
:101344006DE72268136843F400731360202384F864
:101354003D30002384F83E3084F83C305FE70226B9
:101364005DE702265BE7012659E700BF0200100093
:101374000000FFFF002800F09E8070B50446504B2B
:101384001B6803F00F038B4209D2CBB24C4A137093
:10139400136803F00F038B4201D0012070BD236852
:1013A40013F0020F17D013F0040F04D0454A9368CA
:1013B40043F4E0539360236813F0080F04D0414AC8
:1013C400936843F4604393603E4A936823F0F003C8
:1013D400A068034393600D46236813F0010F32D0D5
:1013E4006368012B21D09A1E012A25D9354A126837
:1013F40012F0020F61D033498A6822F003021343CA
:101404008B60FFF751FB06462E4B9B6803F00C03E1
:101414006268B3EB820F16D0FFF746FB801B41F2E4
:1014240088339842F0D90320B8E7264A126812F4A8
:10143400003FE0D10120B1E7224A126812F0007F98
:10144400D9D10120AAE71E4B1B6803F00F03AB425E
:1014540009D9EAB21A4B1A701B6803F00F03AB42A6
:1014640001D001209AE7236813F0040F06D0154A2F
:10147400936823F4E053E1680B439360236813F00B
:10148400080F07D00F4A936823F46043216943EAA5
:10149400C103936000F034F80A4B9B68C3F3031351
:1014A400094AD35CD840094B1860094B1868FFF708
:1014B400B1FA002072E70120704701206EE700BFF7
:1014C400003C024000380240442000080400002090
:1014D4000C000020014B1868704700BF0400002076
:1014E40008B5FFF7F7FF044B9B68C3F38223034A55
:1014F400D35CD84008BD00BF003802405420000827
:101504002DE9F04B5C4B9B6803F00C03082B07D0D0
:101514000C2B5BD0042B00F0AD805848BDE8F08B59
:10152400554B5A6802F03F025B6813F4800F2AD0CF
:10153400514B5B68C3F388131E4600275C010025EA
:10154400E41A65EB0705A90141EA9461A001001BB7
:1015540061EB0501CB0043EA5073C400A01943EBCF
:1015640007014B0243EAD0534402204619460023A4
:10157400FEF746FE404B5B68C3F3014301335B0057
:10158400B0FBF3F0CAE73C4B5B68C3F388131E4619
:1015940000275C010025E41A65EB0705A90141EA6F
:1015A4009461A001001B61EB0501CB0043EA507379
:1015B400C400A01943EB07018B0243EA9053840251
:1015C400204619460023FEF71BFED3E72A4B5A6830
:1015D40002F03F025B6813F4800F28D0264B5B684F
:1015E400C3F388131E4600275C010025E41A65EB4B
:1015F4000705A90141EA9461A001001B61EB050103
:10160400CB0043EA5073C400A01943EB07014B021B
:1016140043EAD0534402204619460023FEF7F0FD66
:10162400154B5B68C3F30273B0FBF3F076E7124B20
:101634005B68C3F388131E4600275C010025E41A87
:1016440065EB0705A90141EA9461A001001B61EB68
:101654000501CB0043EA5073C400A01943EB070112
:101664008B0243EA90538402204619460023FEF776
:10167400C7FDD5E7024851E7003802400024F400D2
:1016840000127A00002800F00B8270B582B0044684
:10169400036813F0010F41D0A54B9B6803F00C03C2
:1016A400042B32D0A24B9B6803F00C03082B27D0E9
:1016B4009F4B9B6803F00C030C2B59D06368B3F564
:1016C400803F5BD0B3F5A02F5ED0994B1A6822F40B
:1016D40080321A601A6822F480221A606368002B30
:1016E4005CD0FFF7E1F90546914B1B6813F4003F0A
:1016F40014D1FFF7D9F9401B6428F5D90320D4E1AC
:101704008B4B5B6813F4800FD2D0894B1B6813F4A6
:10171400003F03D06368002B00F0C481236813F0FA
:10172400020F67D0824B9B6813F00C0F4AD0804B9A
:101734009B6803F00C03082B3FD07D4B9B6803F0A0
:101744000C030C2B48D0E368002B74D0794B012296
:101754001A60FFF7A9F90546754B1B6813F0020FD1
:1017640060D1FFF7A1F9401B0228F5D903209CE1C1
:101774006F4B5B6813F4800FA0D0C6E76C4A136804
:1017840043F480331360A9E7694B1A6842F480225A
:101794001A601A6842F480321A609FE7FFF784F9EE
:1017A4000546634B1B6813F4003FB7D0FFF77CF981
:1017B400401B6428F5D9032077E15D4B5B6813F483
:1017C400800FBAD15A4B1B6813F0020F0AD0E3689A
:1017D400012B07D0012068E1554B5B6813F4800F9F
:1017E400B1D1EFE7524A136823F0F803216943EAC1
:1017F400C1031360236813F0080F40D0636963B317
:101804004D4B01221A60FFF74FF90546484B5B6FB9
:1018140013F0020F33D1FFF747F9401B0228F5D923
:10182400032042E1424A136823F0F803216943EAA2
:10183400C1031360DEE73F4B00221A60FFF734F95F
:1018440005463B4B1B6813F0020FD3D0FFF72CF96E
:10185400401B0228F5D9032027E1374B00221A60E8
:10186400FFF722F90546324B5B6F13F0020F06D0E7
:10187400FFF71AF9401B0228F5D9032015E1236864
:1018840013F0040F78D02A4B1B6C13F0805F33D114
:1018940000230193264B1A6C42F080521A641B6C8D
:1018A40003F080530193019B0125244B1B6813F41F
:1018B400807F23D0A368012B34D0052B40D01C4B50
:1018C4001A6F22F001021A671A6F22F004021A67D3
:1018D400A368002B3ED0FFF7E7F80646144B1B6FB6
:1018E40013F0020F47D1FFF7DFF8801B41F2883372
:1018F4009842F3D90320D8E00025D6E70F4A1368AD
:1019040043F480731360FFF7CFF806460B4B1B6854
:1019140013F4807FCED1FFF7C7F8801B0228F5D9D6
:101924000320C2E0024A136F43F001031367CFE7B9
:101934000038024000004742800E474200700040D9
:101944005D4B1A6F42F004021A671A6F42F00102EB
:101954001A67BDE7FFF7A8F80646574B1B6F13F04D
:10196400020F08D0FFF7A0F8801B41F28833984299
:10197400F3D9032099E0EDB9A369002B00F094801A
:101984004D4A926802F00C02082A54D0022B17D058
:101994004A4B00221A60FFF787F80446464B1B683F
:1019A40013F0007F45D0FFF77FF8001B0228F5D91C
:1019B40003207AE0404A136C23F080531364DBE77E
:1019C4003E4B00221A60FFF76FF805463A4B1B683E
:1019D40013F0007F06D0FFF767F8401B0228F5D903
:1019E400032062E0E369226A1343626A43EA8213D2
:1019F400A26A5208013A43EA0243E26A43EA0263F2
:101A0400226B43EA02732C4A53602C4B01221A6066
:101A1400FFF74AF80446284B1B6813F0007F06D1F1
:101A2400FFF742F8001B0228F5D903203DE000200F
:101A34003BE0002039E0012B39D01F4B5B6803F4F5
:101A44008001E269914201D001202EE003F03F02BF
:101A5400216A8A4201D0012027E0616A47F6C072F8
:101A64001A40B2EB811F01D001201EE003F4403183
:101A7400A26A5208013AB1EB024F01D0012014E0EE
:101A840003F07062E16AB2EB016F01D001200CE057
:101A940003F0E043226BB3EB027F0AD0012004E0A1
:101AA40001207047012000E0002002B070BD012039
:101AB400FBE70020F9E700BF00380240600047421E
:101AC40030B4036A23F001030362056A426884693F
:101AD40024F073040B681C4325F002058B682B4328
:101AE400104DA84203D005F58065A84205D123F026
:101AF4000803CD682B4323F004030A4DA84203D006
:101B040005F58065A84205D122F440724D6915435C
:101B14008A692A43426084614A684263036230BC32
:101B2400704700BF0000014030B4036A23F480739F
:101B34000362036A4268C46924F073040D682C4389
:101B440023F400738D6843EA0523124DA84203D0A1
:101B540005F58065A84206D123F40063CD6843EA05
:101B6400052323F480630B4DA84203D005F580655B
:101B7400A84207D122F440524D6942EA05128D6908
:101B840042EA05124260C4614A68C263036230BC1F
:101B9400704700BF0000014030B4036A23F480534F
:101BA4000362036A4468C26922F4E6420D6842EAA9
:101BB400052223F400538D6843EA0533094DA842F6
:101BC40003D005F58065A84204D124F480444D690E
:101BD40044EA85144460C2614A680264036230BC0A
:101BE400704700BF00000140704700000368304A9E
:101BF400904212D0B0F1804F0FD0A2F57C429042B7
:101C04000BD002F58062904207D002F580629042C8
:101C140003D002F57842904203D123F070034A685E
:101C24001343234A90422AD0B0F1804F27D0A2F523
:101C34007C42904223D002F5806290421FD002F58C
:101C4400806290421BD002F57842904217D002F590
:101C54007052904213D002F5806290420FD002F588
:101C6400806290420BD0A2F59832904207D002F5E0
:101C74008062904203D002F58062904203D123F443
:101C84004073CA68134323F080034A691343036013
:101C94008B68C3620B688362054B984203D003F5DB
:101CA4008063984201D10B69036301234361704748
:101CB4000000014038B310B5044690F83D30EBB154
:101CC400022384F83D30211D2068FFF78FFF012394
:101CD40084F8463084F83E3084F83F3084F840304D
:101CE40084F8413084F8423084F8433084F8443036
:101CF40084F8453084F83D30002010BD80F83C3035
:101D0400FFF772FFDCE701207047000030B4036A7C
:101D140023F010030362036A4468826922F4E642F2
:101D24000D6842EA052223F020038D6843EA051377
:101D3400114DA84203D005F58065A84206D123F0D1
:101D44008003CD6843EA051323F040030A4DA842FB
:101D540003D005F58065A84207D124F440644D6999
:101D640044EA85048D6944EA8504446082614A68D2
:101D74008263036230BC70470000014038B590F8BC
:101D84003C30012B60D00D460446012380F83C30E2
:101D94000C2A1AD8DFE802F0071919191D191919A4
:101DA4003119191944000068FFF78AFE2268936903
:101DB40043F0080393612268936923F00403936159
:101DC4002268936929690B439361002084F83C00DD
:101DD40038BD0068FFF79AFF2268936943F40063F3
:101DE40093612268936923F4806393612268936901
:101DF400296943EA01239361E7E70068FFF794FE4A
:101E04002268D36943F00803D3612268D36923F0BD
:101E14000403D3612268D36929690B43D361D4E7EE
:101E24000068FFF7B9FE2268D36943F40063D36105
:101E34002268D36923F48063D3612268D369296952
:101E440043EA0123D361C0E70220C1E710B401F0E3
:101E54001F01012303FA01F4036A23EA0403036262
:101E6400036A8A40134303625DF8044B7047000021
:101E74000A46002945D190F83E30DBB213F1FF3316
:101E840018BF0123002B73D110B5002A55D10223AA
:101E940080F83E301146044601220068FFF7D6FF61
:101EA4002368354A934203D002F58062934203D1FA
:101EB4005A6C42F400425A6423682F4A93424CD02D
:101EC400B3F1804F49D0A2F57C42934245D002F54C
:101ED4008062934241D002F5806293423DD002F584
:101EE4007842934239D002F57052934235D0A2F52C
:101EF4009432934231D01A6842F001021A600020F1
:101F040035E0042909D008290FD090F84130DBB21C
:101F140013F1FF3318BF0123B4E790F83F30DBB26D
:101F240013F1FF3318BF0123ACE790F84030DBB264
:101F340013F1FF3318BF0123A4E7042A05D0082AAC
:101F440007D0022380F84130A4E7022380F83F3011
:101F5400A0E7022380F840309CE79A6802F0070269
:101F6400062A07D01A6842F001021A60002010BD48
:101F7400012070470020FAE700000140DFF834D068
:101F84000D480E490E4A002302E0D458C4500433CD
:101F9400C4188C42F9D30B4A0B4C002301E01360A4
:101FA4000432A242FBD3FEF72BFD00F011F8FEF73A
:101FB40009FC7047000002200000002010000020EF
:101FC4009020000810000020D8000020FEE7000048
:101FD40070B50D4E0D4CA41BA4100025A54209D1CB
:101FE4000B4E0C4C00F020F8A41BA4100025A542B5
:101FF40005D170BD56F8253098470135EEE756F8FF
:10200400253098470135F2E7882000088820000829
:10201400882000088C20000802440346934200D123
:10202400704703F8011BF9E7F8B500BFF8BC08BC1A
:102034009E467047F8B500BFF8BC08BC9E46704782
:102044000000000000000000010203040607080964
:10205400000000000102030448656C6C6F20576F98
:10206400726C64002D3E2053657474696E6773004E
:0C20740053657276696E672E2E2E0000F8
:08208000B4E1FF7F0100000044
:04208800E901000862
:04208C00C501000882
:10209000010000000024F400010000001000000016
:0400000508001F814F
:00000001FF
